:020000040000fa
:080000000002040000000000f2
:020000040000fa
:10000800a45b0000845b0000885b00008c5b000040
:10001800905b0000a45b0000a45b0000a45b0000f0
:10002800a45b0000a45b0000a45b0000cc500000af
:10003800fe280000a45b0000a45b0000a45b000095
:1000480018520000a45b0000a45b0000a45b000041
:10005800a45b0000a45b0000785b0000a45b0000c8
:10006800a45b0000ac5b0000a45b0000dc56000051
:10007800a45b0000a45b0000a45b0000a45b00007c
:1000880028320000a45b0000a45b0000a45b000011
:10009800a45b0000a45b0000a45b0000a45b00005c
:1000a800a45b0000a45b0000a45b000052500000a9
:1000b800a45b0000a45b0000a45b0000a45b00003c
:1000c800a45b0000a45b0000a45b0000a45b00002c
:1000d800a45b0000a45b0000a45b0000a45b00001c
:1000e800a45b0000a45b0000a45b0000a45b00000c
:1000f800a45b0000a45b0000a45b0000a45b0000fc
:10010800a45b0000a45b0000ba480000a45b0000e8
:10011800a45b0000a45b0000a45b00009e550000e7
:10012800a45b0000a45b0000a45b0000a45b0000cb
:10013800a45b0000a45b0000a45b0000a45b0000bb
:10014800a45b0000a45b0000a45b0000a45b0000ab
:10015800a45b0000a45b0000a45b0000a45b00009b
:10016800a45b0000a45b0000a45b0000a45b00008b
:10017800a45b0000a45b0000a45b0000a45b00007b
:10018800a45b0000a45b0000a45b0000a45b00006b
:10019800a45b0000a45b0000a45b0000a45b00005b
:1001a800a45b0000a45b0000a45b0000a45b00004b
:1001b800a45b0000a45b0000a45b0000a45b00003b
:1001c800a45b0000a45b0000a45b0000a45b00002b
:1001d800a45b0000a45b0000a45b0000a45b00001b
:1001e800a45b0000a45b0000a45b0000a45b00000b
:0801f800a45b0000a45b000001
:020000040000fa
:10020800a45b0000945b0000985b00009c5b00000e
:10021800a05b0000a45b0000a45b0000a45b0000de
:10022800a45b0000a45b0000a45b0000cc500000ad
:10023800fe280000a45b0000a45b0000a45b000093
:1002480018520000a45b0000a45b0000a45b00003f
:10025800a45b0000a45b0000785b0000a45b0000c6
:10026800a45b0000ac5b0000a45b0000dc5600004f
:10027800a45b0000a45b0000a45b0000a45b00007a
:1002880028320000a45b0000a45b0000a45b00000f
:10029800a45b0000a45b0000a45b0000a45b00005a
:1002a800a45b0000a45b0000a45b000052500000a7
:1002b800a45b0000a45b0000a45b0000a45b00003a
:1002c800a45b0000a45b0000a45b0000a45b00002a
:1002d800a45b0000a45b0000a45b0000a45b00001a
:1002e800a45b0000a45b0000a45b0000a45b00000a
:1002f800a45b0000a45b0000a45b0000a45b0000fa
:10030800a45b0000a45b0000ba480000a45b0000e6
:10031800a45b0000a45b0000a45b00009e550000e5
:10032800a45b0000a45b0000a45b0000a45b0000c9
:10033800a45b0000a45b0000a45b0000a45b0000b9
:10034800a45b0000a45b0000a45b0000a45b0000a9
:10035800a45b0000a45b0000a45b0000a45b000099
:10036800a45b0000a45b0000a45b0000a45b000089
:10037800a45b0000a45b0000a45b0000a45b000079
:10038800a45b0000a45b0000a45b0000a45b000069
:10039800a45b0000a45b0000a45b0000a45b000059
:1003a800a45b0000a45b0000a45b0000a45b000049
:1003b800a45b0000a45b0000a45b0000a45b000039
:1003c800a45b0000a45b0000a45b0000a45b000029
:1003d800a45b0000a45b0000a45b0000a45b000019
:1003e800a45b0000a45b0000a45b0000a45b000009
:0803f800a45b0000a45b0000ff
:020000040000fa
:10040000efc520000e5f24000e01880000000000f0
:10041000000020000000e000020032000001200087
:100420002002880014000700700007000000e000b0
:1004300003003a0040d923000100200002003700e9
:100440000000200001002000810f70000100320038
:1004500014000700000020000000e000020032004d
:1004600000000200000000001e3b0200000000002f
:100470000040da000000fe004440a90040082000cf
:100480000000e0000300320000002000a00188000e
:100490004440a800000006008a1f78008b1f7800e7
:1004a0000000060091018800800478000000eb0045
:1004b0001a003700e284440032a0b4009905ba0063
:1004c000e284440032a0b4009906ba00e2844400f9
:1004d00032a0b4000006eb00476fde00fd07b2005b
:1004e000636ce10003003a00ebff07000000eb0043
:1004f0000a003700606ce10004003a00005deb0088
:100500008b05e900fdff3e00040037006168e10053
:10051000010032000086eb000b00070019c7ba008b
:100520001905ba000e04e00003003a000a00e000da
:10053000e0ff3a0000000600fe07b2009e018800be
:100540008a047800f5ff3700395dba008b05e900b1
:100550000c003200295dba008b05e900080032006a
:100560000c00e00003003a00e284440032a0b40032
:10057000f5ff370019ddba008b05e900faff3a00f4
:100580008904e800e184440032a0b40000000600c1
:10059000761a0400000000000021ef001108880016
:1005a00020088800000006000a21ef00710888007a
:1005b00090088800000006001421ef00d108880090
:1005c000f00888001e61a9000000060000088800ed
:1005d000000006005008880000000600a0088800ff
:1005e00000000600c00888000000060000000500aa
:1005f0003200f800023b8800910188000008bb002f
:100600000500fc0051052000313b8800a10a2000b4
:10061000313b880061e7a8000000000000000000f6
:100620003200f900000006000400a10001003700bc
:100630000400a0003200f80091018800110024009d
:10064000013b8800f10f20003208bb000400a70026
:10065000b20078000198bb008301e900faff3a007c
:10066000680151000400a7006801510068005000b3
:100670001208bb00e2ff3700f30f20003200f80041
:100680009101880031002400013b88000208bb0072
:100690000388bb00daff37003200f800003b880017
:1006a000d7ff37003200f8009101880080027800ff
:1006b000620040003549ba00e08048003204e000a2
:1006c0000410a700100032008301e9000e00320080
:1006d0002549ba003204e0000410a7000a003200e5
:1006e0008301e900080032000408a300eeff320095
:1006f00015c9ba003204e0000410a700020032005d
:100700008301e900e8ff3a003200f900000006002a
:10071000889fbe008a9fbe008c1f7800ab00070038
:10072000b200330003866c006450e1002e003200fa
:100730006420e100330032006150e1002f003200fc
:100740006120e1003100320085855500eb07b000e3
:1007500009002000080420000500370008044400b8
:1007600089844c000a0031000603430087834b0054
:100770000001530081815b00f8ff33000203be00db
:100780000800a0000804440089844c00f6ff3900ea
:10079000c639dd0083017300010032001300200020
:1007a0008904d1000884d3000998a3000500320011
:1007b0000800a7000300a0008904d1000884d3002a
:1007c0008b05e8008904d1000884d3000001eb0008
:1007d0000281d2004200070001f0a1000cf0a70046
:1007e00001f0a0008a0037006420e1008c00320094
:1007f0000801be000200be00f7ff37006120e100e3
:10080000870032006000b800f3ff370000002000ce
:1008100001f82700f0ff3700839f68000100e00027
:1008200002003d0060001000e08018000300e000be
:1008300002003d0060011100e0811900af000700d7
:100840004f00e00002003b0060001000e080180054
:100850000000060014002000b80037000001be00b0
:10086000450007000470a70003f0a1006509b1006e
:10087000160032000d0035006828e1000600350042
:10088000f0ff2f00f1ff27000300e00013003b0002
:1008900001002800000005000000400081804800a1
:1008a0008502e900fcff3a0008003700f88f42009b
:1008b00002003c008000eb00000005008100d10038
:1008c0000080d3008502e800fcff3a000300e0004e
:1008d00002003b0060001000e080180000000600ed
:1008e00081002000618055000b003d000b002000be
:1008f00061fe2f000100e1001d00340082817100c3
:10090000610164008904d1000884d3000000e8007c
:10091000faff3a00710020006100640003007000db
:10092000020060000900320061044400e0844c00d1
:100930000988a500050032008b05e8006808e10081
:1009400002003a008904d1000884d300f20f20008d
:100950000258e10005003d00c75ddd00f907b20067
:100960008980750008007800000006000bf8270059
:100970008b00780000000500c70ade00f107b20016
:10098000f50fb20008003200e1cf42000200320051
:100990000170a00024000500810f700001003200ea
:1009a0000408050044000500810f700002003a00b1
:1009b000140005008502e9000000400081c04800e5
:1009c000fcff3b000170a000240005000004be00f5
:1009d000e9ff07000003be000405be000200be00e0
:1009e000e5ff0700844f7500000006000200be000e
:1009f0006450e100050036006420e100020036008a
:100a00000968a30001003a000800be000160a000d0
:100a10004f0678004f05be004f04be0000000600e0
:100a2000f0ff2f00f1ff2700f9ff3700889fbe007d
:100a30008a9fbe008c1f7800e4ff0700ebff3300a5
:100a400003866c006450e100240032006420e10061
:100a5000270032006150e100220032006120e100f5
:100a6000210032008b854200eb07b1000134b80051
:100a7000003ab8000804420089844a00013ab800ec
:100a80000030b8008880400009014a0004003300ab
:100a90000000400081804800020149008b05e90008
:100aa000c909dd008301700001003200130020003d
:100ab000c814de004814dd004709de001200b20051
:100ac000c808de000884700085ff070001f0a1005f
:100ad0000cf0a70001f0a000cdff37006120e1007d
:100ae000cfff32000801be000200be00f7ff370052
:100af0006150e100fcff3a00c9ff37006022b800f6
:100b0000060220000000d0008180d2000482d200c2
:100b10008582d2000000a0000202520083825a00a7
:100b2000030031000202420083824a000000a1005b
:100b30000603e900f3ff3a0000000600889fbe00ac
:100b40008a9fbe00841f7800a0ff07004f00780036
:100b500011003300f0ff2f00838f6c0006003b0074
:100b6000040565000a00a7000800370009f0a60088
:100b70001000200008003700820f5400838f5c00b3
:100b8000030039001000200001003e00000020009a
:100b900009f0a7000000ea004f05be004f04be00a8
:100ba0000000e0000000060080017800020037002d
:100bb000b15978000201e9000200e000fcff3a00b0
:100bc000000006008001780002003700815978009b
:100bd0000201e9000200e000fcff3a00000006000c
:020000040000fa
:100be00000060000020100000405000003000000f0
:100bf000000000004a01000094020000de03000033
:100c00002705000070060000b90700000109000078
:100c1000480a00008f0b0000d50c0000190e0000e0
:100c20005d0f00009f100000e01100002013000085
:100c30005e1400009b150000d61600000f1800007f
:100c4000461900007b1a0000af1b0000e01c0000ea
:100c50000e1e00003b1f0000652000008c210000dc
:100c6000b1220000d3230000f3240000ff7f000026
:100c7000fb7f0000ec7f0000d37f0000b07f00000e
:100c8000837f00004c7f00000b7f0000c17e0000ce
:100c90006c7e00000e7e0000a57d0000337d00000c
:100ca000b87c0000327c0000a37b00000a7b0000bf
:100cb000687a0000bc7900000679000047780000df
:100cc0007f770000ad760000d3750000ef74000060
:100cd000017400000b7300000c720000047100002e
:080ce000f36f0000d96e000063
:020000040000fa
:100ce800889fbe008a1f78003064ab001300320072
:100cf800008020003164ab00100032003264ab0089
:100d08000e00320092218000820060000b00320049
:100d18003464ab0009003200a32180008300600026
:100d2800060032003664ab0004003200b4218000b3
:100d3800840060000080eb0053003a0080218000ae
:100d48006800600053003a00a0368a00b03682007e
:100d5800e20f5000a5003c00c2368200e20f5100ad
:100d6800a3003c00d3368200e28f5100e2013c0030
:100d7800e4368200e20f5200cf023c00f5368200d2
:100d8800e28f52000d023c0006378200e20f53004a
:100d980081033c0017378200e28f53000e003c00ad
:100da8000000e800b0368a000201e800c2368a0076
:100db8008301e800d3368a000402e800e4368a009a
:100dc8008502e800f5368a000603e80006378a003f
:100dd8008703e80017378a00c1ff2f000843200067
:100de800188c6000630060004804dd00f0cf2f001d
:100df8008a2180008a04600089047400892188009f
:100e08006301610099218000098460000804710071
:100e180098218800e3816100c819dd009a218000cb
:100e28000a01600002817100922188006302620059
:100e3800a32180000381600002017200a2218800c2
:100e4800e3826200c82add00a4218000040160005a
:100e580002817200a221880063036300b52180002b
:100e68008580600081007300b1218800e3836300fe
:100e7800c83bdd003604b60000807300b02188004e
:100e88003064a8000000eb004f0578004f04be0056
:100e98000000060001802000862180000680600096
:100ea80085003a00b0368a00a0368200e20f500072
:100eb800d8003c00c2368200e20f5100d6003c0048
:100ec800d3368200e28f5100ab023c00e436820048
:100ed800e20f520019023c00f5368200e28f520000
:100ee8008b033c0006378200e20f530073043c007a
:100ef80017378200e28f53000e003c000000e80024
:100f0800a0368a000201e800c2368a008301e800a0
:100f1800d3368a000402e800e4368a008502e80035
:100f2800f5368a000603e80006378a008703e800da
:100f380017378a0063006000c1ff2f0089218000f5
:100f4800098460000804700088218800f0cf2f0011
:100f58003024b600630161009a2180000a84600091
:100f68000804710098218800e3816100c819dd0038
:100f78009821800008016000028171009221880098
:100f880063026200a92180000981600002017200e9
:100f9800a2218800e3826200c82add00aa2180001d
:100fa8000a01600002817200a221880063036300c5
:100fb800b22180008280600081007300b121880026
:100fc800e3836300c83bdd003604b600008073008d
:100fd800b02188003164a800100020004f05780077
:100fe8004f04be0000000600aaff3700c236820088
:100ff800d3368200e4368200f53682000637820056
:1010080017378200c1ff2f0008432000188c6000aa
:10101800630060004804dd00f0cf2f008a218000c3
:101028008a046000890474008921880063016100d2
:1010380099218000098460000804710098218800c3
:10104800e3816100c819dd009a2180000a0160006f
:10105800028171009221880063026200a32180004e
:101068000381600002017200a2218800e38262000d
:10107800c82add00a42180000401600002817200fa
:10108800a221880063036300b52180008580600089
:1010980081007300b1218800e3836300c83bdd0051
:1010a8003604b60000807300b02188003064a800c0
:1010b8000000eb0074ff370090218000680060009a
:1010c80085003a00c0368a00a0368200e20f500040
:1010d800d6003c00b2368200e20f5100d4003c003a
:1010e800d3368200e28f510063013c00e43682006f
:1010f800e20f5200d6023c00f5368200e28f520021
:1011080063033c0006378200e20f530046043c00ac
:1011180017378200e28f53000e003c000000e80001
:10112800a0368a000201e800b2368a008301e8008e
:10113800d3368a000402e800e4368a008502e80013
:10114800f5368a000603e80006378a008703e800b8
:1011580017378a0063006000c1ff2f0089218000d3
:101168000984600008047000882188006301610018
:101178004811dd00f0cf2f008a2180000a046000aa
:101188000804710088218800224320001289600029
:10119800e3816100c819dd00982180000801600022
:1011a800028171009221880063026200a9218000f7
:1011b8000981600002017200a2218800e3826200b6
:1011c800c82add00aa2180000a016000028172009d
:1011d800a221880063036300b2218000828060003e
:1011e80081007300b1218800e3836300c83bdd0000
:1011f8003604b60000807300b02188003264a8006d
:10120800200020004f0578004f04be0000000600b3
:1012180020ff3700c2368200d3368200e4368200cf
:10122800f5368200063782001737820063006000b7
:10123800c1ff2f0089218000098460000804700024
:1012480088218800f0cf2f003024b60063016100a8
:101258009a2180000a84600008047100982188009f
:10126800e3816100c819dd00982180000801600051
:10127800028171009221880063026200a921800026
:101288000981600002017200a2218800e3826200e5
:10129800c82add00aa2180000a01600002817200cc
:1012a800a221880063036300b2218000828060006d
:1012b80081007300b1218800e3836300c83bdd002f
:1012c8003604b60000807300b02188003164a8009d
:1012d8001000200041ff3700932180000380600048
:1012e800d4013a00d0368a00a0368200e20f5000be
:1012f80040013c00b2368200e20f51003e013c0042
:10130800c3368200e28f510098033c00e436820025
:10131800e20f5200f2033c00f5368200e28f5200e1
:101328001d043c0006378200e20f5300dd043c0038
:1013380017378200e28f53000e003c000000e800df
:10134800a0368a000201e800b2368a008301e8006c
:10135800c3368a000402e800e4368a008502e80001
:10136800f5368a000603e80006378a008703e80096
:1013780017378a0063006000c1ff2f0089218000b1
:1013880009846000080470008821880063016100f6
:101398004811dd00f0cf2f008a2180000a04600088
:1013a8000804710088218800e38161009821800089
:1013b8000881600002817100922188003224b60001
:1013c80063026200a92180000981600002017200a5
:1013d800a2218800e3826200c82add00aa218000d9
:1013e8000a01600002817200a22188006303630081
:1013f800b22180008280600081007300b1218800e2
:10140800e3836300c83bdd003604b6000080730048
:10141800b02188003364a800300020004f05780010
:101428004f04be00000006009afe3700b236820064
:10143800d3368200e4368200f53682000637820011
:101448001737820063006000c1ff2f0089218000e8
:101458000984600008047000882188006301610025
:101468004811dd00f0cf2f008a2180000a046000b7
:101478000804710088218800224320001289600036
:10148800e3816100c819dd0098218000080160002f
:10149800028171009221880063026200a921800004
:1014a8000981600002017200a2218800e3826200c3
:1014b800c82add00aa2180000a01600002817200aa
:1014c800a221880063036300b2218000828060004b
:1014d80081007300b1218800e3836300c83bdd000d
:1014e8003604b60000807300b02188003264a8007a
:1014f8002000200043ff3700e4368200f5368200e2
:101508000637820017378200c1ff2f0008432000ea
:10151800188c6000630060004804dd00f0cf2f00e5
:101528008a2180008a046000890474008921880067
:10153800630161009921800009846000080471003a
:1015480098218800e3816100c819dd009a21800094
:101558000a01600002817100922188006302620022
:10156800a32180000381600002017200a22188008b
:10157800e3826200c82add00a42180000401600023
:1015880002817200a221880063036300b5218000f4
:101598008580600081007300b1218800e3836300c7
:1015a800c83bdd003604b60000807300b021880017
:1015b8003064a8000000eb0033fe370006378200d5
:1015c80017378200c1ff2f0008432000188c6000e5
:1015d800630060004804dd00f0cf2f008a218000fe
:1015e8008a0460008904740089218800630161000d
:1015f80099218000098460000804710098218800fe
:10160800e3816100c819dd009a2180000a016000a9
:10161800028171009221880063026200a321800088
:101628000381600002017200a2218800e382620047
:10163800c82add00a4218000040160000281720034
:10164800a221880063036300b521800085806000c3
:1016580081007300b1218800e3836300c83bdd008b
:101668003604b60000807300b02188003064a800fa
:101678000000eb0004fe3700e4368200f5368200f5
:10168800063782001737820063006000c1ff2f0011
:10169800892180000984600008047000882188007e
:1016a800630161004811dd00f0cf2f008a2180001e
:1016b8000a04600008047100882188002243200081
:1016c80012896000e3816100c819dd00982180005b
:1016d80008016000028171009221880063026200a3
:1016e800a92180000981600002017200a2218800fe
:1016f800e3826200c82add00aa2180000a01600096
:1017080002817200a221880063036300b221800075
:101718008280600081007300b1218800e383630048
:10172800c83bdd003604b60000807300b021880095
:101738003264a80020002000b2fe3700f53682008f
:10174800063782001737820063006000c1ff2f0050
:1017580089218000098460000804700088218800bd
:10176800f0cf2f003024b600630161009a21800079
:101778000a8460000804710098218800e3816100f0
:10178800c819dd00982180000801600002817100fd
:101798009221880063026200a9218000098160000b
:1017a80002017200a2218800e3826200c82add00db
:1017b800aa2180000a01600002817200a22188002b
:1017c80063036300b221800082806000810073009f
:1017d800b1218800e3836300c83bdd003604b6000e
:1017e80000807300b02188003164a8001000200038
:1017f800fafd3700b2368200c3368200e436820032
:10180800f5368200063782001737820063006000d1
:10181800c1ff2f008921800009846000080470003e
:1018280088218800630161004811dd00f0cf2f0096
:101838008a2180000a046000080471008821880059
:10184800e3816100982180000881600002817100b5
:10185800922188003224b60063026200a921800028
:101868000981600002017200a2218800e3826200ff
:10187800c82add00aa2180000a01600002817200e6
:10188800a221880063036300b22180008280600087
:1018980081007300b1218800e3836300c83bdd0049
:1018a8003604b60000807300b02188003364a800b5
:1018b80030002000d9fe3700f53682000637820056
:1018c80017378200c1ff2f0008432000188c6000e2
:1018d800630060004804dd00f0cf2f008a218000fb
:1018e8008a0460008904740089218800630161000a
:1018f80099218000098460000804710098218800fb
:10190800e3816100c819dd009a2180000a016000a6
:10191800028171009221880063026200a321800085
:101928000381600002017200a2218800e382620044
:10193800c82add00a4218000040160000281720031
:10194800a221880063036300b521800085806000c0
:1019580081007300b1218800e3836300c83bdd0088
:101968003604b60000807300b02188003064a800f7
:101978000000eb0044fd3700e4368200f5368200b3
:10198800063782001737820063006000c1ff2f000e
:10199800892180000984600008047000882188007b
:1019a800f0cf2f003024b600630161009a21800037
:1019b8000a8460000804710098218800e3816100ae
:1019c800c819dd00982180000801600002817100bb
:1019d8009221880063026200a921800009816000c9
:1019e80002017200a2218800e3826200c82add0099
:1019f800aa2180000a01600002817200a2218800e9
:101a080063036300b221800082806000810073005c
:101a1800b1218800e3836300c83bdd003604b600cb
:101a280000807300b02188003164a80010002000f5
:101a38006afd3700a02180006800600043013a0079
:101a4800e0368a00a0368200e20f5000dd003c003c
:101a5800b4368200e20f5200db003c00c53682003b
:101a6800e28f5200d8023c00d6368200e20f5300c3
:101a780038033c00f7368200e28f53003d043c00f7
:101a880003378200e28f510012003c0012378200b7
:101a9800e20f510010003c000000e800a0368a0068
:101aa8000402e800b4368a008502e800c5368a00d8
:101ab8000603e800d6368a008703e800f7368a006e
:101ac800016e24008308e8008180e8008208e800ad
:101ad800033782001237820063006000c1ff2f00c5
:101ae800892180000984600008047000882188002a
:101af800630262004822dd00f0cf2f008a218000b7
:101b08000a0460000804720088218800e3826200e9
:101b18009821800008826000048272009421880065
:101b2800630263004822dd00992180008902600079
:101b380085027200952188004a4320001a8d6000b2
:101b4800638263004822dd00a621800086026000cf
:101b580085027200a5218800e3816100b721800019
:101b68008780600081807100b1218800e3006100f6
:101b7800c808dd003604b60000807000b021880077
:101b88003464a800400020004f0578004f04be00d0
:101b980000000600bffc370017378200c1ff2f0086
:101ba80008432000188c6000630060004804dd00d2
:101bb800f0cf2f008a2180008a0460008904740015
:101bc80089218800630161009921800009846000ef
:101bd8000804710098218800e3816100c819dd00bc
:101be8009a2180000a016000028171009221880018
:101bf80063026200a3218000038160000201720079
:101c0800a2218800e3826200c82add00a4218000a6
:101c18000401600002817200a2218800630363004e
:101c2800b52180008580600081007300b1218800a3
:101c3800e3836300c83bdd003604b6000080730010
:101c4800b02188003064a8000000eb008efc37004b
:101c5800f53682000637820017378200630060007d
:101c6800c1ff2f00892180000984600008047000ea
:101c780088218800630161004811dd00f0cf2f0042
:101c88008a2180000a046000080471008821880005
:101c98002243200012896000e3816100c819dd0039
:101ca800982180000801600002817100922188005b
:101cb80063026200a92180000981600002017200ac
:101cc800a2218800e3826200c82add00aa218000e0
:101cd8000a01600002817200a22188006303630088
:101ce800b22180008280600081007300b1218800e9
:101cf800e3836300c83bdd003604b6000080730050
:101d0800b02188003264a800200020003dfd370083
:101d1800063782001737820063006000c1ff2f007a
:101d280089218000098460000804700088218800e7
:101d3800f0cf2f003024b600630161009a218000a3
:101d48000a8460000804710098218800e38161001a
:101d5800c819dd0098218000080160000281710027
:101d68009221880063026200a92180000981600035
:101d780002017200a2218800e3826200c82add0005
:101d8800aa2180000a01600002817200a221880055
:101d980063036300b22180008280600081007300c9
:101da800b1218800e3836300c83bdd003604b60038
:101db80000807300b02188003164a8001000200062
:101dc80086fc3700b4368200c5368200d6368200db
:101dd800f736820003378200123782006300600002
:101de800c1ff2f0089218000098460000804700069
:101df80088218800630262004822dd00f0cf2f00ae
:101e08008a2180000a046000080472008821880082
:101e1800e3826200982180000882600004827200d8
:101e280094218800630263004822dd009921800024
:101e38008902600085027200952188004a432000cb
:101e48001a8d6000638263004822dd00a6218000ad
:101e58008602600085027200a5218800e381610086
:101e6800b72180008780600081807100b1218800df
:101e7800e3006100c808dd003604b6000080700089
:101e8800b02188003464a800400020003eff3700dd
:101e9800063782001737820063006000c1ff2f00f9
:101ea8008921800009846000080470008821880066
:101eb800630161004811dd00f0cf2f008a21800006
:101ec8000a04600008047100882188002243200069
:101ed80012896000e3816100c819dd009821800043
:101ee800080160000281710092218800630262008b
:101ef800a92180000981600002017200a2218800e6
:101f0800e3826200c82add00aa2180000a0160007d
:101f180002817200a221880063036300b22180005d
:101f28008280600081007300b1218800e383630030
:101f3800c83bdd003604b60000807300b02188007d
:101f48003264a80020002000aefc3700a8218000e1
:101f5800888060003d013a00f1368a00a43682008c
:101f6800e20f5200c9013c00b7368200e28f5300ed
:101f780067023c00c6368200e20f53002c033c0087
:101f8800d1368200e28f50005a033c00e0368200ce
:101f9800e20f500087033c0003378200e28f5100b4
:101fa80015003c0012378200e20f510013003c007c
:101fb8000402e800a4368a008703e800b7368a00de
:101fc800856d2400860ae8008582e800810ae80019
:101fd8008580e8008008e800668042000308e80081
:101fe800688042000208e800c6368200d1368200c6
:101ff800e0368200033782001237820063026200f3
:10200800c5ff2f008921800009846200080472003e
:1020180088218800e3836300c83bdd00f4cf2f00ec
:102028008a2180000a0462000884730088218800dd
:10203800630363009821800088836200870373002c
:1020480097218800e3806000c808dd00992180009e
:10205800090362000683700096218800630060000f
:10206800aa2180008a80620081007000a121880076
:102078004043200010086200e3816100b121800024
:102088008182620085827100b52188006300610049
:102098004800dd00b22180000202620004027000e4
:1020a800b42188003564a800500020004f0578004e
:1020b8004f04be000000060076fb37001737820089
:1020c80063006000c1ff2f0089218000098460003f
:1020d8000804700088218800f0cf2f003024b60053
:1020e800630161009a2180000a846000080471007d
:1020f80098218800e3816100c819dd0098218000db
:102108000801600002817100922188006302620068
:10211800a92180000981600002017200a2218800c3
:10212800e3826200c82add00aa2180000a0160005b
:1021380002817200a221880063036300b22180003b
:102148008280600081007300b1218800e38363000e
:10215800c83bdd003604b60000807300b02188005b
:102168003164a800100020009cfb3700e436820090
:10217800f536820006378200173782006300600058
:10218800c1ff2f00892180000984600008047000c5
:1021980088218800630161004811dd00f0cf2f001d
:1021a8008a2180000a0460000804710088218800e0
:1021b800e38161009821800008816000028171003c
:1021c800922188003224b60063026200a9218000af
:1021d8000981600002017200a2218800e382620086
:1021e800c82add00aa2180000a016000028172006d
:1021f800a221880063036300b2218000828060000e
:1022080081007300b1218800e3836300c83bdd00cf
:102218003604b60000807300b02188003364a8003b
:10222800300020007dfc3700173782006300600013
:10223800c1ff2f0089218000098460000804700014
:1022480088218800630161004811dd00f0cf2f006c
:102258008a2180000a04600008047100882188002f
:102268002243200012896000e3816100c819dd0063
:102278009821800008016000028171009221880085
:1022880063026200a92180000981600002017200d6
:10229800a2218800e3826200c82add00aa2180000a
:1022a8000a01600002817200a221880063036300b2
:1022b800b22180008280600081007300b121880013
:1022c800e3836300c83bdd003604b600008073007a
:1022d800b02188003264a80020002000c9fb370024
:1022e800f5368200063782001737820063006000e7
:1022f800c1ff2f0089218000098460000804700054
:1023080088218800630161004811dd00f0cf2f00ab
:102318008a2180000a04600008047100882188006e
:10232800e3816100982180000881600002817100ca
:10233800922188003224b60063026200a92180003d
:102348000981600002017200a2218800e382620014
:10235800c82add00aa2180000a01600002817200fb
:10236800a221880063036300b2218000828060009c
:1023780081007300b1218800e3836300c83bdd005e
:102388003604b60000807300b02188003364a800ca
:102398003000200021fc3700063782001737820002
:1023a80063006000c1ff2f0089218000098460005c
:1023b8000804700088218800630161004811dd006d
:1023c800f0cf2f008a2180000a0460000804710001
:1023d80088218800e38161009821800008816000dd
:1023e80002817100922188003224b60063026200e3
:1023f800a92180000981600002017200a2218800e1
:10240800e3826200c82add00aa2180000a01600078
:1024180002817200a221880063036300b221800058
:102428008280600081007300b1218800e38363002b
:10243800c83bdd003604b60000807300b021880078
:102448003364a80030002000f4fb3700b02180007e
:1024580068006000ef003a0000378a00a736820063
:10246800e28f53008f013c00b5368200e28f5200a4
:102478008d013c00c6368200e20f5300af023c00db
:10248800d1368200e28f50000e033c00e036820015
:10249800e20f5000db023c00f4368200e20f5200eb
:1024a8009c033c0012378200e20f510015003c00eb
:1024b800436d24008709e8008381e8008509e80066
:1024c8008381e8008609e8008381e8008109e80043
:1024d8008380e8008008e800648041000408e80080
:1024e800688041000208e800b5368200c6368200de
:1024f800d1368200e0368200f4368200123782003c
:10250800a7368200e3836300c8ff2f00892180007b
:10251800890164008381730083218800e38262005b
:10252800c82add00f3cf2f008a2180008a8361004a
:1025380087837200872188006303630097218000e6
:10254800870264008502730095218800e38060009b
:10255800c808dd00992180008982610085827000a9
:102568009521880063006000aa2180008a00640029
:1025780081007000a1218800630062004800dd002e
:10258800a42180008480610081007000a12188005e
:1025980065432000950a6400630061004800dd007f
:1025a800b62180008681610083017000b321880014
:1025b8003664a800600020004f0578004f04be0074
:1025c8000000060033fa3700d6368200f73682005c
:1025d800033782001237820063006000c1ff2f00ba
:1025e800892180000984600008047000882188001f
:1025f800630262004822dd00f0cf2f008a218000ac
:102608000a0460000804720088218800e3826200de
:10261800982180000882600004827200942188005a
:10262800630263004822dd0099218000890260006e
:1026380085027200952188004a4320001a8d6000a7
:10264800638263004822dd00a621800086026000c4
:1026580085027200a5218800e3816100b72180000e
:102668008780600081807100b1218800e3006100eb
:10267800c808dd003604b60000807000b02188006c
:102688003464a800400020003ffd3700b7368200c0
:10269800c6368200d1368200e036820003378200d7
:1026a80055fe37001737820063006000c1ff2f0016
:1026b800892180000984600008047000882188004e
:1026c800630161004811dd00f0cf2f008a218000ee
:1026d8000a0460000804710088218800e381610011
:1026e8009821800008816000028171009221880091
:1026f8003224b60063026200a921800009816000cb
:1027080002017200a2218800e3826200c82add006b
:10271800aa2180000a01600002817200a2218800bb
:1027280063036300b221800082806000810073002f
:10273800b1218800e3836300c83bdd003604b6009e
:1027480000807300b02188003364a80030002000a6
:1027580032fb3700f73682000337820012378200d7
:1027680063006000c1ff2f00892180000984600098
:102778000804700088218800630262004822dd0096
:10278800f0cf2f008a2180000a046000080472003c
:1027980088218800e3826200982180000882600016
:1027a8000482720094218800630263004822dd00dd
:1027b80099218000890260008502720095218800b5
:1027c8004a4320001a8d6000638263004822dd00be
:1027d800a62180008602600085027200a52188007b
:1027e800e3816100b72180008780600081807100eb
:1027f800b1218800e3006100c808dd003604b60096
:1028080000807000b02188003464a80040002000d7
:10281800ddfc3700206e24000008eb00a73682009c
:10282800e28f53006c003c00b5368200e28f520004
:102838006a003c00c6368200e20f53008c01340067
:10284800d1368200e0368200f436820003378200f7
:10285800e3836300c8ff2f00892180000901640019
:102868000281730082218800e3826200c82add00a9
:10287800f2cf2f008a2180008a03610087837200cb
:102888008721880063036300972180008702640022
:102898008502730095218800e3806000c808dd0088
:1028a8009921800089026100858270009521880045
:1028b80063006000aa2180008a0064008100700023
:1028c800a1218800630062004800dd00a421800087
:1028d8008400610081007000a1218800e38161000b
:1028e800b52180000504640008847100b8218800bf
:1028f80066432000160b61003764a80070002000b2
:102908004f0578004f04be000000060061f937004b
:10291800c6368200d1368200e03682000337820054
:102928001237820063026200c5ff2f0089218000f0
:10293800098462000804720088218800e383630028
:10294800c83bdd00f4cf2f008a2180000a04620012
:10295800088473008821880063036300982180003d
:10296800888362008703730097218800e3806000f2
:10297800c808dd0099218000090362000683700001
:102988009621880063006000aa2180008a80620086
:1029980081007000a12188004043200010086200d7
:1029a800e3816100b121800081826200858271002b
:1029b800b5218800630061004800dd00b221800075
:1029c8000202620004027000b42188003564a80085
:1029d80050002000b5fd3700b5368200c6368200ab
:1029e800d1368200e0368200f43682000337820056
:1029f800e3836300c8ff2f00892180000901640078
:102a08000281730082218800e3826200c82add0007
:102a1800f2cf2f008a2180008a0361008783720029
:102a28008721880063036300972180008702640080
:102a38008502730095218800e3806000c808dd00e6
:102a480099218000890261008582700095218800a3
:102a580063006000aa2180008a0064008100700081
:102a6800a1218800630062004800dd00a4218000e5
:102a78008400610081007000a1218800e381610069
:102a8800b52180000504640008847100b82188001d
:102a980066432000160b61003764a8007000200010
:102aa80097ff3700b5368200c6368200d1368200dd
:102ab800e0368200f436820012378200e383630036
:102ac800c8ff2f0089218000890164008381730079
:102ad80083218800e3826200c82add00f3cf2f003b
:102ae8008a2180008a836100878372008721880099
:102af80063036300972180008702640085027300e6
:102b080095218800e3806000c808dd0099218000d5
:102b180089826100858270009521880063006000c9
:102b2800aa2180008a00640081007000a121880029
:102b3800630062004800dd00a421800084806100f9
:102b480081007000a121880065432000950a640077
:102b5800630061004800dd00b621800086816100c5
:102b680083017000b32188003664a800600020004b
:102b780091fe37000337820012378200630060003d
:102b8800c1ff2f00892180000984600008047000bb
:102b980088218800630262004822dd00f0cf2f0000
:102ba8008a2180000a0460000804720088218800d5
:102bb800e38262009821800008826000048272002b
:102bc80094218800630263004822dd009921800077
:102bd8008902600085027200952188004a4320001e
:102be8001a8d6000638263004822dd00a621800000
:102bf8008602600085027200a5218800e3816100d9
:102c0800b72180008780600081807100b121880031
:102c1800e3006100c808dd003604b60000807000db
:102c2800b02188003464a80040002000d6fb37009b
:102c3800d1368200e03682000337820012378200e4
:102c480063026200c5ff2f008921800009846200a9
:102c58000804720088218800e3836300c83bdd0014
:102c6800f4cf2f008a2180000a04620008847300d0
:102c780088218800630363009821800088836200ac
:102c88008703730097218800e3806000c808dd008f
:102c9800992180000903620006837000962188004c
:102ca80063006000aa2180008a80620081007000b1
:102cb800a12188004043200010086200e3816100e0
:102cc800b12180008182620085827100b52188006f
:102cd800630061004800dd00b2218000020262004a
:102ce80004027000b42188003564a8005000200058
:102cf800eefc3700e036820003378200123782008c
:102d080063026200c5ff2f008921800009846200e8
:102d18000804720088218800e3836300c83bdd0053
:102d2800f4cf2f008a2180000a046200088473000f
:102d380088218800630363009821800088836200eb
:102d48008703730097218800e3806000c808dd00ce
:102d5800992180000903620006837000962188008b
:102d680063006000aa2180008a80620081007000f0
:102d7800a12188004043200010086200e38161001f
:102d8800b12180008182620085827100b5218800ae
:102d9800630061004800dd00b22180000202620089
:102da80004027000b42188003564a8005000200097
:102db800befc3700033782001237820063026200cc
:102dc800c5ff2f0089218000098462000804720071
:102dd80088218800e3836300c83bdd00f4cf2f001f
:102de8008a2180000a046200088473008821880010
:102df800630363009821800088836200870373005f
:102e080097218800e3806000c808dd0099218000d0
:102e18000903620006837000962188006300600041
:102e2800aa2180008a80620081007000a1218800a8
:102e38004043200010086200e3816100b121800056
:102e48008182620085827100b5218800630061007b
:102e58004800dd00b2218000020262000402700016
:102e6800b42188003564a800500020008ffc37008a
:102e7800d1368200e28f5000c3003400e036820071
:102e8800f436820003378200e3836300c8ff2f0013
:102e98008921800009016400028173008221880071
:102ea800e3826200c82add00f2cf2f008a21800069
:102eb8008a036100878372008721880063036300a7
:102ec800972180008702640085027300952188009d
:102ed800e3806000c808dd00992180008902610054
:102ee800858270009521880063006000aa21800017
:102ef8008a00640081007000a121880063006200dc
:102f08004800dd00a4218000840061008100700079
:102f1800a1218800e3816100b521800005046400d7
:102f280008847100b821880066432000160b6100f0
:102f38003764a8007000200071fe3700d136820087
:102f4800e0368200f436820012378200e3836300a1
:102f5800c8ff2f00892180008901640083817300e4
:102f680083218800e3826200c82add00f3cf2f00a6
:102f78008a2180008a836100878372008721880004
:102f88006303630097218000870264008502730051
:102f980095218800e3806000c808dd009921800041
:102fa8008982610085827000952188006300600035
:102fb800aa2180008a00640081007000a121880095
:102fc800630062004800dd00a42180008480610065
:102fd80081007000a121880065432000950a6400e3
:102fe800630061004800dd00b62180008681610031
:102ff80083017000b32188003664a80060002000b7
:103008006dfd3700f436820012378200e3836300d7
:10301800c8ff2f0089218000890164008381730023
:1030280083218800e3826200c82add00f3cf2f00e5
:103038008a2180008a836100878372008721880043
:103048006303630097218000870264008502730090
:1030580095218800e3806000c808dd009921800080
:103068008982610085827000952188006300600074
:10307800aa2180008a00640081007000a1218800d4
:10308800630062004800dd00a421800084806100a4
:1030980081007000a121880065432000950a640022
:1030a800630061004800dd00b62180008681610070
:1030b80083017000b32188003664a80060002000f6
:1030c8003dfd3700e0368200f43682001237820078
:1030d800e3836300c8ff2f00892180008901640011
:1030e8008381730083218800e3826200c82add009f
:1030f800f3cf2f008a2180008a83610087837200c2
:103108008721880063036300972180008702640099
:103118008502730095218800e3806000c808dd00ff
:10312800992180008982610085827000952188003c
:1031380063006000aa2180008a006400810070009a
:10314800a1218800630062004800dd00a4218000fe
:103158008480610081007000a121880065432000ff
:10316800950a6400630061004800dd00b621800014
:103178008681610083017000b32188003664a8004d
:10318800600020000cfd3700e0368200e20f50009e
:1031980031003c00f4368200e20f52008c0034000b
:1031a80003378200e3836300c8ff2f008921800072
:1031b800090164000281730082218800e3826200b1
:1031c800c82add00f2cf2f008a2180008a0361001f
:1031d800878372008721880063036300972180003a
:1031e800870264008502730095218800e3806000ef
:1031f800c808dd009921800089026100858270007d
:103208009521880063006000aa2180008a0064007c
:1032180081007000a1218800630062004800dd0081
:10322800a42180008400610081007000a121880031
:10323800e3816100b5218000050464000884710001
:10324800b821880066432000160b61003764a80087
:1032580070002000aafd3700f43682000337820090
:10326800e3836300c8ff2f008921800009016400ff
:103278000281730082218800e3826200c82add008f
:10328800f2cf2f008a2180008a03610087837200b1
:103298008721880063036300972180008702640008
:1032a8008502730095218800e3806000c808dd006e
:1032b800992180008902610085827000952188002b
:1032c80063006000aa2180008a0064008100700009
:1032d800a1218800630062004800dd00a42180006d
:1032e8008400610081007000a1218800e3816100f1
:1032f800b52180000504640008847100b8218800a5
:1033080066432000160b61003764a8007000200097
:103318007bfd370012378200e3836300c8ff2f006c
:1033280089218000890164008381730083218800da
:10333800e3826200c82add00f3cf2f008a218000d3
:103348008a83610087837200872188006303630092
:103358009721800087026400850273009521880008
:10336800e3806000c808dd0099218000898261003f
:10337800858270009521880063006000aa21800082
:103388008a00640081007000a12188006300620047
:103398004800dd00a4218000848061008100700065
:1033a800a121880065432000950a6400630061003c
:1033b8004800dd00b621800086816100830170002d
:1033c800b32188003664a800600020007afc37002a
:1033d80003378200e28f51001dfd3c00426d24003e
:1033e8000709e8000281e8000509e8000281e80011
:1033f8000609e8000281e8000109e8008280e80087
:103408008008e800640041000408e8006600410004
:103418000308e800b5368200c6368200d13682003d
:10342800e0368200f436820003378200a736820035
:10343800e3836300c8ff2f0089218000090164002d
:103448000281730082218800e3826200c82add00bd
:10345800f2cf2f008a2180008a03610087837200df
:103468008721880063036300972180008702640036
:103478008502730095218800e3806000c808dd009c
:103488009921800089026100858270009521880059
:1034980063006000aa2180008a0064008100700037
:1034a800a1218800630062004800dd00a42180009b
:1034b8008400610081007000a1218800e38161001f
:1034c800b52180000504640008847100b8218800d3
:1034d80066432000160b61003764a80070002000c6
:0434e80007fd3700a5
:020000040000fa
:1034ec00f2874700889fbe008a9fbe008c9fbe005b
:1034fc008e1f780004702000040260008002eb0034
:10350c00c828dd004822de0004827000c82ade00d4
:10351c00e14f5200490032003900310093407800ed
:10352c00e9cf500086003200e7cf50009200320005
:10353c0035c3b30085cf5000c900320025c3b3009a
:10354c0085cf5000d800320085c4b30085cf500021
:10355c009c00320075c7b30085cf50000f013200bc
:10356c00b5c5b30085cf50005401320055c6b30029
:10357c0085cf50009201320095c6b30085cf500024
:10358c0045023200f7cf5000f202320025c7b300db
:10359c0085cf500015033200d5c6b30085cf50003f
:1035ac0031033200e5c6b30085cf50005a03320018
:1035bc0000c7b30080cf50000b0032006a404000bf
:1035cc0080cf500008003a00e24f510006003a004c
:1035dc00a0a5200093419000034878001004e0005f
:1035ec00b3033a00701f07004f0778004f06be0068
:1035fc004f05be004f04be002f01b10000000600b5
:10360c00e74f5200f8ff3a0093407800e1cf4000ba
:10361c002e0032000104e000f3ff3a000000fe002f
:10362c004f0778004f06be004f05be004f04be008a
:10363c002f01b10000000600f1ff37006f40600061
:10364c00ef4f5000e8ff3a00803e2000705f88008a
:10365c0070c020001080fb00800040000281fb0045
:10366c00828f5000e0ff3c000000e90000004000a9
:10367c00634178000281fb00008041009040900083
:10368c00c808dd0081007100c0be20001040780029
:10369c00e64f5000f9013200f6003e000004e00055
:1036ac0044013200e24f500064003200c81407009d
:1036bc004f0778004f06be004f05be004f04be00fa
:1036cc002f01b10000000600cdff3700e14f510083
:1036dc00c5ff3a00a1e79f0081c0b300b1e79f008e
:1036ec0031c0b300c1e79f00d1e79f0021c1b300f7
:1036fc00e1e79f0051c0b30072c020006702620076
:10370c004822dd001281fb004411dd00040271002f
:10371c00000fb2004400de00000072007e815700f2
:10372c00ce1f07004f0778004f06be004f05be00a6
:10373c004f04be002f01b10000000600b0ff37009f
:10374c00e24f5100a8ff3a0060c020001004e000d6
:10375c00a5ff320013409000441f07004f0778006c
:10376c004f06be004f05be004f04be002f01b10036
:10377c0000000600a2ff3700e14f51009aff3a000b
:10378c00a1e79f00c1be200091407800b1e79f00e7
:10379c0021c0b30072c02000670262004822dd0025
:1037ac001281fb004411dd0004027100000fb20015
:1037bc004400de00000072007e815700a71f070046
:1037cc00d8ff370060c020001004e00086ff3200f4
:1037dc00e54f5100e8023200e84f510082ff3a00f9
:1037ec00734190004811dd00634090000080fb00a5
:1037fc0002017000d3409000c808dd0043409000e7
:10380c000080fb0081007000334290004822dd00f4
:10381c00234090000080fb00040070002a1e07006b
:10382c004f0778004f06be004f05be004f04be0088
:10383c002f01b1000000060071ff370000002800c6
:10384c00808f500003003200b157880060140700cd
:10385c0097ff370011002800b1578800fbff370095
:10386c00e14f510060ff3a00a1e79f0072c02000b9
:10387c0092417800b3e79f0021c0b3006702620059
:10388c004822dd001281fb004411dd0004027100ae
:10389c00000fb2004400de00000072007e81570071
:1038ac006e1f07009fff3700e24f51004eff3a009a
:1038bc00c0be20001004e0000300320001cbb300b6
:1038cc0090cf100048ff3a001340900078c02000c1
:1038dc00004c7800781f070018407800681b070020
:1038ec000002eb0083042000826824000000250005
:1038fc001100200068f307002204240000002500ba
:10390c001100200037f307001880fb008000eb004b
:10391c0040348a0051348a00886c240010c0b300f3
:10392c00004c78000800e8000048eb00c0aa2c000e
:10393c0050368a000204200001fc2f0088804000d1
:10394c000080eb00621e070060368a000000eb006e
:10395c0070368a000304200002fc2f00080141008d
:10396c0000002500110020002cf3070003042000a8
:10397c0008017800000425001100200027f307003f
:10398c004f0778004f06be004f05be004f04be0027
:10399c002f01b1000000060019ff3700e64f51005f
:1039ac0011ff360060c020001004e0000eff320052
:1039bc00934090008180fb0000af20001042780003
:1039cc00014878008000e800114278008048eb0044
:1039dc00a34090008180fb00334290004822dd0020
:1039ec0084807000c1618800c34090008180fb001e
:1039fc00534290004822dd0084807000d161880021
:103a0c00634290000482fb000402d10001c4200038
:103a1c0084487800d1618000e18f4000340232008c
:103a2c0011c420008048eb0041022000e84f5100f7
:103a3c000d003200f161880001af200010407800c9
:103a4c0061406000e8fe32001144a1004f0778008d
:103a5c004f06be004f05be004f04be002f01b10043
:103a6c0000000600e6fe3700f34090008180fb006a
:103a7c00f0ff3700ea4f50000cff3900eb4f5000bd
:103a8c006eff360002c5b300824f500007ff3a00ac
:103a9c0000c02900808f500001003d00800078009c
:103aac0000402600808f5000010034008000780018
:103abc0091578800c6130700fdfe3700e34f5100f5
:103acc00c9fe3a00a3429000134190008040eb00e5
:103adc00e14f51001e00320062c020000149780005
:103aec00b1c5b300a1e79f0081c0b300b1e79f004f
:103afc0033c0b300c3e79f00d3e79f0023c1b300db
:103b0c00e3e79f0013c0b300f3e79f0063c0b3006b
:103b1c0083ef9f009241780093ef9f001241780051
:103b2c0072c02000670262004822dd001281fb0097
:103b3c004411dd0004027100000fb2004400de00ed
:103b4c00000072007e815700c41e0700f5fe37008e
:103b5c008540780061c0b2008180fb008100e900e3
:103b6c00cf08de0062c0200001497800b1c5b30067
:103b7c00a1e79f0081c0b300b1e79f0033c0b30041
:103b8c00c3e79f00d3e79f0023c1b300e3e79f0087
:103b9c0013c0b300f3e79f0063c0b30083ef9f0033
:103bac009241780093ef9f001241780072c0200080
:103bbc00dcff3700951c070085130700bcfe37009f
:103bcc0060c020001004e00087fe3200e84f510076
:103bdc0001023200e64f510083fe3a001340900080
:103bec00e14f5000f7013200e24f50007efe3a00e8
:103bfc0013009000a3009000806088009160880002
:103c0c00ab608000ba6080008d6080009c6080009a
:103c1c000d0178008c0178000b0078008a00780088
:103c2c0009f307000000e000e40135000a04be00bf
:103c3c000200200003f823000900780088007800b7
:103c4c0001f307000000e0008d03350002002000a6
:103c5c00030024000900780088007800faf20700bd
:103c6c000000e0006a033500020020000308240075
:103c7c000900780088007800f3f207000000e000eb
:103c8c0047033500020020000310240009007800cf
:103c9c0088007800ecf207000000e00024033500f7
:103cac000200200003182400090078008800780026
:103cbc00e5f207000000e0000103350002002000df
:103ccc00032024000900780088007800def2070049
:103cdc000000e000de023500020020000328240072
:103cec000900780088007800d7f207000000e00097
:103cfc00bb023500020020000330240009007800cc
:103d0c0088007800d0f207000000e000980235002f
:103d1c000200200003382400090078008800780095
:103d2c00c9f207000000e000750235000200200017
:103d3c00034024000900780088007800c2f20700d4
:103d4c000000e0005202350002002000034824006d
:103d5c000900780088007800bbf207000000e00042
:103d6c002f023500020020000350240009007800c7
:103d7c0088007800b4f207000000e0000c02350067
:103d8c000200200003582400090078008800780005
:103d9c00adf207000000e000e90135000200200050
:103dac00036024000900780088007800a6f2070060
:103dbc000000e000c601350002002000036824006a
:103dcc0009007800880078009ff207000000e000ee
:103ddc00470335000200200003702c000802be00cf
:103dec00050078008400780097f207000000e000de
:103dfc00fdfd3d00f00020000800200009702c00a3
:103e0c00fec0b300004757000200200003702400de
:103e1c000c02be00050078008400780000f3070057
:103e2c000801be0037f2070089f20700000678008f
:103e3c0002002000037024000a02be000500780076
:103e4c0084007800f6f207000801be002df207008e
:103e5c007ff207000e4178008c007800641c07008c
:103e6c004f0778004f06be004f05be004f04be0042
:103e7c002f01b10000000600e1fd37000051800069
:103e8c00808f5000d100340001518000a157880070
:103e9c00cf12070006fe370060c020001004e000bf
:103eac00d1fd3200e84f510065013200e64f510060
:103ebc00cdfd3a0013409000e14f50005b01320001
:103ecc00e24f5000c8fd3a0013009000a300900090
:103edc0040608800516088006b6080007a608000d0
:103eec004d6080005c6080000d0178008c017800d2
:103efc000b0078008a00780053f207000000e00005
:103f0c00480135000a04be000200200003f823001b
:103f1c0009007800880078004bf207000000e000f0
:103f2c0097043500020020000300240009007800eb
:103f3c008800780044f207000000e00074043500ab
:103f4c000200200003082400090078008800780093
:103f5c003df207000000e000510435000200200093
:103f6c0003102400090078008800780036f207005e
:103f7c000000e0002e04350002002000031824008d
:103f8c0009007800880078002ff207000000e0009c
:103f9c000b043500020020000320240009007800e7
:103fac008800780028f207000000e000e8033500e4
:103fbc000200200003282400090078008800780003
:103fcc0021f207000000e000c503350002002000cc
:103fdc000330240009007800880078001af20700ea
:103fec000000e000a203350002002000033824008a
:103ffc00090078008800780013f207000000e00048
:10400c007f033500020020000340240009007800e3
:10401c00880078000cf207000000e0005c0335001b
:10402c000200200003482400090078008800780072
:10403c0005f207000000e000390335000200200003
:10404c00035024000900780088007800fef1070076
:10405c000000e00016033500020020000358240085
:10406c000900780088007800f7f107000000e000f4
:10407c00f3023500020020000360240009007800e0
:10408c0088007800f0f107000000e000d002350055
:10409c0002002000036824000900780088007800e2
:1040ac00e9f107000000e000ad023500020020003d
:1040bc0003702c000802be00050078008400780014
:1040cc00e1f107000000e00047fd3d00f00020009a
:1040dc000800200009702c00fec0b30000475700f8
:1040ec0002002000037024000c02be0005007800c2
:1040fc00840078004af207000801be0081f1070035
:10410c00d3f10700000678000200200003702400a1
:10411c000a02be00050078008400780040f2070017
:10412c000801be0077f10700c9f107000e417800c5
:10413c008c007800c01b07004f0778004f06be00ac
:10414c004f05be004f04be002f01b1000000060059
:10415c002bfd3700e54f510023fd3a0060c02000d5
:10416c001004e00020fd3200c0be2000104078009a
:10417c006a405000e14f50001bfd3e00a3409000f0
:10418c00c808dd00134090000080fb0001007000a7
:10419c00b0578800b0578000b1578000000028004d
:1041ac00808f500010fd3a000000e800b0578800e6
:1041bc004f0778004f06be004f05be004f04be00ef
:1041cc002f01b100000006000dfd370000518000ea
:1041dc000000ea00808f50002cff3d000151800050
:1041ec008100ea00a157880029ff3700e34f5100f6
:1041fc00fdfc3a0060c020001004e000fafc320024
:10420c0000c5b300c1be2000914f1000f6fc3a006f
:10421c00a3409000c808dd00134090000080fb0014
:10422c0001007000905788009157800000402600d4
:10423c00808f500004003c009157800000c0290082
:10424c00808f5000e8fc3d00905788004f077800a5
:10425c004f06be004f05be004f04be002f01b1003b
:10426c0000000600e6fc3700e54f5100defc3a008a
:10427c0060c020001004e000dbfc3200c0be200057
:10428c0061c0b30090cf1000d7fc3a00a34090005f
:10429c00c808dd00134090000080fb000100700096
:1042ac00a0578800a157800000518000808f5000db
:1042bc0076003c00a1578000005180000000ea000d
:1042cc00808f5000c8fc3d00005180000000ea00c7
:1042dc00a05788004f0778004f06be004f05be0060
:1042ec004f04be002f01b10000000600c4fc3700d3
:1042fc001054a00014c0b30011c4200084487800ee
:10430c00e78050008008eb0041022000e84f51008c
:10431c00c8fd3a00d4fd3700e14f5100b2fc3a0021
:10432c00a1e79f007e87570041af2000116f7800f6
:10433c0091409000114798008040eb00e1e79f000e
:10434c00d1e79f0051c0b30072c020006702620029
:10435c004822dd001281fb004411dd0004027100d3
:10436c00000fb2004400de00000072007e81570096
:10437c00ba1c0700ebfc3700a3409000c808dd0016
:10438c00134090000080fb00810070004f08de009d
:10439c00010040000080d10002e224004a1b07000b
:1043ac004f0778004f06be004f05be004f04be00fd
:1043bc002f01b1000000060091fc37000c04be0078
:1043cc001bfe370013009000a3009000a060880033
:1043dc00b16088000afe370073419000c340900022
:1043ec00c808dd00334090000080fb0081007000a5
:1043fc00234290004822dd00134090000080fb0017
:10440c0004007000fa1a07004f0778004f06be0030
:10441c004f05be004f04be002f01b1000000060086
:10442c0077fc37000c04be00b7fe37001300900079
:10443c00a30090006060880071608800a6fe3700c1
:10444c0073419000c3409000c808dd0033409000d9
:10445c000080fb0081007000234290004822dd00a8
:10446c00134090000080fb0004007000f21a07005b
:10447c004f0778004f06be004f05be004f04be002c
:10448c002f01b100000006005dfc370003518000d5
:10449c00a35788004f0778004f06be004f05be009b
:1044ac004f04be002f01b1000000060054fc370081
:1044bc00301c07004f0778004f06be004f05be00aa
:1044cc004f04be002f01b100000006004cfc370069
:1044dc00d00020000800200009602400fec0b300ba
:1044ec000047570002002000037024000c02be009d
:1044fc00050078008400780049f107000801be002f
:10450c0080f00700d2f007000006780002002000bf
:10451c00037024000a02be000500780084007800b5
:10452c003ff107000801be0076f00700c8f0070055
:10453c000e4178008c007800ad1a070048fe370059
:10454c00c00020000800200009582400fec0b30061
:10455c000047570002002000037024000c02be002c
:10456c0005007800840078002df107000801be00da
:10457c0064f00700b6f00700000678000200200087
:10458c00037024000a02be00050078008400780045
:10459c0023f107000801be005af00700acf0070039
:1045ac000e4178008c007800911a07002cfe370021
:1045bc00b00020000800200009502400fec0b30009
:1045cc000047570002002000037024000c02be00bc
:1045dc00050078008400780011f107000801be0086
:1045ec0048f007009af0070000067800020020004f
:1045fc00037024000a02be000500780084007800d5
:10460c0007f107000801be003ef0070090f007001c
:10461c000e4178008c007800751a070010fe3700e8
:10462c00a00020000800200009482400fec0b300b0
:10463c000047570002002000037024000c02be004b
:10464c000500780084007800f5f007000801be0032
:10465c002cf007007ef00700000678000200200016
:10466c00037024000a02be00050078008400780064
:10467c00ebf007000801be0022f0070074f0070001
:10468c000e4178008c007800591a0700f4fd3700b1
:10469c00900020000800200009402400fec0b30058
:1046ac000047570002002000037024000c02be00db
:1046bc000500780084007800d9f007000801be00de
:1046cc0010f0070062f007000006780002002000de
:1046dc00037024000a02be000500780084007800f4
:1046ec00cff007000801be0006f0070058f00700e5
:1046fc000e4178008c0078003d1a0700d8fd370079
:10470c00800020000800200009382400fec0b300ff
:10471c000047570002002000037024000c02be006a
:10472c000500780084007800bdf007000801be0089
:10473c00f4ef070046f007000006780002002000a6
:10474c00037024000a02be00050078008400780083
:10475c00b3f007000801be00eaef07003cf00700c9
:10476c000e4178008c007800211a0700bcfd370040
:10477c00700020000800200009302400fec0b300a7
:10478c000047570002002000037024000c02be00fa
:10479c000500780084007800a1f007000801be0035
:1047ac00d8ef07002af0070000067800020020006e
:1047bc00037024000a02be00050078008400780013
:1047cc0097f007000801be00ceef070020f00700ad
:1047dc000e4178008c007800051a0700a0fd370008
:1047ec00600020000800200009282400fec0b3004f
:1047fc000047570002002000037024000c02be008a
:10480c00050078008400780085f007000801be00e0
:10481c00bcef07000ef00700000678000200200035
:10482c00037024000a02be000500780084007800a2
:10483c007bf007000801be00b2ef070004f0070090
:10484c000e4178008c007800e919070084fd3700d0
:10485c00500020000800200009202400fec0b300f6
:10486c000047570002002000037024000c02be0019
:10487c00050078008400780069f007000801be008c
:10488c00a0ef0700f2ef07000006780002002000fe
:10489c00037024000a02be00050078008400780032
:1048ac005ff007000801be0096ef0700e8ef070075
:1048bc000e4178008c007800cd19070068fd370098
:1048cc00400020000800200009182400fec0b3009e
:1048dc000047570002002000037024000c02be00a9
:1048ec0005007800840078004df007000801be0038
:1048fc0084ef0700d6ef07000006780002002000c6
:10490c00037024000a02be000500780084007800c1
:10491c0043f007000801be007aef0700ccef070058
:10492c000e4178008c007800b11907004cfd37005f
:10493c00300020000800200009102400fec0b30045
:10494c000047570002002000037024000c02be0038
:10495c00050078008400780031f007000801be00e3
:10496c0068ef0700baef070000067800020020008d
:10497c00037024000a02be00050078008400780051
:10498c0027f007000801be005eef0700b0ef07003c
:10499c000e4178008c0078009519070030fd370027
:1049ac00200020000800200009082400fec0b300ed
:1049bc000047570002002000037024000c02be00c8
:1049cc00050078008400780015f007000801be008f
:1049dc004cef07009eef0700000678000200200055
:1049ec00037024000a02be000500780084007800e1
:1049fc000bf007000801be0042ef070094ef070020
:104a0c000e4178008c0078007919070014fd3700ee
:104a1c00100020000800200009002400fec0b30094
:104a2c000047570002002000037024000c02be0057
:104a3c000500780084007800f9ef07000801be003b
:104a4c0030ef070082ef070000067800020020001c
:104a5c00037024000a02be00050078008400780070
:104a6c00efef07000801be0026ef070078ef070004
:104a7c000e4178008c0078005d190700f8fc3700b7
:104a8c000000eb000800200009f82300fec0b30072
:104a9c000047570002002000037024000c02be00e7
:104aac000500780084007800ddef07000801be00e7
:104abc0014ef070066ef07000006780002002000e4
:104acc00037024000a02be00050078008400780000
:104adc00d3ef07000801be000aef07005cef0700e8
:104aec000e4178008c00780041190700dcfc37007f
:104afc00e00020000800200009682400fec0b3007c
:104b0c000047570002002000037024000c02be0076
:104b1c000500780084007800c1ef07000801be0092
:104b2c00f8ee07004aef07000006780002002000ac
:104b3c00037024000a02be0005007800840078008f
:104b4c00b7ef07000801be00eeee070040ef0700cc
:104b5c000e4178008c00780025190700c0fc370046
:104b6c00e00020000800200009682400fec0b3000b
:104b7c000047570002002000037024000c02be0006
:104b8c000500780084007800a5ef07000801be003e
:104b9c00dcee07002eef0700000678000200200074
:104bac00037024000a02be0005007800840078001f
:104bbc009bef07000801be00d2ee070024ef0700b0
:104bcc000e4178008c0078001b1907005afd370045
:104bdc00d00020000800200009602400fec0b300b3
:104bec000047570002002000037024000c02be0096
:104bfc00050078008400780089ef07000801be00ea
:104c0c00c0ee070012ef070000067800020020003b
:104c1c00037024000a02be000500780084007800ae
:104c2c007fef07000801be00b6ee070008ef070093
:104c3c000e4178008c007800ff1807003efd37000d
:104c4c00c00020000800200009582400fec0b3005a
:104c5c000047570002002000037024000c02be0025
:104c6c0005007800840078006def07000801be0095
:104c7c00a4ee0700f6ee0700000678000200200004
:104c8c00037024000a02be0005007800840078003e
:104c9c0063ef07000801be009aee0700ecee070078
:104cac000e4178008c007800e318070022fd3700d5
:104cbc00b00020000800200009502400fec0b30002
:104ccc000047570002002000037024000c02be00b5
:104cdc00050078008400780051ef07000801be0041
:104cec0088ee0700daee07000006780002002000cc
:104cfc00037024000a02be000500780084007800ce
:104d0c0047ef07000801be007eee0700d0ee07005b
:104d1c000e4178008c007800c718070006fd37009c
:104d2c00a00020000800200009482400fec0b300a9
:104d3c000047570002002000037024000c02be0044
:104d4c00050078008400780035ef07000801be00ec
:104d5c006cee0700beee0700000678000200200093
:104d6c00037024000a02be0005007800840078005d
:104d7c002bef07000801be0062ee0700b4ee07003f
:104d8c000e4178008c007800ab180700eafc370065
:104d9c00900020000800200009402400fec0b30051
:104dac000047570002002000037024000c02be00d4
:104dbc00050078008400780019ef07000801be0098
:104dcc0050ee0700a2ee070000067800020020005b
:104ddc00037024000a02be000500780084007800ed
:104dec000fef07000801be0046ee070098ee070023
:104dfc000e4178008c0078008f180700cefc37002d
:104e0c00800020000800200009382400fec0b300f8
:104e1c000047570002002000037024000c02be0063
:104e2c000500780084007800fdee07000801be0044
:104e3c0034ee070086ee0700000678000200200022
:104e4c00037024000a02be0005007800840078007c
:104e5c00f3ee07000801be002aee07007cee070007
:104e6c000e4178008c00780073180700b2fc3700f4
:104e7c00700020000800200009302400fec0b300a0
:104e8c000047570002002000037024000c02be00f3
:104e9c000500780084007800e1ee07000801be00f0
:104eac0018ee07006aee07000006780002002000ea
:104ebc00037024000a02be0005007800840078000c
:104ecc00d7ee07000801be000eee070060ee0700eb
:104edc000e4178008c0078005718070096fc3700bc
:104eec00600020000800200009282400fec0b30048
:104efc000047570002002000037024000c02be0083
:104f0c000500780084007800c5ee07000801be009b
:104f1c00fced07004eee07000006780002002000b2
:104f2c00037024000a02be0005007800840078009b
:104f3c00bbee07000801be00f2ed070044ee0700cf
:104f4c000e4178008c0078003b1807007afc370083
:104f5c00500020000800200009202400fec0b300ef
:104f6c000047570002002000037024000c02be0012
:104f7c000500780084007800a9ee07000801be0047
:104f8c00e0ed070032ee070000067800020020007a
:104f9c00037024000a02be0005007800840078002b
:104fac009fee07000801be00d6ed070028ee0700b3
:104fbc000e4178008c0078001f1807005efc37004b
:104fcc00400020000800200009182400fec0b30097
:104fdc000047570002002000037024000c02be00a2
:104fec0005007800840078008dee07000801be00f3
:104ffc00c4ed070016ee0700000678000200200042
:10500c00037024000a02be000500780084007800ba
:10501c0083ee07000801be00baed07000cee070096
:10502c000e4178008c0078000318070042fc370012
:10503c00300020000800200009102400fec0b3003e
:10504c000047570002002000037024000c02be0031
:10505c00050078008400780071ee07000801be009e
:10506c00a8ed0700faed070000067800020020000a
:10507c00037024000a02be0005007800840078004a
:10508c0067ee07000801be009eed0700f0ed07007b
:10509c000e4178008c007800e717070026fc3700db
:1050ac00200020000800200009082400fec0b300e6
:1050bc000047570002002000037024000c02be00c1
:1050cc00050078008400780055ee07000801be004a
:1050dc008ced0700deed07000006780002002000d2
:1050ec00037024000a02be000500780084007800da
:1050fc004bee07000801be0082ed0700d4ed07005f
:10510c000e4178008c007800cb1707000afc3700a2
:10511c00100020000800200009002400fec0b3008d
:10512c000047570002002000037024000c02be0050
:10513c00050078008400780039ee07000801be00f5
:10514c0070ed0700c2ed0700000678000200200099
:10515c00037024000a02be00050078008400780069
:10516c002fee07000801be0066ed0700b8ed070042
:10517c000e4178008c007800af170700eefb37006b
:10518c000000eb000800200009f82300fec0b3006b
:10519c000047570002002000037024000c02be00e0
:1051ac0005007800840078001dee07000801be00a1
:1051bc0054ed0700a6ed0700000678000200200061
:1051cc00037024000a02be000500780084007800f9
:1051dc0013ee07000801be004aed07009ced070026
:1051ec000e4178008c00780093170700d2fb370033
:020000040000fa
:1051fc003600f800809fbe00829fbe00849fbe00d8
:10520c00869fbe00889fbe008a9fbe008c9fbe00fa
:10521c008e1f7800f0874700400f20002002880086
:10522c004a1407004da820002254800040548000ee
:10523c00615525000192b900cf91de00838e52009a
:10524c000d87e8000201ea00000151000192b9004b
:10525c004f91de00028f52000181b9004f80de00b9
:10526c00e48046008088510008af20001841780087
:10527c0061406100390132002ca120001c04e000c7
:10528c004201320080a32000a0070700000578002f
:10529c0079120700a0f79f009841780062c0610066
:1052ac0035013a00c9032000110009000905d80096
:1052bc008044e8001bb020009bcf14001700320084
:1052cc00184278007040620001b0200048013a009a
:1052dc0018437800614063000400320000af2000e6
:1052ec00104078006240600059023a001b40780080
:1052fc0080487800894d7800e3cf54006e0232006c
:10530c00e3cf540024013400e5cf54007d02320079
:10531c000f033500e6cf5400c4023200435880001e
:10532c008306780032588000820278008904fb00e2
:10533c0010002800808464003a0133001843780080
:10534c00624063003e01320000af20001040780044
:10535c00614260000000eb003f01320010588000f9
:10536c0000005500340b2000840f50002e023c002e
:10537c00c4f42f00840f500001003d008016b000d3
:10538c00fe0f50002b023c00e4012000fe0f4000f9
:10539c00030035000000e0002f013d000002ea0090
:1053ac00040242006063280060057a00805f2800d8
:1053bc00e0057a008b05ea000904e0002d013200bb
:1053cc009d067800958056000a8bb9002058800005
:1053dc00100078000b82b900c12edd004f22de00d8
:1053ec0004827600d1ff2f0001a2b900c13edd007e
:1053fc00cf30de008180760084804000c157880069
:10540c000a82b90093017800128151000b91b90006
:10541c00c128dd004f20de00008070008000ea0013
:10542c00411add004f10de000000720000805000b9
:10543c00d05788001c04e0002b013200c0be2000b5
:10544c0004a52000b3c0b30090cf11003a01320084
:10545c00c1be200066c0b300914f1300360132006c
:10546c001c04e00034013a00c25780000151800056
:10547c00810f5100b5013c00c357800002518000e0
:10548c000201ea0041a42000828f510001003d007e
:10549c0080c8eb0042a420001104e000b1013200ee
:1054ac0011c0b30092cf10006003320080c0eb003b
:1054bc0092cf1000ff023200a0518000b151800049
:1054cc0062518000735180000200400083804800cc
:1054dc001401fb000201e900030033008180d100bc
:1054ec000080d300fbff370080067800d157800086
:1054fc008100ea006052800012528000028150004c
:10550c000093b90096bf9f00a7bf9f007252800006
:10551c0010528000008040000283b900c6bf9f007b
:10552c00d7bf9f008251800093518000e2bf9f0043
:10553c00f3bf9f001fb99700afb997000203430058
:10554c0083834b006fb99700ffb9970006034100a6
:10555c008783490096bf9f00a7bf9f008651880094
:10556c00975188001152880082518000935180001d
:10557c0090528000a1528000800f5100818f590001
:10558c003b01340096528000a7528000865188005f
:10559c009751880082518000935180001400fb00c9
:1055ac000000e900030033008381d1000281d300a5
:1055bc00fbff3700020678002103200012032000b5
:1055cc00c201e20009003d00100e800000f0a100b5
:1055dc00820f500005003e008100e900f8ff3a0000
:1055ec00c0c520001074a000fb160700705f80007f
:1055fc000000e00006003400705f80000000e9004d
:10560c00705f8800705f80000000e00032013200a3
:10561c004f68de000d0040000080d1004f61de00bd
:10562c000c0141000281d1000a83b9000b92b90030
:10563c00c12edd004f22de0004827600d1ff2f0048
:10564c0001a2b900c139dd00cf30de0081807100cc
:10565c00848040000b82b9000a91b900411bdd0027
:10566c004f11de0002017300c12bdd004f20de0064
:10567c0000807300000041000904e00001003200ca
:10568c000000ea00a2588000008950008258800077
:10569c00000940008100ea00925880000089500007
:1056ac00525880006158800070588000d40d07005b
:1056bc00184478006440640005003a00f0578000fc
:1056cc000000e800f0578800f30f500033013c0055
:1056dc00a0a520001004e0001400320061538000eb
:1056ec00f0042000808f500010003e0042508000db
:1056fc005350800080162000009ab9000011b800a9
:10570c008300420062538000c809de0000aa20001a
:10571c0003707900625380000201e8000170790087
:10572c00605380000080e800605388008480a900ea
:10573c000f01b1004f0778004f06be004f05be00a9
:10574c004f04be004f03be004f02be004f01be000f
:10575c004f00be003600f900004006000005eb00cb
:10576c002ca1200044110700a0f79f00984178005d
:10577c0062c06100cbfe3200831107000080fb0089
:10578c00015f2800e1447800cafe370005160700c7
:10579c0000057800befe3700e1cf540079013200dd
:1057ac00e2cf5400ddfe3a004d588800e0b02000f6
:1057bc00a058880080a8200030588800a0b0200095
:1057cc00905888002e588800c0b02000805888005f
:1057dc0085a820008d017800050178008904fb0064
:1057ec001000280080846400d4fe3b000d003700bc
:1057fc00b1bf9f00bd170700bfb897001c04e000a5
:10580c00b3fe3a00e25f8000800f51007a02320052
:10581c00e05f88001843780061406300affe3a00f7
:10582c00b2fe37008904e900e0ff2f008904700004
:10583c008904e8001843780062406300c2fe3a0015
:10584c00c4032000110009000405d8008000fd00ed
:10585c007e005000d1fe330000004000646328003d
:10586c0064057800845f2800e40578000904e000f2
:10587c00d3fe3a009d067800958056000a8bb9003d
:10588c0020588000100078000b82b900c12edd007a
:10589c00cf20de0081807600630ab900c13edd00b6
:1058ac00cf30de008180760084804000c1578800b4
:1058bc000a82b90093017800128151000b91b90052
:1058cc00c128dd004f20de0000807000411add0091
:1058dc00cf10de008100720001005000d05788000c
:1058ec001c04e000d5fe3a00c0be20001043780036
:1058fc00ea405300e1cf50005f01360063c0b300b3
:10590c0090cf11008501320001c5b30090cf10007b
:10591c002e0132006011b800a2518800b3518800ea
:10592c008000eb00c151880004a52000b3c0b30077
:10593c0090cf1100c6fe3a00c1518000c0578000c4
:10594c0000805000625280000152800081005000a3
:10595c00028eb9007252800001528000810040001a
:10596c000289b90046518000575180000c0141005a
:10597c008d8149000201430083814b004251880014
:10598c0053518800005288004251800053518000ce
:10599c0090528000a1528000800f5100818f5900dd
:1059ac005100340090528000a15280004051880078
:1059bc005151880040518000515180001401fb006e
:1059cc000201e900030033008180d1000080d30084
:1059dc00fbff370080067800d15780008100ea0079
:1059ec006052800012528000028150000093b90076
:1059fc0096bf9f00a7bf9f0072528000105280007c
:105a0c00008040000283b900c6bf9f00d7bf9f0033
:105a1c008251800093518000e2bf9f00f3bf9f0032
:105a2c001fb99700afb997000203430083834b0063
:105a3c006fb99700ffb997000603410087834900af
:105a4c0096bf9f00a7bf9f00865188009751880082
:105a5c001152880082518000935180009052800036
:105a6c00a1528000800f5100818f5900c5fe3c006f
:105a7c0092528000a352800080518000915180008e
:105a8c0060011100e0811900800f5100818f5900d5
:105a9c00c0fe340090528000a152800060001000c3
