:020000040000fa
:080000000002040000000000f2
:020000040000fa
:1000080098460000784600007c46000080460000c4
:100018008446000098460000984600009846000074
:100028009846000098460000984600005e3c000094
:10003800bc1400009846000098460000984600004e
:10004800aa3d000098460000984600009846000027
:1000580098460000984600006c460000984600004c
:1000680098460000a04600009846000004420000a0
:100078009846000098460000984600009846000000
:10008800c61d0000984600009846000098460000eb
:1000980098460000984600009846000098460000e0
:1000a800984600009846000098460000e43b00008f
:1000b80098460000984600009846000098460000c0
:1000c80098460000984600009846000098460000b0
:1000d80098460000984600009846000098460000a0
:1000e8009846000098460000984600009846000090
:1000f8009846000098460000984600009846000080
:1001080098460000984600004634000098460000d3
:10011800984600009846000098460000c640000037
:10012800984600009846000098460000984600004f
:10013800984600009846000098460000984600003f
:10014800984600009846000098460000984600002f
:10015800984600009846000098460000984600001f
:10016800984600009846000098460000984600000f
:1001780098460000984600009846000098460000ff
:1001880098460000984600009846000098460000ef
:1001980098460000984600009846000098460000df
:1001a80098460000984600009846000098460000cf
:1001b80098460000984600009846000098460000bf
:1001c80098460000984600009846000098460000af
:1001d800984600009846000098460000984600009f
:1001e800984600009846000098460000984600008f
:0801f800984600009846000043
:020000040000fa
:1002080098460000884600008c4600009046000092
:100218009446000098460000984600009846000062
:100228009846000098460000984600005e3c000092
:10023800bc1400009846000098460000984600004c
:10024800aa3d000098460000984600009846000025
:1002580098460000984600006c460000984600004a
:1002680098460000a046000098460000044200009e
:1002780098460000984600009846000098460000fe
:10028800c61d0000984600009846000098460000e9
:1002980098460000984600009846000098460000de
:1002a800984600009846000098460000e43b00008d
:1002b80098460000984600009846000098460000be
:1002c80098460000984600009846000098460000ae
:1002d800984600009846000098460000984600009e
:1002e800984600009846000098460000984600008e
:1002f800984600009846000098460000984600007e
:1003080098460000984600004634000098460000d1
:10031800984600009846000098460000c640000035
:10032800984600009846000098460000984600004d
:10033800984600009846000098460000984600003d
:10034800984600009846000098460000984600002d
:10035800984600009846000098460000984600001d
:10036800984600009846000098460000984600000d
:1003780098460000984600009846000098460000fd
:1003880098460000984600009846000098460000ed
:1003980098460000984600009846000098460000dd
:1003a80098460000984600009846000098460000cd
:1003b80098460000984600009846000098460000bd
:1003c80098460000984600009846000098460000ad
:1003d800984600009846000098460000984600009d
:1003e800984600009846000098460000984600008d
:0803f800984600009846000041
:020000040000fa
:100400002fc520000e6d24000e01880000000000a2
:10041000000020000000e000020032000001200087
:100420002002880014000700700007000000e000b0
:1004300003003a00e097220001002000020037008c
:100440000000200001002000810f70000100320038
:1004500014000700000020000000e000020032004d
:100460000000020000000000082702000000000059
:100470000040da000000fe004440a90040082000cf
:100480000000e0000300320000002000a00188000e
:100490004440a800000006008a1f78008b1f7800e7
:1004a0000000060091018800800478000000eb0045
:1004b0001a003700e284440032a0b4009905ba0063
:1004c000e284440032a0b4009906ba00e2844400f9
:1004d00032a0b4000006eb00476fde00fd07b2005b
:1004e000636ce10003003a00ebff07000000eb0043
:1004f0000a003700606ce10004003a00005deb0088
:100500008b05e900fdff3e00040037006168e10053
:10051000010032000086eb000b00070019c7ba008b
:100520001905ba000e04e00003003a000a00e000da
:10053000e0ff3a0000000600fe07b2009e018800be
:100540008a047800f5ff3700395dba008b05e900b1
:100550000c003200295dba008b05e900080032006a
:100560000c00e00003003a00e284440032a0b40032
:10057000f5ff370019ddba008b05e900faff3a00f4
:100580008904e800e184440032a0b40000000600c1
:1005900074060400000000000021ef00110888002c
:1005a00020088800000006000a21ef00710888007a
:1005b00090088800000006001421ef00d108880090
:1005c000f00888001e61a9000000060000088800ed
:1005d000000006005008880000000600a0088800ff
:1005e00000000600c00888000000060000000500aa
:1005f0003200f800023b8800910188000008bb002f
:100600000500fc0051052000313b8800a10a2000b4
:10061000313b880061e7a8000000000000000000f6
:100620003200f900000006000400a10001003700bc
:100630000400a0003200f80091018800110024009d
:10064000013b8800f10f20003208bb000400a70026
:10065000b20078000198bb008301e900faff3a007c
:10066000680151000400a7006801510068005000b3
:100670001208bb00e2ff3700f30f20003200f80041
:100680009101880031002400013b88000208bb0072
:100690000388bb00daff37003200f800003b880017
:1006a000d7ff37003200f8009101880080027800ff
:1006b000620040003549ba00e08048003204e000a2
:1006c0000410a700100032008301e9000e00320080
:1006d0002549ba003204e0000410a7000a003200e5
:1006e0008301e900080032000408a300eeff320095
:1006f00015c9ba003204e0000410a700020032005d
:100700008301e900e8ff3a003200f900000006002a
:10071000889fbe008a9fbe008c1f7800ab00070038
:10072000b200330003866c006450e1002e003200fa
:100730006420e100330032006150e1002f003200fc
:100740006120e1003100320085855500eb07b000e3
:1007500009002000080420000500370008044400b8
:1007600089844c000a0031000603430087834b0054
:100770000001530081815b00f8ff33000203be00db
:100780000800a0000804440089844c00f6ff3900ea
:10079000c639dd0083017300010032001300200020
:1007a0008904d1000884d3000998a3000500320011
:1007b0000800a7000300a0008904d1000884d3002a
:1007c0008b05e8008904d1000884d3000001eb0008
:1007d0000281d2004200070001f0a1000cf0a70046
:1007e00001f0a0008a0037006420e1008c00320094
:1007f0000801be000200be00f7ff37006120e100e3
:10080000870032006000b800f3ff370000002000ce
:1008100001f82700f0ff3700839f68000100e00027
:1008200002003d0060001000e08018000300e000be
:1008300002003d0060011100e0811900af000700d7
:100840004f00e00002003b0060001000e080180054
:100850000000060014002000b80037000001be00b0
:10086000450007000470a70003f0a1006509b1006e
:10087000160032000d0035006828e1000600350042
:10088000f0ff2f00f1ff27000300e00013003b0002
:1008900001002800000005000000400081804800a1
:1008a0008502e900fcff3a0008003700f88f42009b
:1008b00002003c008000eb00000005008100d10038
:1008c0000080d3008502e800fcff3a000300e0004e
:1008d00002003b0060001000e080180000000600ed
:1008e00081002000618055000b003d000b002000be
:1008f00061fe2f000100e1001d00340082817100c3
:10090000610164008904d1000884d3000000e8007c
:10091000faff3a00710020006100640003007000db
:10092000020060000900320061044400e0844c00d1
:100930000988a500050032008b05e8006808e10081
:1009400002003a008904d1000884d300f20f20008d
:100950000258e10005003d00c75ddd00f907b20067
:100960008980750008007800000006000bf8270059
:100970008b00780000000500c70ade00f107b20016
:10098000f50fb20008003200e1cf42000200320051
:100990000170a00024000500810f700001003200ea
:1009a0000408050044000500810f700002003a00b1
:1009b000140005008502e9000000400081c04800e5
:1009c000fcff3b000170a000240005000004be00f5
:1009d000e9ff07000003be000405be000200be00e0
:1009e000e5ff0700844f7500000006000200be000e
:1009f0006450e100050036006420e100020036008a
:100a00000968a30001003a000800be000160a000d0
:100a10004f0678004f05be004f04be0000000600e0
:100a2000f0ff2f00f1ff2700f9ff3700889fbe007d
:100a30008a9fbe008c1f7800e4ff0700ebff3300a5
:100a400003866c006450e100240032006420e10061
:100a5000270032006150e100220032006120e100f5
:100a6000210032008b854200eb07b1000134b80051
:100a7000003ab8000804420089844a00013ab800ec
:100a80000030b8008880400009014a0004003300ab
:100a90000000400081804800020149008b05e90008
:100aa000c909dd008301700001003200130020003d
:100ab000c814de004814dd004709de001200b20051
:100ac000c808de000884700085ff070001f0a1005f
:100ad0000cf0a70001f0a000cdff37006120e1007d
:100ae000cfff32000801be000200be00f7ff370052
:100af0006150e100fcff3a00c9ff37006022b800f6
:100b0000060220000000d0008180d2000482d200c2
:100b10008582d2000000a0000202520083825a00a7
:100b2000030031000202420083824a000000a1005b
:100b30000603e900f3ff3a0000000600889fbe00ac
:100b40008a9fbe00841f7800a0ff07004f00780036
:100b500011003300f0ff2f00838f6c0006003b0074
:100b6000040565000a00a7000800370009f0a60088
:100b70001000200008003700820f5400838f5c00b3
:100b8000030039001000200001003e00000020009a
:100b900009f0a7000000ea004f05be004f04be00a8
:100ba0000000e0000000060080017800020037002d
:100bb000b15978000201e9000200e000fcff3a00b0
:100bc000000006008001780002003700815978009b
:100bd0000201e9000200e000fcff3a00000006000c
:020000040000fa
:100be00000060000020100000405000003000000f0
:100bf000000000004a01000094020000de03000033
:100c00002705000070060000b90700000109000078
:100c1000480a00008f0b0000d50c0000190e0000e0
:100c20005d0f00009f100000e01100002013000085
:100c30005e1400009b150000d61600000f1800007f
:100c4000461900007b1a0000af1b0000e01c0000ea
:100c50000e1e00003b1f0000652000008c210000dc
:100c6000b1220000d3230000f3240000ff7f000026
:100c7000fb7f0000ec7f0000d37f0000b07f00000e
:100c8000837f00004c7f00000b7f0000c17e0000ce
:100c90006c7e00000e7e0000a57d0000337d00000c
:100ca000b87c0000327c0000a37b00000a7b0000bf
:100cb000687a0000bc7900000679000047780000df
:100cc0007f770000ad760000d3750000ef74000060
:100cd000017400000b7300000c720000047100002e
:080ce000f36f0000d96e000063
:020000040000fa
:100ce800ea874700889fbe008a9fbe008c9fbe008f
:100cf8008e1f780004702000040260008002eb0060
:100d0800c828dd004822de0004827000c82ade0000
:100d1800e14f520052003200420031009340780007
:100d2800e9cf500088003200e7cf5000940032002d
:100d380035c3b30085cf5000cb00320025c3b300c4
:100d480085cf5000da00320085c4b30085cf50004b
:100d58009e00320075c7b30085cf500011013200e4
:100d6800b5c5b30085cf50005601320055c6b30053
:100d780085cf50009901320095c6b30085cf500049
:100d880045023200f7cf5000f202320025c7b30007
:100d980085cf500015033200d5c6b30085cf50006b
:100da80031033200e3c6b30083cf500017003a0086
:100db800e14f510015003a00a1ef9f0076875700d8
:100dc800e1a92000116f7800914090001147980028
:100dd8008040eb00e1ef9f00d1ef9f0051c0b300ce
:100de800f2bf2000670262004822dd001281fb008a
:100df8004411dd0004027100000fb2004400de005f
:100e080000007200768157008f1f07004f07780097
:100e18004f06be004f05be004f04be00af00b10034
:100e280000000600e74f5200f8ff3a0093407800b0
:100e3800e1cf40002e0032000104e000f3ff3a0049
:100e48000000fe004f0778004f06be004f05be00a9
:100e58004f04be00af00b10000000600f1ff3700ec
:100e68006f406000ef4f5000e8ff3a00803e2000de
:100e780050378a00f0bf20001080fb00800040003f
:100e88000281fb00828f5000e0ff3c000000e90077
:100e980000004000634178000281fb0000804100af
:100ea80090409000c808dd0081007100806e240029
:100eb80010407800e64f500041013200ef003e003c
:100ec8000004e0003b013200e24f50005d003200b8
:100ed800221507004f0778004f06be004f05be00d9
:100ee8004f04be00af00b10000000600cdff370080
:100ef800e14f5100c5ff3a00a1ef9f0081c0b30048
:100f0800b1ef9f0031c0b300c1ef9f00d1ef9f0048
:100f1800e1ef9f0051c0b300f2bf200067026200fa
:100f28004822dd001281fb004411dd00040271003b
:100f3800000fb2004400de00000072007681570006
:100f4800411f0700b1ff3700e24f5100afff3a00e1
:100f5800e0bf20001004e000acff32001340900016
:100f6800c41e07004f0778004f06be004f05be009d
:100f78004f04be00af00b10000000600a9ff370013
:100f8800e14f5100a1ff3a00a1ef9f00816e2400bc
:100f980091407800b1ef9f0021c0b300f2bf20005c
:100fa800670262004822dd001281fb004411dd0067
:100fb80004027100000fb2004400de00000072005d
:100fc80076815700201f070090ff3700e0bf200000
:100fd8001004e0008dff3200e54f5100ce023200d0
:100fe800e84f510089ff3a00734190004811dd0035
:100ff800634090000080fb0002017000d340900025
:10100800c808dd00434090000080fb0081007000ac
:10101800334290004822dd00234090000080fb000e
:1010280004007000aa1d07004f0778004f06be0095
:101038004f05be004f04be00af00b100000006001f
:1010480078ff370000002800808f5000030032002e
:1010580001558800c11407009eff370011002800c1
:1010680001558800fbff3700e14f510067ff3a0048
:10107800a1ef9f00f2bf200092417800b3ef9f00dc
:1010880021c0b300670262004822dd001281fb0024
:101098004411dd0004027100000fb2004400de00bc
:1010a8000000720076815700e71e070057ff3700df
:1010b800e24f510055ff3a00806e24001004e00012
:1010c8000300320001cbb30090cf10004fff3a006d
:1010d80013409000f8bf2000004c7800f11e070074
:1010e80018407800fb1a07000002eb008304200078
:1010f80082b62000000025001100200067fd0700cf
:1011080022042400000025001100200036fd0700fd
:101118001880fb008000eb00405b8800515b880072
:1011280088ba200010c0b300004c78000800e8001e
:101138000048eb00c0aa2c00505d88000204200083
:1011480001fc2f00888040000080eb00e21d0700b2
:10115800605d88000000eb00705d880003042000db
:1011680002fc2f00080141000000250011002000aa
:101178002bfd070003042000080178000004250067
:101188001100200026fd07004f0778004f06be001b
:101198004f05be004f04be00af00b10000000600be
:1011a80020ff3700e64f510018ff3600e0bf20004f
:1011b8001004e00015ff3200934090008180fb008e
:1011c800a0a9200010427800014878008000e800bb
:1011d800114278008048eb00a34090008180fb001a
:1011e800334290004822dd0084807000f16088005e
:1011f800c34090008180fb00534290004822dd00ec
:101208008480700001618800634290000482fb00c2
:101218000402d10061c22000844878000161800086
:10122800e18f40003202320071c220008048eb009a
:1012380041022000e84f51000d0032002161880072
:10124800a1a920001040780061406000effe320044
:101258001144a1004f0778004f06be004f05be009d
:101268004f04be00af00b10000000600edfe3700dd
:10127800f34090008180fb00f0ff3700ea4f5000f8
:1012880013ff3900eb4f50006eff360002c5b30064
:10129800824f50000eff3a0000c02900808f500096
:1012a80001003d008000780000402600808f50003b
:1012b8000100340080007800e154880027140700fa
:1012c80004ff3700e34f5100d0fe3a00a3429000dc
:1012d800134190008040eb00e14f51001d003200a7
:1012e800e2bf200001497800b1c5b300a1ef9f001b
:1012f80081c0b300b1ef9f0033c0b300c3ef9f00bc
:10130800d3ef9f00e3ef9f0013c0b300f3ef9f00fc
:1013180063c0b30083f79f009241780093f79f0062
:1013280012417800f2bf2000670262004822dd0007
:101338001281fb004411dd0004027100000fb200ad
:101348004400de0000007200768157003e1e070050
:10135800aefe37008540780061c0b2008180fb0096
:101368008100e900cf08de00e2bf200001497800d3
:10137800b1c5b300a1ef9f0081c0b300b1ef9f00da
:1013880033c0b300c3ef9f00d3ef9f00e3ef9f008c
:1013980013c0b300f3ef9f0063c0b30083f79f004f
:1013a8009241780093f79f0012417800f2bf200025
:1013b800ddff37002a1c0700e8130700c5fe3700c9
:1013c80000518000808f500080013400015180005e
:1013d800f1548800e1130700befe3700e0bf20008b
:1013e8001004e00089fe3200e84f5100e9013200a4
:1013f800e64f510085fe3a0013409000e14f50003f
:10140800d8013200e24f500080fe3a0013009000ed
:10141800a300900040608800516088006b608000e5
:101428007a6080004d6080005c6080000d0178006b
:101438008c0178000b0078008a00780003fd070013
:101448000000e000c50135000a04be0002002000cb
:1014580003f823000900780088007800fbfc0700e7
:101468000000e000260535000200200003002400eb
:101478000900780088007800f4fc07000000e0000c
:101488000305350002002000030824000900780045
:1014980088007800edfc07000000e000e00435005b
:1014a800020020000310240009007800880078005a
:1014b800e6fc07000000e000bd0435000200200043
:1014c800031824000900780088007800dffc070072
:1014d8000000e0009a0435000200200003202400e8
:1014e8000900780088007800d8fc07000000e000b8
:1014f8007704350002002000032824000900780042
:1015080088007800d1fc07000000e0005404350092
:1015180002002000033024000900780088007800c9
:10152800cafc07000000e00031043500020020007a
:10153800033824000900780088007800c3fc0700fd
:101548000000e0000e0435000200200003402400e3
:101558000900780088007800bcfc07000000e00063
:10156800eb0335000200200003482400090078003e
:1015780088007800b5fc07000000e000c8033500cb
:101588000200200003502400090078008800780039
:10159800aefc07000000e000a503350002002000b3
:1015a800035824000900780088007800a7fc070089
:1015b8000000e000820335000200200003602400e0
:1015c8000900780088007800a0fc07000000e0000f
:1015d8005f0335000200200003682400090078003a
:1015e8008800780099fc07000000e0003c03350003
:1015f8000200200003702c000802be0005007800dd
:101608008400780091fc07000000e000fffd3d0029
:10161800f00020000800200009702c00fec0b30074
:101628000047570002002000037024000c02be008f
:101638000500780084007800fafc07000801be0065
:1016480031fc070083fc0700000678000200200038
:10165800037024000a02be000500780084007800a8
:10166800f0fc07000801be0027fc070079fc070012
:101678000e4178008c007800df1b07004f077800c8
:101688004f06be004f05be004f04be00af00b100bc
:1016980000000600e3fd3700e0bf20001004e00072
:1016a800dafd3200e84f51004d013200e64f51009b
:1016b800d6fd3a0013409000e14f5000300132004f
:1016c800e24f5000d1fd3a0013009000a3009000b3
:1016d80000608800116088002b6080003a608000fc
:1016e8000d6080001c6080000d0178008c0178007e
:1016f8000b0078008a00780054fc07000000e00026
:101708001d0135000a04be000200200003f8230072
:1017180009007800880078004cfc07000000e00011
:10172800b7023500020020000300240009007800f9
:101738008800780045fc07000000e00094023500ae
:1017480002002000030824000900780088007800bf
:101758003efc07000000e000710235000200200096
:1017680003102400090078008800780037fc07007f
:101778000000e0004e02350002002000031824009b
:10178800090078008800780030fc07000000e000bd
:101798002b023500020020000320240009007800f5
:1017a8008800780029fc07000000e00008023500e6
:1017b800020020000328240009007800880078002f
:1017c80022fc07000000e000e501350002002000cf
:1017d8000330240009007800880078001bfc07000b
:1017e8000000e000c2013500020020000338240098
:1017f800090078008800780014fc07000000e00069
:101808009f013500020020000340240009007800f1
:10181800880078000dfc07000000e0007c0135001e
:10182800020020000348240009007800880078009e
:1018380006fc07000000e000590135000200200006
:10184800035024000900780088007800fffb070097
:101858000000e00036013500020020000358240093
:101868000900780088007800f8fb07000000e00015
:1018780013013500020020000360240009007800ed
:1018880088007800f1fb07000000e000f000350058
:10189800020020000368240009007800880078000e
:1018a800eafb07000000e00071023500020020009a
:1018b80003702c000802be00050078008400780040
:1018c800e2fb07000000e00050fd3d00f0002000b2
:1018d8000800200009702c00fec0b3000047570024
:1018e80002002000037024000c02be0005007800ee
:1018f800840078004bfc07000801be0082fb07004b
:10190800d4fb0700000678000200200003702400c2
:101918000a02be00050078008400780041fc070038
:101928000801be0078fb0700cafb07000e417800db
:101938008c007800421b07004f0778004f06be0056
:101948004f05be004f04be00af00b1000000060006
:1019580034fd3700e54f51002cfd3a00e0bf200070
:101968001004e00029fd3200806e24001040780049
:101978006a405000e14f500024fd3e00a340900013
:10198800c808dd00134090000080fb0001007000d3
:10199800005588000055800001558000000028008f
:1019a800808f500019fd3a000000e80000558800bb
:1019b8004f0778004f06be004f05be004f04be001b
:1019c800af00b1000000060016fd3700005180008e
:1019d8000000ea00808f50007dfe3d00015180002c
:1019e8008100ea00f15488007afe3700e34f510085
:1019f80006fd3a00e0bf20001004e00003fd3200bd
:101a080000c5b300816e2400914f1000fffc3a001e
:101a1800a3409000c808dd00134090000080fb0040
:101a280001007000e0548800e15480000040260066
:101a3800808f500004003c00e154800000c0290061
:101a4800808f5000f1fc3d00e05488004f0778007b
:101a58004f06be004f05be004f04be00af00b100e8
:101a680000000600effc3700e54f5100e7fc3a00a4
:101a7800e0bf20001004e000e4fc3200806e240087
:101a880061c0b30090cf1000e0fc3a00a340900082
:101a9800c808dd00134090000080fb0001007000c2
:101aa800f0548800f154800000518000808f50006d
:101ab8005e003c00f1548000005180000000ea0004
:101ac800808f5000d1fc3d00005180000000ea00ea
:101ad800f05488004f0778004f06be004f05be003f
:101ae8004f04be00af00b10000000600cdfc370077
:101af8001054a00014c0b30071c2200084487800bc
:101b0800e78050008008eb0041022000e84f5100b8
:101b1800cafd3a00d6fd3700a3409000c808dd0092
:101b2800134090000080fb00810070004f08de0029
:101b3800010040000080d10002e22400e41a0700fe
:101b48004f0778004f06be004f05be004f04be0089
:101b5800af00b10000000600b2fc37000c04be0064
:101b68003afe370013009000a300900060608800e0
:101b78007160880029fe37000c04be00e2fe3700c1
:101b880013009000a3009000206088003160880056
:101b9800d1fe370073419000c3409000c808dd00b3
:101ba800334090000080fb008100700023429000c9
:101bb8004822dd00134090000080fb000400700004
:101bc8008d1a07004f0778004f06be004f05be006c
:101bd8004f04be00af00b1000000060091fc3700c2
:101be80073419000c3409000c808dd003340900066
:101bf8000080fb0081007000234290004822dd0035
:101c0800134090000080fb00040070008c1a07004d
:101c18004f0778004f06be004f05be004f04be00b8
:101c2800af00b100000006007efc370003518000c1
:101c3800f35488004f0778004f06be004f05be00da
:101c48004f04be00af00b1000000060075fc37006d
:101c5800d00020000800200009602400fec0b30066
:101c68000047570002002000037024000c02be0049
:101c780005007800840078006afb07000801be00b0
:101c8800a1fa0700f3fa0700000678000200200016
:101c9800037024000a02be00050078008400780062
:101ca80060fb07000801be0097fa0700e9fa070081
:101cb8000e4178008c007800611a07001eff37007b
:101cc800c00020000800200009582400fec0b3000e
:101cd8000047570002002000037024000c02be00d9
:101ce80005007800840078004efb07000801be005c
:101cf80085fa0700d7fa07000006780002002000de
:101d0800037024000a02be000500780084007800f1
:101d180044fb07000801be007bfa0700cdfa070064
:101d28000e4178008c007800451a070002ff370042
:101d3800b00020000800200009502400fec0b300b5
:101d48000047570002002000037024000c02be0068
:101d5800050078008400780032fb07000801be0007
:101d680069fa0700bbfa07000006780002002000a5
:101d7800037024000a02be00050078008400780081
:101d880028fb07000801be005ffa0700b1fa070048
:101d98000e4178008c007800291a0700e6fe37000b
:101da800a00020000800200009482400fec0b3005d
:101db8000047570002002000037024000c02be00f8
:101dc800050078008400780016fb07000801be00b3
:101dd8004dfa07009ffa070000067800020020006d
:101de800037024000a02be00050078008400780011
:101df8000cfb07000801be0043fa070095fa07002c
:101e08000e4178008c0078000d1a0700cafe3700d2
:101e1800900020000800200009402400fec0b30004
:101e28000047570002002000037024000c02be0087
:101e38000500780084007800fafa07000801be005f
:101e480031fa070083fa0700000678000200200034
:101e5800037024000a02be000500780084007800a0
:101e6800f0fa07000801be0027fa070079fa070010
:101e78000e4178008c007800f1190700aefe37009b
:101e8800800020000800200009382400fec0b300ac
:101e98000047570002002000037024000c02be0017
:101ea8000500780084007800defa07000801be000b
:101eb80015fa070067fa07000006780002002000fc
:101ec800037024000a02be00050078008400780030
:101ed800d4fa07000801be000bfa07005dfa0700f4
:101ee8000e4178008c007800d519070092fe370063
:101ef800700020000800200009302400fec0b30054
:101f08000047570002002000037024000c02be00a6
:101f18000500780084007800c2fa07000801be00b6
:101f2800f9f907004bfa07000006780002002000c4
:101f3800037024000a02be000500780084007800bf
:101f4800b8fa07000801be00eff9070041fa0700d8
:101f58000e4178008c007800b919070076fe37002a
:101f6800600020000800200009282400fec0b300fb
:101f78000047570002002000037024000c02be0036
:101f88000500780084007800a6fa07000801be0062
:101f9800ddf907002ffa070000067800020020008c
:101fa800037024000a02be0005007800840078004f
:101fb8009cfa07000801be00d3f9070025fa0700bc
:101fc8000e4178008c0078009d1907005afe3700f2
:101fd800500020000800200009202400fec0b300a3
:101fe8000047570002002000037024000c02be00c6
:101ff80005007800840078008afa07000801be000e
:10200800c1f9070013fa0700000678000200200053
:10201800037024000a02be000500780084007800de
:1020280080fa07000801be00b7f9070009fa07009f
:102038000e4178008c007800811907003efe3700b9
:10204800400020000800200009182400fec0b3004a
:102058000047570002002000037024000c02be0055
:1020680005007800840078006efa07000801be00b9
:10207800a5f90700f7f9070000067800020020001c
:10208800037024000a02be0005007800840078006e
:1020980064fa07000801be009bf90700edf9070084
:1020a8000e4178008c0078006519070022fe370081
:1020b800300020000800200009102400fec0b300f2
:1020c8000047570002002000037024000c02be00e5
:1020d800050078008400780052fa07000801be0065
:1020e80089f90700dbf907000006780002002000e4
:1020f800037024000a02be000500780084007800fe
:1021080048fa07000801be007ff90700d1f9070067
:102118000e4178008c0078004919070006fe370048
:10212800200020000800200009082400fec0b30099
:102138000047570002002000037024000c02be0074
:10214800050078008400780036fa07000801be0010
:102158006df90700bff907000006780002002000ab
:10216800037024000a02be0005007800840078008d
:102178002cfa07000801be0063f90700b5f907004b
:102188000e4178008c0078002d190700eafd370011
:10219800100020000800200009002400fec0b30041
:1021a8000047570002002000037024000c02be0004
:1021b80005007800840078001afa07000801be00bc
:1021c80051f90700a3f90700000678000200200073
:1021d800037024000a02be0005007800840078001d
:1021e80010fa07000801be0047f9070099f907002f
:1021f8000e4178008c00780011190700cefd3700d9
:102208000000eb000800200009f82300fec0b3001e
:102218000047570002002000037024000c02be0093
:102228000500780084007800fef907000801be0068
:1022380035f9070087f9070000067800020020003a
:10224800037024000a02be000500780084007800ac
:10225800f4f907000801be002bf907007df9070013
:102268000e4178008c007800f5180700b2fd3700a1
:10227800e00020000800200009682400fec0b30028
:102288000047570002002000037024000c02be0023
:102298000500780084007800e2f907000801be0014
:1022a80019f907006bf90700000678000200200002
:1022b800037024000a02be0005007800840078003c
:1022c800d8f907000801be000ff9070061f90700f7
:1022d8000e4178008c007800d918070096fd370069
:1022e800e00020000800200009682400fec0b300b8
:1022f8000047570002002000037024000c02be00b3
:102308000500780084007800c6f907000801be00bf
:10231800fdf807004ff907000006780002002000ca
:10232800037024000a02be000500780084007800cb
:10233800bcf907000801be00f3f8070045f90700db
:102348000e4178008c007800ab180700cbfc3700f2
:10235800d00020000800200009602400fec0b3005f
:102368000047570002002000037024000c02be0042
:102378000500780084007800aaf907000801be006b
:10238800e1f8070033f90700000678000200200092
:10239800037024000a02be0005007800840078005b
:1023a800a0f907000801be00d7f8070029f90700bf
:1023b8000e4178008c0078008f180700affc3700ba
:1023c800c00020000800200009582400fec0b30007
:1023d8000047570002002000037024000c02be00d2
:1023e80005007800840078008ef907000801be0017
:1023f800c5f8070017f9070000067800020020005a
:10240800037024000a02be000500780084007800ea
:1024180084f907000801be00bbf807000df90700a2
:102428000e4178008c0078007318070093fc370081
:10243800b00020000800200009502400fec0b300ae
:102448000047570002002000037024000c02be0061
:10245800050078008400780072f907000801be00c2
:10246800a9f80700fbf80700000678000200200022
:10247800037024000a02be0005007800840078007a
:1024880068f907000801be009ff80700f1f8070087
:102498000e4178008c0078005718070077fc370049
:1024a800a00020000800200009482400fec0b30056
:1024b8000047570002002000037024000c02be00f1
:1024c800050078008400780056f907000801be006e
:1024d8008df80700dff807000006780002002000ea
:1024e800037024000a02be0005007800840078000a
:1024f8004cf907000801be0083f80700d5f807006b
:102508000e4178008c0078003b1807005bfc370010
:10251800900020000800200009402400fec0b300fd
:102528000047570002002000037024000c02be0080
:1025380005007800840078003af907000801be0019
:1025480071f80700c3f807000006780002002000b1
:10255800037024000a02be00050078008400780099
:1025680030f907000801be0067f80700b9f807004e
:102578000e4178008c0078001f1807003ffc3700d8
:10258800800020000800200009382400fec0b300a5
:102598000047570002002000037024000c02be0010
:1025a80005007800840078001ef907000801be00c5
:1025b80055f80700a7f80700000678000200200079
:1025c800037024000a02be00050078008400780029
:1025d80014f907000801be004bf807009df8070032
:1025e8000e4178008c0078000318070023fc3700a0
:1025f800700020000800200009302400fec0b3004d
:102608000047570002002000037024000c02be009f
:10261800050078008400780002f907000801be0070
:1026280039f807008bf80700000678000200200040
:10263800037024000a02be000500780084007800b8
:10264800f8f807000801be002ff8070081f8070016
:102658000e4178008c007800e717070007fc370068
:10266800600020000800200009282400fec0b300f4
:102678000047570002002000037024000c02be002f
:102688000500780084007800e6f807000801be001d
:102698001df807006ff80700000678000200200008
:1026a800037024000a02be00050078008400780048
:1026b800dcf807000801be0013f8070065f80700fa
:1026c8000e4178008c007800cb170700ebfb370031
:1026d800500020000800200009202400fec0b3009c
:1026e8000047570002002000037024000c02be00bf
:1026f8000500780084007800caf807000801be00c9
:1027080001f8070053f807000006780002002000cf
:10271800037024000a02be000500780084007800d7
:10272800c0f807000801be00f7f7070049f80700de
:102738000e4178008c007800af170700cffb3700f8
:10274800400020000800200009182400fec0b30043
:102758000047570002002000037024000c02be004e
:102768000500780084007800aef807000801be0074
:10277800e5f7070037f80700000678000200200098
:10278800037024000a02be00050078008400780067
:10279800a4f807000801be00dbf707002df80700c2
:1027a8000e4178008c00780093170700b3fb3700c0
:1027b800300020000800200009102400fec0b300eb
:1027c8000047570002002000037024000c02be00de
:1027d800050078008400780092f807000801be0020
:1027e800c9f707001bf80700000678000200200060
:1027f800037024000a02be000500780084007800f7
:1028080088f807000801be00bff7070011f80700a5
:102818000e4178008c0078007717070097fb370087
:10282800200020000800200009082400fec0b30092
:102838000047570002002000037024000c02be006d
:10284800050078008400780076f807000801be00cb
:10285800adf70700fff70700000678000200200028
:10286800037024000a02be00050078008400780086
:102878006cf807000801be00a3f70700f5f707008a
:102888000e4178008c0078005b1707007bfb37004f
:10289800100020000800200009002400fec0b3003a
:1028a8000047570002002000037024000c02be00fd
:1028b80005007800840078005af807000801be0077
:1028c80091f70700e3f707000006780002002000f0
:1028d800037024000a02be00050078008400780016
:1028e80050f807000801be0087f70700d9f707006e
:1028f8000e4178008c0078003f1707005ffb370017
:102908000000eb000800200009f82300fec0b30017
:102918000047570002002000037024000c02be008c
:1029280005007800840078003ef807000801be0022
:1029380075f70700c7f707000006780002002000b7
:10294800037024000a02be000500780084007800a5
:1029580034f807000801be006bf70700bdf7070051
:102968000e4178008c0078002317070043fb3700de
:020000040000fa
:102978003600f800809fbe00829fbe00849fbe0084
:10298800869fbe00889fbe008a9fbe008c9fbe00a7
:102998008e1f7800f0874700400f20002002880033
:1029a80034140700eda72000f25380001054800073
:1029b800615525000192b900cf91de00838e520047
:1029c8000d87e8000201ea00000151000192b900f8
:1029d8004f91de00028f52000181b9004f80de0066
:1029e800e480460080885100a8a92000184178009a
:1029f800614061001c0132002ca120001c04e00091
:102a08002501320080a32000b607070000057800e2
:102a180060120700a0f79f009841780062c061002b
:102a280018013a00c9032000110009000905d8005f
:102a38008044e800bbaa20009bcf14001700320096
:102a48001842780070406200a1aa20002b013a00c9
:102a5800184378006140630004003200a0a92000f8
:102a6800104078006240600048023a001b4078003d
:102a780080487800894d7800e3cf54005d02320029
:102a8800e3cf540007013400e5cf54008c02320034
:102a980009033500e6cf5400be023200925580008b
:102aa8008206780083558000830278008904fb0041
:102ab80010002800808464001d013300184378004a
:102ac8006240630021013200a0a920001040780074
:102ad800614260000000eb00220132006055800076
:102ae80000005500340b2000840f50001d023c00ec
:102af800c4f42f00840f500001003d008016b00080
:102b0800fe0f50001a023c00e4012000fe0f4000b6
:102b1800030035000000e00012013d000002ea0059
:102b2800040242006063280060057a00805f280084
:102b3800e0057a008b05ea000904e0001001320084
:102b48009d067800958056000a8bb9007055800064
:102b5800100078000b82b900c12edd004f22de0084
:102b680004827600d1ff2f0001a2b900c13edd002a
:102b7800cf30de00818076008480400011558800c7
:102b88000a82b90012017800130151000b91b900b3
:102b9800c128dd004f20de00008070008000ea00c0
:102ba800411add004f10de00000072000080500066
:102bb800205588001c04e0000e013200806e2400bd
:102bc80004a52000b3c0b30090cf11001d0132004e
:102bd800816e240066c0b300914f130019013200c2
:102be8001c04e00017013a001255800001518000d2
:102bf800810f5100c7013c0013558000025180002d
:102c08000201ea0041a42000828f510001003d002a
:102c180080c8eb0042a420001104e000c301320088
:102c280011c0b30092cf10005003320080c0eb00f7
:102c380092cf1000ef023200a0518000b151800005
:102c48006251800073518000020040008380480078
:102c58001401fb000201e900030033008180d10068
:102c68000080d300fbff37008006780021558000e4
:102c78008100ea00605280001252800002815000f8
:102c88000093b90096bf9f00a7bf9f0072528000b3
:102c980010528000008040000283b900c6bf9f0028
:102ca800d7bf9f008251800093518000e2bf9f00f0
:102cb800f3bf9f001fb99700afb997000203430005
:102cc80083834b006fb99700ffb997000603410053
:102cd8008783490096bf9f00a7bf9f008651880041
:102ce80097518800115288008251800093518000ca
:102cf80090528000a1528000800f5100818f5900ae
:102d08001e01340096528000a75280008651880028
:102d18009751880082518000935180001400fb0075
:102d28000000e900030033008381d1000281d30051
:102d3800fbff370002067800210320001203200061
:102d4800c201e20009003d00100e800000f0a10061
:102d5800820f500005003e008100e900f8ff3a00ac
:102d6800c0c420001074a0009d16070050378200d0
:102d78000000e00006003400503782000000e9003f
:102d880050378a00503782000000e00044013200ca
:102d98000ae9b9000be0b900c10bdd004f00de0005
:102da80000807300d1ff2f000180b900411add00b7
:102db8004f11de0002017200800041000beab900e9
:102dc8000ae5b900415bdd004f50de0000007300ea
:102dd800c12bdd00cf26de008d8673000d0040007c
:102de8000904e000010032000000ea00f25580000a
:102df80000895000d2558000000940008100ea0097
:102e0800e255800000895000a2558000b15580002d
:102e1800c0558000c10d0700184478006440640064
:102e280005003a00405580000000e8004055880041
:102e3800f30f5000eb003c008480a9000f01b100a3
:102e48004f0778004f06be004f05be004f04be0076
:102e58004f03be004f02be004f01be004f00be0030
:102e68003600f900004006000005eb002ca1200008
:102e780048110700a0f79f009841780062c06100e0
:102e8800e8fe32008a1107000080fb00015f28007d
:102e9800e1447800e7fe3700c41507000005780014
:102ea800dbfe3700e1cf540073013200e2cf54005b
:102eb800fafe3a009d55880080ab2000f055880046
:102ec80020a820008055880040ab2000e0558800ed
:102ed8007e55880060ab2000d055880025a82000ca
:102ee8000d017800850178008904fb001000280096
:102ef80080846400f1fe3b000d003700b1bf9f00e5
:102f080075170700bfb897001c04e000d0fe3a0010
:102f1800b2378200800f510087023200b0378a0032
:102f28001843780061406300ccfe3a00cffe3700ba
:102f38008904e900e0ff2f00890470008904e80093
:102f48001843780062406300dffe3a00c4032000a3
:102f5800110009000405d8008000fd007e00500023
:102f6800eefe33000000400064632800640578002a
:102f7800845f2800e40578000904e000f0fe3a00c8
:102f88009d067800958056000a8bb9007055800020
:102f9800100078000b82b900c12edd00cf20de00c2
:102fa80081807600630ab900c13edd00cf30de00c3
:102fb8008180760084804000115588000a82b9001b
:102fc80012017800130151000b91b900c128dd00ee
:102fd8004f20de0000807000411add00cf10de00b7
:102fe8008100720001005000205588001c04e00098
:102ff800f2fe3a00806e240010437800ea40530045
:10300800e1cf50007601360063c0b30090cf1100c5
:103018009c01320001c5b30090cf10003b01320083
:103028006011b800a2518800b35188008000eb00fd
:10303800c151880004a52000b3c0b30090cf11008f
:10304800e3fe3a00c1518000105580000080500016
:10305800625280000152800081005000028eb90047
:103068007252800001528000810040000289b9003c
:1030780046518000575180000c0141008d81490064
:103088000201430083814b0042518800535188005c
:1030980000528800425180005351800090528000b5
:1030a800a1528000800f5100818f590080003400a8
:1030b80090528000a15280004051880051518800f0
:1030c80040518000515180001401fb000201e900c9
:1030d800030033008180d1000080d300fbff37005c
:1030e80080067800215580008100ea006052800047
:1030f80012528000028150000093b90096bf9f00d1
:10310800a7bf9f00725280001052800000804000cc
:103118000283b900c6bf9f00d7bf9f0082518000bd
:1031280093518000e2bf9f00f3bf9f001fb9970033
:10313800afb997000203430083834b006fb9970030
:10314800ffb99700060341008783490096bf9f0097
:10315800a7bf9f00865188009751880011528800a8
:10316800825180009351800090528000a1528000cb
:10317800800f5100818f5900e2fe3c00925280007e
:10318800a35280008051800091518000600111009d
:10319800e0811900800f5100818f5900ddfe340055
:1031a80090528000a152800060001000e08018005a
:1031b80080518800915188000001be001400fb0076
:1031c8000000e900030033008381d1000281d300ad
:1031d800fbff3700020678002103200012032000bd
:1031e800d7fe37000000eb004055880012558000dc
:1031f800105580000281b900e0508000f150800035
:10320800c4508000d55080000001510081815900d0
:10321800c61edd004a10de0000807600ca98de0077
:103228000000420081804a00c0508800d1508800c8
:10323800c0508000d1508000e00f5000e08f58004f
:10324800c1003500c2508000d3508000a0508000db
:10325800b1508000800f5100818f5900f6fe340074
:10326800c0c420001014a0005d1507008480a900c8
:103278000f01b1004f0778004f06be004f05be0092
:103288004f04be004f03be004f02be004f01be00f8
:103298004f00be003600f90000400600f2fe37007d
:1032a800b0c420001014a0004d150700b8fe370068
:1032b80092528000a35280004051800051518000fa
:1032c80060011100e0811900800f5100818f5900c1
:1032d8007bff340090528000a152800060001000f3
:1032e800e08018004051880051518800405180000a
:1032f800515180001401fb000201e9000300330072
:103308008180d1000080d300fbff37008006780061
:1033180074ff370041a4200012c0b300824878002f
:1033280042a420001104e0003dfe3a0001c5b300ac
:1033380090cf10006c013200a0518000b151800084
:10334800026f24001201fb000201e90003003300b0
:103358008180d1000080d300fbff37008006780011
:1033680042fe37008016b100fe0f5000e6fd340023
:10337800e001200000004000646328006405780034
:10338800845f2800e4057800fbfe3700b1bf9f008a
:1033980051160700a2378200bfb89700800f51006e
:1033a8005b013200a0378a00e1cf540024003200cc
:1033b800e6cf54006e0032001b40780080cf5400e6
:1033c800420134007e0145006255880073162000d2
:1033d800830f5100a6fd340062eb2f000a01410063
:1033e8006255880080487800894d7800e3cf540002
:1033f800a3fd3a009e55880060ab2000f055880078
:1034080021a820008155880040ab2000e0558800a5
:103418007d55880080ab2000d05588008102780057
:103428008e0678000d017800850178008904fb007c
:103438001000280080846400a0fd3b00bcfe37001b
:10344800b2aa20001b407800e64f5000dbff3a008c
:10345800fe0145006355880074162000848f5100d2
:10346800a401340063eb2f008a8141006355880072
:1034780080487800094978009d55880080ab200075
:10348800f05588008e55880060ab2000e055880014
:1034980027a820007755880040ab2000d055880029
:1034a8008e0278000d017800850178008904fb0000
:1034b800100028008084640080fd3b009cfe3700db
:1034c80023a820009355880040ab2000f0558800c1
:1034d8008d55880080ab2000e05588007e55880017
:1034e80060ab2000d05588008d02780083067800f4
:1034f8000d017800850178008904fb001000280080
:10350800808464006dfd3b0089fe3700e254800032
:1035180004a52000cf91de009400fb00e580500058
:103528008100e90003003300020141008381490062
:10353800fbff3700a2518800b35188008000eb00e0
:10354800c15188009ffd37006000b800c050880056
:10355800d15088000001be00a0508000b15080000a
:10356800800f5100818f590033fe34003cff370033
:10357800b2aa20001b407800e14f50008fff3a00ac
:10358800fe015500635588006a01330080487800c1
:103598000949780024a820009455880040ab2000f1
:1035a800f05588008e55880060ab2000e0558800f3
:1035b8007d55880080ab2000d05588008e027800a9
:1035c800840678000d017800850178008904fb00e5
:1035d800100028008084640038fd3b0054fe37004a
:1035e80004a52000aff397000704e00075fd320042
:1035f800025580006150800081005100bdc0b300b9
:1036080090cf16004900320066378200d251800000
:10361800028150000693b90073378200d2518000ae
:10362800028140000391b900a4518000b551800087
:1036380006014100878149000201420083814a0056
:10364800a2518800b35188000202be00b252800025
:10365800c3528000820f5200838f5a00f900340051
:10366800b2528000c3528000a2518800b351880032
:103678000001eb00c2518800d151880004a5200048
:1036880050fd37006033b800a6518800b751880054
:10369800f7548000c7518800c25180000151800052
:1036a800810f5100170034000d518000cd51880062
:1036b80004a5200043fd37009e55880060ab20001c
:1036c800f05588008d55880080ab2000e0558800b3
:1036d80022a820007255880040ab2000d0558800f1
:1036e8008d0278008e0678000d017800850178003b
:1036f8008904fb001000280080846400effc3b0074
:103708000bfe370002518000c15180000201ea001f
:1037180004a52000810f51002afd340001518000ca
:103728008100ea00c151880026fd3700d65180008b
:10373800d2518000e4518000f551800002814000a0
:10374800cf93de000401410085814b0006835000c1
:10375800cfb3de00443add00cc32de0085027200d1
:103768004432dd000201420083814a00e2518800b0
:10377800f351880004518000e2518000f351800029
:10378800cfa2de00820f5200838f5a009f003d00b7
:1037980002518000cf91de00e2518800f351880089
:1037a800826f24001204e000b8003200e451800067
:1037b800f5518000e00f5200e08f5a00c00034003d
:1037c800c6518000e4518000f5518000cfb3de007f
:1037d800840f5300858f5b00b2003d00c25180000a
:1037e8000201e800c2518800d151880004a52000d8
:1037f800f4fc370001518000105580008100ea0078
:103808000080500063528000015280008100500007
:10381800038bb90096bf9f00a7bf9f007c52800012
:1038280001528000810040000c8eb9006651800072
:1038380077518000c6bf9f00d7bf9f001fbb97006e
:10384800afbb97000606460087864e004fbb970021
:10385800dfbb97000c0643008d864b006c51880037
:103868007d518800005288006051800071518000ad
:10387800e00f5000e08f5800effc3c006000b800fb
:1038880060518800715188000049eb000000eb008e
:1038980000528800a0518000b15180006251800020
:1038a8007351800002004000838048001401fb002f
:1038b8000201e900030033008180d1000080d300b9
:1038c800fbff370080067800e8fc37007e015500d2
:1038d8006255880066fc3b00a21420000a014100e2
:1038e8006255880062fc3700a0518000b151800009
:1038f8001401fb000201e900030033008180d100bc
:103908000080d300fbff370080067800d7fc370023
:1039180091cf1400a4fe3200e0c320001034a000b0
:10392800c0c420001044a000b1bf9f00ac13070022
:10393800bfb897009cfe370091cf140044fc3200ba
:10394800e0c320001034a000c0c420001044a00030
:10395800b1bf9f00a2130700bfb8970018437800b3
:10396800614063003dfc3a0040fc37000151800093
:103978001055800000805000635280000152800082
:1039880081005000038bb90096bf9f00a7bf9f001e
:103998007c52800001528000810040000c8eb900ea
:1039a8006651800077518000c6bf9f00d7bf9f0037
:1039b8001fbb9700afbb97000606460087864e00e0
:1039c8004fbb9700dfbb97000c0643008d864b006a
:1039d8006c5188007d518800005288006051800039
:1039e80071518000e00f5000e08f580092fc3500c4
:1039f8006000b80060518800715188000049eb00f0
:103a08000000eb0000528800a2ff3700045180003c
:103a1800e2518000f35180000402ea00cfa2de00e8
:103a2800820f5200838f5a005dff340002518000dc
:103a38000201ea00cf91de00e2518800f3518800cc
:103a480057ff3700b4528000c5528000a251800051
:103a5800b351800060021200e0821a00820f520007
:103a6800838f5a0002ff3400b2528000c352800094
:103a780060011100e0811900a2518800b35188004b
:103a88000001eb00c2518800fbfe3700e2518000c4
:103a9800f3518000c2518800d151880004a520004c
:103aa80048fc3700e4518000f5518000c45188007b
:103ab8000049eb00d151880004a5200041fc3700e3
:103ac800c6518000e4518000f5518000cfb3de007c
:103ad800840f5300858f5b00f2ff3400c2518000d1
:103ae8000201e900c2518800d151880004a52000d4
:103af80034fc370080487800094978009d558800d3
:103b080080ab2000f05588008e55880060ab2000ff
:103b1800e055880027a820007755880040ab200092
:103b2800d05588008e0278000d0178008501780054
:103b38005efe3700a31420008a8141006355880087
:103b4800804878000949780024a820009455880006
:103b580040ab2000f05588008e55880060ab2000ef
:103b6800e05588007d55880080ab2000d05588003e
:103b78008e027800840678000d01780085017800af
:043b880092fe370072
:020000040000fa
:103b8c003600f800809fbe00829fbe00849fbe005e
:103b9c00869fbe00889fbe008a9fbe008c9fbe0081
:103bac000800fa008700a9004c208000fc03b2003a
:103bbc001d0020008c6edd00012180000d80600056
:103bcc00bd003200087824004466dd000c06440079
:103bdc00cc449000ef846400e88f5400c0003400a3
:103bec00d0c420001044a000820020008204780081
:103bfc009c40780061c06000bd003a000180fb0071
:103c0c004200de001c4590007f0565004655dd0036
:103c1c000a0570008005eb00e6004600688057003e
:103c2c00def307008d86ea000d2188005c409000d1
:103c3c000018a300d3003200d0c420001024a00030
:103c4c004c208000fc03b2001d0020008c6edd00b7
:103c5c00022180000d006100970032004466dd00f7
:103c6c000c064400cc449000ef846400e88f5400b0
:103c7c00f5003c00090178009c40780061c06000b0
:103c8c00c6003a000180fb004200de001c4590009b
:103c9c007f0565004655dd000a0570008005eb00c8
:103cac00e600460068805700bcf307008d86ea00ea
:103cbc000d2188005c4090000018a300dc0032004d
:103ccc00d0c420001024a0004c208000fc03b200c3
:103cdc001d0020008c6edd00022180000d006100b3
:103cec00750032004466dd000c064400cc449000a4
:103cfc00ef846400e88f540003013c000901780054
:103d0c009c40780061c06000d4003a000180fb0048
:103d1c004200de001c4590007f0565004655dd0025
:103d2c000a0570008005eb00e6004600688057002d
:103d3c009af307008d86ea000d2188005c40900004
:103d4c000018a300ea003200d0c420001024a00008
:103d5c004c208000fc03b2001d0020008c6edd00a6
:103d6c00022180000d006100530032004466dd002a
:103d7c000c064400cc449000ef846400e88f54009f
:103d8c0011013c00090178009c40780061c0600082
:103d9c00e2003a000180fb004200de001c4590006e
:103dac007f0565004655dd000a0570008005eb00b7
:103dbc00e60046006880570078f307008d86ea001d
:103dcc000d2188005c4090000018a300f800320020
:103ddc00d0c420001024a00040208000f003b200ca
:103dec001c0020000066dd00022180008c006100b8
:103dfc001e0132004400dd0000044400c844900061
:103e0c00ef846400e88f540013013c000901780032
:103e1c009840780061c06000f0003200584090007b
:103e2c000080fb004200de000080fb008000eb0005
:103e3c0001f0a000a84190008381fb003842900063
:103e4c006f0262004822dd00048271008002eb00e8
:103e5c00462ddd00ca25de008b0575004625dd00ec
:103e6c000a0570008b8570001880fb004200de0094
:103e7c0098419000ff816100c619dd00830170003c
:103e8c00c218dd000000eb0000057500818575008f
:103e9c00e60044006880570040f307000c86ea00f7
:103eac000c218800584090000018a300da00320062
:103ebc00d0c420001024a0000080fa004f06be00e1
:103ecc004f05be004f04be004f03be004f02be00a4
:103edc004f01be004f00be003600f9000040060046
:103eec00090178009c40780061c0600043ff3200fb
:103efc005c4090000080fb004200de000080fb0074
:103f0c008000eb0001f0a000ac4190008381fb002d
:103f1c003c4290006f0262004822dd000482710076
:103f2c008002eb00462ddd00ca25de008b057500f6
:103f3c004625dd000a0570008b8570001c80fb0097
:103f4c004200de009c419000ff816100c619dd003b
:103f5c0083017000c218dd000000eb000005750045
:103f6c0081857500e6004600688057000bf307005a
:103f7c008d86ea000d2188005c4090000018a3009b
:103f8c002dff3a00e8815700094178000a00be0075
:103f9c00245f80000400010029ff37005c40900082
:103fac000080fb004200de000080fb008000eb0084
:103fbc0001f0a000ac4190008381fb003c429000da
:103fcc006f0262004822dd00048271008002eb0067
:103fdc00462ddd00ca25de008b0575004625dd006b
:103fec000a0570008b8570001c80fb004200de000f
:103ffc009c419000ff816100c619dd0083017000b7
:10400c00c218dd000000eb0000057500818575000d
:10401c00e600460068805700e0f207008d86ea0053
:10402c000d2188005c4090000018a30024ff3a008a
:10403c00e8815700094178000a00be00245f800027
:10404c000400010020ff3700d0c420001044a00061
:10405c00820020008204780007ff37005c4090004b
:10406c000080fb004200de000080fb008000eb00c3
:10407c0001f0a000ac4190008381fb003c42900019
:10408c006f0262004822dd00048271008002eb00a6
:10409c00462ddd00ca25de008b0575004625dd00aa
:1040ac000a0570008b8570001c80fb004200de004e
:1040bc009c419000ff816100c619dd0083017000f6
:1040cc00c218dd000000eb0000057500818575004d
:1040dc00e600460068805700b0f207008d86ea00c3
:1040ec000d2188005c4090000018a30016ff3a00d8
:1040fc00e8815700094178000a00be00245f800067
:10410c000400010012ff3700d0c420001044a000ae
:10411c008200200082047800f9fe37005c40900099
:10412c000080fb004200de000080fb008000eb0002
:10413c0001f0a000ac4190008381fb003c42900058
:10414c006f0262004822dd00048271008002eb00e5
:10415c00462ddd00ca25de008b0575004625dd00e9
:10416c000a0570008b8570001c80fb004200de008d
:10417c009c419000ff816100c619dd008301700035
:10418c00c218dd000000eb0000057500818575008c
:10419c00e60046006880570080f207008d86ea0032
:1041ac000d2188005c4090000018a30008ff3a0025
:1041bc00e8815700094178000a00be00245f8000a6
:1041cc000400010004ff3700d0c420001044a000fc
:1041dc008200200082047800ebfe37001880fb0080
:1041ec004200de00184590007f0565004655dd0055
:1041fc000a0570008005eb00e6004400688057005b
:10420c0066f207000c86ea000c21880058409000ea
:10421c000018a30026ff3a00e881570009417800f6
:10422c000a00be00245f8000040001000080fa0038
:10423c004f06be004f05be004f04be004f03be002c
:10424c004f02be004f01be004f00be003600f90009
:10425c000040060022ff3700d0c420001044a0000c
:10426c008200200082047800e9fe3700b0c42000f0
:10427c001004a0000080fa004f06be004f05be00df
:10428c004f04be004f03be004f02be004f01be00e4
:10429c004f00be003600f9000040060010ff37004a
:020000040000fa
:1042ac00881f78000003be003064ab0002003200af
:1042bc003164ab005d003a00882180006804640022
:1042cc006400320008802000842180000404640013
:1042dc008f00320098218000680464002d003a00a1
:1042ec0003027800824078000601be0000722400b0
:1042fc00e80a0700585f8800305f8000e20f50002a
:10430c00e1003c00415f8000e28f500046013c0020
:10431c00625f8000e20f510006003c000000e800e4
:10432c00305f88008100e800415f88000201e800ee
:10433c00625f880063006000c3ff2f00852180004e
:10434c00058261000402700084218800e380600013
:10435c00c808dd00f0cf2f00862180000602600027
:10436c000482700084218800214320009188610020
:10437c00630161004811dd003204b60000007100d9
:10438c00902188003264a8000000eb004f047800f4
:10439c000000060003027800824078000601be008f
:1043ac0000732400bb0a0700c0be20000008eb000d
:1043bc00305f8000e20f500081003c00425f8000c3
:1043cc00e20f5100f9003400535f8000630060007d
:1043dc00c1ff2f008521800005826000040270005f
:1043ec0084218800630161004811dd00f0cf2f00ab
:1043fc00862180000602600004027100842188007e
:10440c00e3816100922180008280600081807100d4
:10441c00912188003224b6003364a8000000eb0020
:10442c004f04780000000600daff37003264ab005e
:10443c00a1ff32000180200090218000808060006c
:10444c000080eb00d1ff3a008821800068046400f2
:10445c009cff3a0003027800824078000601be00ff
:10446c00007024008b0a0700385f8800405f8000d2
:10447c00e20f50006a003c00515f8000e28f500058
:10448c00b1003c00625f8000e20f510006003c006e
:10449c000000e800405f88008100e800515f880060
:1044ac000201e800625f8800c4ff2f000343200074
:1044bc0093096200630060004800dd00f3cf2f0019
:1044cc00862180008682610085027000852188002b
:1044dc00e380600090218000000262000482700082
:1044ec0094218800630161004811dd009121800056
:1044fc008181610083017100932188003064a800e0
:10450c000000eb004f04780000000600a1ff37000c
:10451c0003027800824078000601be00007124007e
:10452c005c0a0700485f8800305f8000e20f500093
:10453c006e003c00515f8000e28f5000d2003c00c6
:10454c00625f8000e20f510006003c000000e800b2
:10455c00305f88008100e800515f88000201e800ac
:10456c00625f880063006000c3ff2f00852180001c
:10457c00058261000402700084218800f0cf2f00b6
:10458c003024b600e38060009621800086816100b3
:10459c008381700093218800630161004811dd0064
:1045ac003204b60000007100902188003164a8002c
:1045bc000000eb004f0478000000060075ff370088
:1045cc00425f8000535f800063006000c1ff2f00da
:1045dc00852180000582600004027000842188001f
:1045ec00630161004811dd00f0cf2f0086218000af
:1045fc00060260000402710084218800e3816100de
:10460c00922180008280600081807100912188005d
:10461c003224b6003364a8000000eb0080ff3700a2
:10462c00515f8000625f8000c4ff2f0003432000b5
:10463c0093096200630060004800dd00f3cf2f0097
:10464c0086218000868261008502700085218800a9
:10465c00e380600090218000000262000482700000
:10466c0094218800630161004811dd0091218000d4
:10467c008181610083017100932188003064a8005e
:10468c000000eb009fff3700415f8000625f8000fd
:10469c0063006000c3ff2f0085218000058261004c
:1046ac000402700084218800e3806000c808dd00eb
:1046bc00f0cf2f008621800006026000048270007b
:1046cc0084218800214320009188610063016100ee
:1046dc004811dd003204b600000071009021880002
:1046ec003264a8000000eb0028ff3700515f800007
:1046fc00625f800063006000c3ff2f008521800093
:10470c00058261000402700084218800f0cf2f0024
:10471c003024b600e3806000962180008681610021
:10472c008381700093218800630161004811dd00d2
:10473c003204b60000007100902188003164a8009a
:10474c000000eb009bff3700625f8000c4ff2f006e
:10475c000343200093096200630060004800dd0001
:10476c00f3cf2f00862180008682610085027000c5
:10477c0085218800e38060009021800000026200a7
:10478c000482700094218800630161004811dd00ef
:10479c009121800081816100830171009321880047
:1047ac003064a8000000eb0056ff3700535f800018
:1047bc00e28f510005ff3c000000e800305f8800ec
:1047cc000201e800425f88008301e800535f880023
:1047dc0063006000c1ff2f0085218000058260000e
:1047ec000402700084218800630161004811dd001f
:1047fc00f0cf2f00862180000602600004027100b9
:10480c0084218800e3816100922180008280600015
:10481c0081807100912188003224b6003364a80095
:10482c000000eb00fefe3700625f8000630060005a
:10483c00c3ff2f00852180000582610004027000f7
:10484c0084218800e3806000c808dd00f0cf2f00d1
:10485c00862180000602600004827000842188009a
:10486c002143200091886100630161004811dd0043
:10487c003204b60000007100902188003264a80058
:10488c000000eb00c1fe3700625f80006300600037
:10489c00c3ff2f0085218000058261000402700097
:1048ac0084218800f0cf2f003024b600e380600014
:1048bc00962180008681610083817000932188009d
:1048cc00630161004811dd003204b6000000710084
:1048dc00902188003164a8000000eb0035ff370000
:020000040000fa
:1048ec00889fbe008a9fbe0080047800a1a920008a
:1048fc0091407800e2c060000000eb003f003a00fd
:10490c0028a120001804e0003c003200210f800098
:10491c0001f0a7008100ea0000022000808f500007
:10492c000300340011c0b300c0ac20000148780073
:10493c00106180006300b9004f01de0000004100ef
:10494c000085d10020c0b300984f10000f003c0030
:10495c00b0c320001004e0000c003200ebc32000b8
:10496c00c0ac20001004e000c00032000040eb009e
:10497c0071c220001104e0000100320030c0b3000d
:10498c00004c78001b44a100d410070011c0b300e8
:10499c0098cf10008a00320020c0b300984f10004e
:1049ac007500320031c0b30098cf100066003200a1
:1049bc0041c0b30098cf10004900320050c0b30082
:1049cc00984f100010003200805680007156800005
:1049dc00810c780071162000810f50000300340008
:1049ec008016b100810f5000fdff3c000000e0007c
:1049fc0002003d008016b000feff33004f05be00e4
:104a0c004f04be0000000600ea378200d237820055
:104a1c000200450080568800315680008100e80075
:104a2c003156880003a62e00838f5000e7ff360016
:104a3c000000eb0070568800b361800011618000ab
:104a4c00200f80000182b90011000900432ad80010
:104a5c0080017800435688005456800084805100b1
:104a6c00300b2000808f5000030034008116b10001
:104a7c00808f5000fdff3c00c0f42f00808f500051
:104a8c0003003d008116b000808f5000fdff350003
:104a9c008102780005f0a7008502ea00a00520003d
:104aac00808f5200b40034004f08de00010040003b
:104abc000080d1000400400071162000810f5000ce
:104acc00030034008016b100810f5000fdff3c0044
:104adc000000e0008c003d008016b000fcff3700a9
:104aec00d0378200f1378200008040008056880069
:104afc00305680000000e800305688000153270033
:104b0c00810f5000adff3600b26180001161800052
:104b1c00200f80000182b90011000900422ad80040
:104b2c00505688000000eb003056880051c0b3008e
:104b3c0020a120000148780050c0b300984f10000d
:104b4c00a1ff3a00b0ff370080568000d0378a00b2
:104b5c007056800021518000810f500025003d00cf
:104b6c000000e8007056880041c0b30098cf1000d8
:104b7c0092ff3a00daff3700805680000a05ea00ff
:104b8c00800f550052003d00115680008100e80056
:104b9c0011568800820c2000828f500081ff340057
:104bac008000eb00115688000000e9008056880058
:104bbc0031c0b30098cf10007dff3a00e2ff370000
:104bcc0020518000715680004f01de000000410032
:104bdc000080d100810f5000130034008100e800e8
:104bec007156880020c0b300984f10006dff3a003a
:104bfc00e1ff3700005680000000e80000568800f6
:104c0c0001712200810f500069ff340041c0b300d4
:104c1c0020a120000148780041c0b30098cf1000bb
:104c2c0066ff3a00aeff370080568000800f5500bb
:104c3c001c003400215680008100e80021568800b9
:104c4c00820c2000828f500053ff34008000eb0058
:104c5c00215688000000e8008056880020c0b30070
:104c6c00984f10004fff3a00c3ff37000000eb00d5
:104c7c0070568800800ceb001b34a000c0c42000d0
:104c8c001044a000d50e070020a120000048eb0026
:104c9c000040eb0071c220001104e00038ff32002c
:104cac0036ff370080f82f00f0378a000000eb0049
:104cbc00e0378a0021c0b30020a120000148780011
:104ccc0020c0b300984f100036ff3a00aaff3700ff
:104cdc000000eb0070568800800ceb00e0c3200055
:104cec001024a000c0c420001044a000bb0e07007c
:104cfc0020a120000048eb0031c0b30098cf100079
:104d0c002bff3a0090ff3700345388004353880040
:104d1c00a205b000f137820001054500cf50de003e
:104d2c008a8040008180d1008100410000805000c9
:104d3c00006188000061800071162000810f500016
:104d4c0006003400006180008016b100006188000c
:104d5c0000618000810f5000faff3c000061800070
:104d6c000000e00014003d00006180008016b000df
:104d7c0000618800f9ff37000a00e00016003200dd
:104d8c000000eb00e0378a0081f82f00f1378a0031
:104d9c003056880040c0b300004c7800805680002c
:104dac0071568000810c780071162000810f500024
:104dbc000bff3c000dff3700004ceb0080568000d1
:104dcc0071568000810c780071162000810f500004
:104ddc0003ff3c0005ff37007a5688008a0c7800e8
:104dec00e0c320001044a1001054a000c0c4200057
:104dfc001044a000790e07000a4c78008056800001
:044e0c00f2fe37007b
:020000040000fa
:104e1000e8874700889fbe008a9fbe008c9fbe0027
:104e20008e1f7800fe0c0700dd0a07003b0e07000e
:104e3000a000200030508800c10807008660a9004b
:104e40009660a800550f07005e0f07009460a80049
:104e500040a72000030009000058eb00e9c3200030
:104e6000804ceb000000eb002051880000518800ce
:104e70006011b800e2508800f3508800e2508000d2
:104e8000f350800060011100e08119006a1ab90036
:104e90006a11b80083014200a2508800b350880014
:104ea0001051880048a02000e90e0700840d07007b
:104eb000000578000a00e00006003200000ceb005c
:104ec000e30e07007e0d0700000578000a00e000f1
:104ed000faff3a00008ceb002a0f0700620d070072
:104ee000e000200001002000e0b79f00f1b79f0024
:104ef0000002eb00430020007481570000002500f1
:104f000011002000e7ed07009760a8004fe8970028
:104f1000240e0700aba920001b4078008a4d7800c2
:104f20000b00e800904078000a487800e1bf2000bc
:104f30000b0078001104e000feff32009b41780076
:104f400061c1610003003a009041780062c16100d4
:104f5000f8ff3200025180000200e000f5ff32004d
:104f600092528000a3528000e00f5100e08f590060
:104f7000f0ff32009b40780061c060006f003a0093
:104f8000a0a9200010407800704060006b003a003b
:104f90008b40a9009b40a9006ac220002ca12000e0
:104fa000004eeb001944a100a0a920001b4178008d
:104fb000e240610070003a001040780064406000f8
:104fc000cc003a009b45780061c0650003003200c8
:104fd00010c0b300004e78001944a000016f2400f7
:104fe0001140780072378200cf11de00028141004b
:104ff0000281d10072378a00804878000001fb00ee
:1050000000322000010020000201e900030033000b
:105010000000400081804800fbff3700b05288004c
:10502000c1528800e20e07008a6e2400004deb009a
:105030006009200030508800008ceb00c904070094
:105040008006eb00abc420000ccab3000a0778004e
:105050001b0d07000000e0002d00320060aa2000b8
:105060001004e0006a003a000c4d780061a02000b6
:105070008088eb00e0012000205088001b04a10084
:105080001a04e000050032009e4f160003003200b3
:10509000090f0700a40e07007d0d070030518000a6
:1050a000808f5600eaff32003d518000936e24004d
:1050b000134078009a4f1600820032001e04e00070
:1050c00060003a00e64f500007003200ea4f5000ff
:1050d00005003200eb4f50000300320001c5b30061
:1050e000814f5000daff3a00004d780060a02000a8
:1050f0000008eb00008ceb00803e200050378a0057
:10510000710e0700ee0c07000000e000d3ff3a002c
:10511000c262ab00d9ff32001b04a00062aa2000cb
:105120001204e00041003a00004deb00600920004d
:1051300030508800008ceb00c5ff37001b81fb005e
:105140004311de00614161006ac220009a4078008c
:10515000f06080008180fb005a0907002ca120002c
:10516000004eeb001944a100a0a920001b417800cb
:10517000e240610090ff32001024a1001a81fb0080
:105180006611b900cf91de00000020001100200060
:105190005aee0700ca0e0700016f24001140780084
:1051a00072378200cf11de00028141000281d100fe
:1051b00072378a00804878000001fb00003220002e
:1051c000010020000201e90003003300000040005c
:1051d00081804800fbff3700b0528800c152880030
:1051e000730e07008a6e2400004deb00600920005a
:1051f00030508800008ceb005a0407008006eb005a
:10520000abc420000ccab3000a07780090ff370037
:10521000350e07000c4d780061a020008088eb005f
:10522000e00120002050880094ff37002e0e070078
:10523000004deb006009200030508800008ceb002e
:1052400083ff370061c0b3009ecf10000900320019
:10525000a2c0b3009e4f110006003200b3c0b300dd
:105260009ecf11000300320001c5b3009ecf100095
:1052700077ff3a000004e000ecff3200e94f5000f5
:10528000eaff3200e64f500007003200ea4f5000bc
:1052900005003200eb4f50000300320001c5b3009f
:1052a000814f50006aff3a0080bf9f006e0c0700dc
:1052b000813e200051378a000fb89700004d7800da
:1052c00063ff3700e94f500061ff3a002d0e0700e1
:1052d000120d0700804ceb00004feb00600920002e
:1052e00030508800008ceb00803e200050378a0050
:0c52f00057ff3700950e070032ff370013
:020000040000fa
:1052fc00e84600001800000002000000b0b2ff00f9
:10530c00ff0c000010000a0000204e00ff7fff0081
:10531c007f010000ff7fc400ff3c0000000a00007a
:10532c00da00000000000000e04600000800000069
:10533c00000000004e0c0000020000000000000005
:10534c00b00b000032000000020000000000000062
:10535c00000000000002000002010200ff02020037
:10536c000200ff000202010002ff01000002020025
:10537c00020202000202000001ff02000102020010
:10538c00ff0002000202ff00020102000000000008
:10539c00da0a00008e00000000000000480c00003b
:1053ac000600000000000000500c0000020000008d
:1053bc000200000001000000400c0000080000008a
:1053cc0000000000100c00000e00000000000000a7
:1053dc00680b000048000000020000000100000003
:1053ec0000000000000000000000000000000000b1
:1053fc0000000000000000000000000000000000a1
:10540c000000000000000000000000000000000090
:10541c000000000000000000000000000000000080
:10542c000000000000000000000000000000000070
:10543c00000000000000000000000000fe0b000057
:10544c0012000000000000002c0c00000a000000fc
:10545c000000000000080000000200000200000034
:10546c0000002100104220006330840040a5500051
:10547c00c660e7007008810029914a00a16bb10059
:10548c008cc1ad00d1cee100eff131001210020061
:10549c007332520022b552009442f70072d6620069
:1054ac0039931800837bb3005aa3bd00d39cc3006f
:1054bc00fff3de00e36224004334200004011400f7
:1054cc00e664c70074a4440085546a00a54bb5007b
:1054dc002885090095eee500cff5ac00c58dd5000b
:1054ec0053367200261116003006d70076f6660089
:1054fc009556b400465bb7007aa719009738870019
:10550c00dff7fe00e79dd700bcc7c40048e5580094
:10551c008668a7007840080061180200282338002c
:10552c00ccc9ed00d98ee900aff948008969990022
:10553c000aa92b00b9f55a00d44ab7007a966a002a
:10554c00711a50000a333a00122afd00dbdccb0042
:10555c00bffb9e00eb799b00588b3b00bb1aab004a
:10556c00a66c87007ce44c00c55c22002c033c003c
:10557c00600c41001caeed008ffdec00cdcddd00cc
:10558c002aad0b00bd688d00499d97007eb66e005c
:10559c00d55ef4004e133e00322e51001e700e00ec
:1055ac009fffbe00efdddf00fccf1b00bf3aaf005a
:1055bc00599f78008f889100a981ca00b1eba10096
:1055cc000cd12d00c14ef1006fe1800010a1000044
:1055dc00c230e30020045000254046007067600094
:1055ec00b983980093fba300dab33d00c31cd3002e
:1055fc007fe35e00f3b102009012f30022d232007e
:10560c0035421400527762005672ea00b5cba50001
:10561c00a8958900856ef5004fe52c00d50dc500c9
:10562c00e234c30024a014008104660074476400b3
:10563c002454050044dba700fab7990087b89700fb
:10564c005fe77e00f71dc7003cd7d30026f236007b
:10565c009106b00016576600767615004634560053
:10566c004cd96d00c90ef9002fe9c80099e98900e1
:10567c008ab9ab00a9445800654806007827680031
:10568c00c018e10008823800a3287d00cb5cdb0049
:10569c003feb1e00fbf98b00d89bbb00ab9abb0009
:1056ac00754a54005a376a00167af1000ad01a006b
:1056bc00b32a92003a2efd000fed6c00dd4dcd00ab
:1056cc00aabd8b00ade89d00c98d26007c076c003f
:1056dc00645c45004ca23c00832ce0001cc10c0017
:1056ec001fef3e00ff5dcf007cdf9b00afbabf0019
:1056fc00d98ff8009f176e00367e55004e745e00f1
:10570c00932eb2003ed10e00f01e0000e20b000002
:10571c001c0000000000000000470000800000009a
:10572c000000000080470000800000000000000026
:10573c001e0c00000e0000000200000000005a00c9
:10574c00000000000000000000ff7f00ffff0000d1
:10575c00360c00000a0000000000000000000000f1
:020000040000fa
:10576c00ef07b000889fbe008a9fbe008c1f780098
:10577c008e1f780080047800010478000405be00b8
:10578c00060678008ef72f000f074700c0fc2f008d
:10579c0001002000009fbe000200be004f1bde0077
:1057ac0003000900001feb008e00b1000604e000ae
:1057bc000200320060001000e0801800c4fc2f00d2
:1057cc000409b8000400b800c012dd000400200079
:1057dc00040040008580480017002000800f520014
:1057ec00818f5a0001003e008003eb00e03f9f00d8
:1057fc00f13f9f004019de00030020004fbade008d
:10580c000281430083014a0082879f0093879f0097
:10581c000604e0000f00320060001000e080180069
:10582c00e03f9f00f13f9f000080700000f0a70058
:10583c000000ea000000e9004f00de000281ea00ef
:10584c008381ea0002014000e081490082879f00c9
:10585c0093879f001e00be00e0979f00f1979f006a
:10586c002e009000be009000809f9f00919f9f0093
:10587c000380ea004f00de008000eb006100500066
:10588c00e0805800a09f9f00b19f9f0083fb2f00da
:10589c008f814100e201200031002000c0fa2f006e
:1058ac000f00400025050700aa879f00bb879f00bb
:1058bc000b80ea004f00de008000eb00610050001e
:1058cc00e0805800c0879f00d1879f00c3f82f004d
:1058dc008f814100f20120002100200040f82f00b0
:1058ec000f00400015050700a98f9f00b88f9f007f
:1058fc000880ea004f00de008000eb0061005000e1
:10590c00e0805800c08f9f00d18f9f0043f82f007c
:10591c008f814100f20120002100200040f92f006e
:10592c000f004000050507006f819700ff8197006d
:10593c002f809700bf809700000051008180590094
:10594c00e08f9f00f18f9f004f829700df829700be
:10595c000f8b97009f8b97000403530085835b008c
:10596c001400200005002000800f5100818f590089
:10597c00010039006022b8000402530085825b00ec
:10598c0084979f0095979f0043fa2f008f814100c9
:10599c00f201200021002000c0f92f000f00400070
:1059ac00e6040700cc3f9f000000eb00d03f9f00b7
:1059bc00230020000e01780081f72f008f8040001b
:1059cc0040fa2f000f0040007a000700400320002f
:1059dc0001002000c03f9f00d13f9f0033002000fa
:1059ec0042fc2f000f01410081f72f008f804000f7
:1059fc000e0078006f000700c3fa2f008f81410062
:105a0c00e20120003100200040fc2f000f0040007c
:105a1c00ca0407004f999700df9997006f9297007f
:105a2c00ff9297000202420083824a0084af9f00db
:105a3c0095af9f0010002000820f5200838f5a00f8
:105a4c00010039000000eb006f9a9700ff9a970055
:105a5c000f9997009f999700040141008581490097
:105a6c00cf80de000201400083814800a2af9f007e
:105a7c00b3af9f000000e00026003a0010002000a9
