:020000040000fa
:080000000002040000000000f2
:020000040000fa
:10000800ec410000cc410000d0410000d441000088
:10001800d8410000ec410000ec410000ec41000038
:10002800ec410000ec410000ec410000bc3700004e
:10003800b4140000ec410000ec410000ec41000069
:1000480008390000ec410000ec410000ec410000e0
:10005800ec410000ec410000c0410000ec41000010
:10006800ec410000f4410000ec410000583d000064
:10007800ec410000ec410000ec410000ec410000c4
:10008800a81d0000ec410000ec410000ec4100001c
:10009800ec410000ec410000ec410000ec410000a4
:1000a800ec410000ec410000ec4100004237000048
:1000b800ec410000ec410000ec410000ec41000084
:1000c800ec410000ec410000ec410000ec41000074
:1000d800ec410000ec410000ec410000ec41000064
:1000e800ec410000ec410000ec410000ec41000054
:1000f800ec410000ec410000ec410000ec41000044
:10010800ec410000ec410000e0310000ec4100004f
:10011800ec410000ec410000ec410000d43b000041
:10012800ec410000ec410000ec410000ec41000013
:10013800ec410000ec410000ec410000ec41000003
:10014800ec410000ec410000ec410000ec410000f3
:10015800ec410000ec410000ec410000ec410000e3
:10016800ec410000ec410000ec410000ec410000d3
:10017800ec410000ec410000ec410000ec410000c3
:10018800ec410000ec410000ec410000ec410000b3
:10019800ec410000ec410000ec410000ec410000a3
:1001a800ec410000ec410000ec410000ec41000093
:1001b800ec410000ec410000ec410000ec41000083
:1001c800ec410000ec410000ec410000ec41000073
:1001d800ec410000ec410000ec410000ec41000063
:1001e800ec410000ec410000ec410000ec41000053
:0801f800ec410000ec410000a5
:020000040000fa
:10020800ec410000dc410000e0410000e441000056
:10021800e8410000ec410000ec410000ec41000026
:10022800ec410000ec410000ec410000bc3700004c
:10023800b4140000ec410000ec410000ec41000067
:1002480008390000ec410000ec410000ec410000de
:10025800ec410000ec410000c0410000ec4100000e
:10026800ec410000f4410000ec410000583d000062
:10027800ec410000ec410000ec410000ec410000c2
:10028800a81d0000ec410000ec410000ec4100001a
:10029800ec410000ec410000ec410000ec410000a2
:1002a800ec410000ec410000ec4100004237000046
:1002b800ec410000ec410000ec410000ec41000082
:1002c800ec410000ec410000ec410000ec41000072
:1002d800ec410000ec410000ec410000ec41000062
:1002e800ec410000ec410000ec410000ec41000052
:1002f800ec410000ec410000ec410000ec41000042
:10030800ec410000ec410000e0310000ec4100004d
:10031800ec410000ec410000ec410000d43b00003f
:10032800ec410000ec410000ec410000ec41000011
:10033800ec410000ec410000ec410000ec41000001
:10034800ec410000ec410000ec410000ec410000f1
:10035800ec410000ec410000ec410000ec410000e1
:10036800ec410000ec410000ec410000ec410000d1
:10037800ec410000ec410000ec410000ec410000c1
:10038800ec410000ec410000ec410000ec410000b1
:10039800ec410000ec410000ec410000ec410000a1
:1003a800ec410000ec410000ec410000ec41000091
:1003b800ec410000ec410000ec410000ec41000081
:1003c800ec410000ec410000ec410000ec41000071
:1003d800ec410000ec410000ec410000ec41000061
:1003e800ec410000ec410000ec410000ec41000051
:0803f800ec410000ec410000a3
:020000040000fa
:10040000cfc420000e6d24000e0188000000000003
:10041000000020000000e000020032000001200087
:100420002002880014000700700007000000e000b0
:1004300003003a000095220001002000020037006e
:100440000000200001002000810f70000100320038
:1004500014000700000020000000e000020032004d
:100460000000020000000000da2602000000000088
:100470000040da000000fe004440a90040082000cf
:100480000000e0000300320000002000a00188000e
:100490004440a800000006008a1f78008b1f7800e7
:1004a0000000060091018800800478000000eb0045
:1004b0001a003700e284440032a0b4009905ba0063
:1004c000e284440032a0b4009906ba00e2844400f9
:1004d00032a0b4000006eb00476fde00fd07b2005b
:1004e000636ce10003003a00ebff07000000eb0043
:1004f0000a003700606ce10004003a00005deb0088
:100500008b05e900fdff3e00040037006168e10053
:10051000010032000086eb000b00070019c7ba008b
:100520001905ba000e04e00003003a000a00e000da
:10053000e0ff3a0000000600fe07b2009e018800be
:100540008a047800f5ff3700395dba008b05e900b1
:100550000c003200295dba008b05e900080032006a
:100560000c00e00003003a00e284440032a0b40032
:10057000f5ff370019ddba008b05e900faff3a00f4
:100580008904e800e184440032a0b40000000600c1
:1005900066060400000000000021ef00110888003a
:1005a00020088800000006000a21ef00710888007a
:1005b00090088800000006001421ef00d108880090
:1005c000f00888001e61a9000000060000088800ed
:1005d000000006005008880000000600a0088800ff
:1005e00000000600c00888000000060000000500aa
:1005f0003200f800023b8800910188000008bb002f
:100600000500fc0051052000313b8800a10a2000b4
:10061000313b880061e7a8000000000000000000f6
:100620003200f900000006000400a10001003700bc
:100630000400a0003200f80091018800110024009d
:10064000013b8800f10f20003208bb000400a70026
:10065000b20078000198bb008301e900faff3a007c
:10066000680151000400a7006801510068005000b3
:100670001208bb00e2ff3700f30f20003200f80041
:100680009101880031002400013b88000208bb0072
:100690000388bb00daff37003200f800003b880017
:1006a000d7ff37003200f8009101880080027800ff
:1006b000620040003549ba00e08048003204e000a2
:1006c0000410a700100032008301e9000e00320080
:1006d0002549ba003204e0000410a7000a003200e5
:1006e0008301e900080032000408a300eeff320095
:1006f00015c9ba003204e0000410a700020032005d
:100700008301e900e8ff3a003200f900000006002a
:10071000889fbe008a9fbe008c1f7800ab00070038
:10072000b200330003866c006450e1002e003200fa
:100730006420e100330032006150e1002f003200fc
:100740006120e1003100320085855500eb07b000e3
:1007500009002000080420000500370008044400b8
:1007600089844c000a0031000603430087834b0054
:100770000001530081815b00f8ff33000203be00db
:100780000800a0000804440089844c00f6ff3900ea
:10079000c639dd0083017300010032001300200020
:1007a0008904d1000884d3000998a3000500320011
:1007b0000800a7000300a0008904d1000884d3002a
:1007c0008b05e8008904d1000884d3000001eb0008
:1007d0000281d2004200070001f0a1000cf0a70046
:1007e00001f0a0008a0037006420e1008c00320094
:1007f0000801be000200be00f7ff37006120e100e3
:10080000870032006000b800f3ff370000002000ce
:1008100001f82700f0ff3700839f68000100e00027
:1008200002003d0060001000e08018000300e000be
:1008300002003d0060011100e0811900af000700d7
:100840004f00e00002003b0060001000e080180054
:100850000000060014002000b80037000001be00b0
:10086000450007000470a70003f0a1006509b1006e
:10087000160032000d0035006828e1000600350042
:10088000f0ff2f00f1ff27000300e00013003b0002
:1008900001002800000005000000400081804800a1
:1008a0008502e900fcff3a0008003700f88f42009b
:1008b00002003c008000eb00000005008100d10038
:1008c0000080d3008502e800fcff3a000300e0004e
:1008d00002003b0060001000e080180000000600ed
:1008e00081002000618055000b003d000b002000be
:1008f00061fe2f000100e1001d00340082817100c3
:10090000610164008904d1000884d3000000e8007c
:10091000faff3a00710020006100640003007000db
:10092000020060000900320061044400e0844c00d1
:100930000988a500050032008b05e8006808e10081
:1009400002003a008904d1000884d300f20f20008d
:100950000258e10005003d00c75ddd00f907b20067
:100960008980750008007800000006000bf8270059
:100970008b00780000000500c70ade00f107b20016
:10098000f50fb20008003200e1cf42000200320051
:100990000170a00024000500810f700001003200ea
:1009a0000408050044000500810f700002003a00b1
:1009b000140005008502e9000000400081c04800e5
:1009c000fcff3b000170a000240005000004be00f5
:1009d000e9ff07000003be000405be000200be00e0
:1009e000e5ff0700844f7500000006000200be000e
:1009f0006450e100050036006420e100020036008a
:100a00000968a30001003a000800be000160a000d0
:100a10004f0678004f05be004f04be0000000600e0
:100a2000f0ff2f00f1ff2700f9ff3700889fbe007d
:100a30008a9fbe008c1f7800e4ff0700ebff3300a5
:100a400003866c006450e100240032006420e10061
:100a5000270032006150e100220032006120e100f5
:100a6000210032008b854200eb07b1000134b80051
:100a7000003ab8000804420089844a00013ab800ec
:100a80000030b8008880400009014a0004003300ab
:100a90000000400081804800020149008b05e90008
:100aa000c909dd008301700001003200130020003d
:100ab000c814de004814dd004709de001200b20051
:100ac000c808de000884700085ff070001f0a1005f
:100ad0000cf0a70001f0a000cdff37006120e1007d
:100ae000cfff32000801be000200be00f7ff370052
:100af0006150e100fcff3a00c9ff37006022b800f6
:100b0000060220000000d0008180d2000482d200c2
:100b10008582d2000000a0000202520083825a00a7
:100b2000030031000202420083824a000000a1005b
:100b30000603e900f3ff3a0000000600889fbe00ac
:100b40008a9fbe00841f7800a0ff07004f00780036
:100b500011003300f0ff2f00838f6c0006003b0074
:100b6000040565000a00a7000800370009f0a60088
:100b70001000200008003700820f5400838f5c00b3
:100b8000030039001000200001003e00000020009a
:100b900009f0a7000000ea004f05be004f04be00a8
:100ba0000000e0000000060080017800020037002d
:100bb000b15978000201e9000200e000fcff3a00b0
:040bc000000006002b
:020000040000fa
:100bc400000600000201000004050000030000000c
:100bd400000000004a01000094020000de0300004f
:100be4002705000070060000b90700000109000095
:100bf400480a00008f0b0000d50c0000190e0000fd
:100c04005d0f00009f100000e011000020130000a1
:100c14005e1400009b150000d61600000f1800009b
:100c2400461900007b1a0000af1b0000e01c000006
:100c34000e1e00003b1f0000652000008c210000f8
:100c4400b1220000d3230000f3240000ff7f000042
:100c5400fb7f0000ec7f0000d37f0000b07f00002a
:100c6400837f00004c7f00000b7f0000c17e0000ea
:100c74006c7e00000e7e0000a57d0000337d000028
:100c8400b87c0000327c0000a37b00000a7b0000db
:100c9400687a0000bc7900000679000047780000fb
:100ca4007f770000ad760000d3750000ef7400007c
:100cb400017400000b7300000c720000047100004a
:080cc400f36f0000d96e00007f
:020000040000fa
:100ccc00ea874700889fbe008a9fbe008c9fbe00ab
:100cdc008e1f780004702000040260008002eb007c
:100cec00c828dd004822de0004827000c82ade001d
:100cfc00e14f520052003200420031009340780024
:100d0c00e9cf500089003200e7cf50009500320047
:100d1c0035c3b30085cf5000cc00320025c3b300df
:100d2c0085cf5000db00320085c4b30085cf500066
:100d3c009f00320075c7b30085cf500012013200fe
:100d4c00b5c5b30085cf50005701320055c6b3006e
:100d5c0085cf50009c01320095c6b30085cf500062
:100d6c0048023200f7cf5000f502320025c7b3001d
:100d7c0085cf500018033200d5c6b30085cf500084
:100d8c0034033200e3c6b30083cf500017003a009f
:100d9c00e14f510015003a00a1ef9f0076875700f4
:100dac00e1a92000116f7800914090001147980044
:100dbc008040eb00e1ef9f00d1ef9f0051c0b300ea
:100dcc00b2bf2000670262004822dd001281fb00e6
:100ddc004411dd0004027100000fb2004400de007b
:100dec000000720076815700401d07004f07780005
:100dfc004f06be004f05be004f04be00af00b10051
:100e0c0000000600e74f5200f8ff3a0093407800cc
:100e1c00e1cf40002e0032000104e000f3ff3a0065
:100e2c000000fe004f0778004f06be004f05be00c5
:100e3c004f04be00af00b10000000600f1ff370008
:100e4c006f406000ef4f5000e8ff3a00803e2000fa
:100e5c0050378a00b0bf20001080fb00800040009b
:100e6c000281fb00828f5000e0ff3c000000e90093
:100e7c0000004000634178000281fb0000804100cb
:100e8c0090409000c808dd0081007100806e240045
:100e9c0010407800e64f500044013200f0003e0054
:100eac000004e0003e013200e24f50005e003200d0
:100ebc00331307004f0778004f06be004f05be00e6
:100ecc004f04be00af00b10000000600cdff37009c
:100edc00e14f5100c5ff3a00a1ef9f0081c0b30064
:100eec00b1ef9f0031c0b300c1ef9f00d1ef9f0065
:100efc0041c0b300e1ef9f0051c0b300b2bf20006e
:100f0c00670262004822dd001281fb004411dd0003
:100f1c0004027100000fb2004400de0000007200f9
:100f2c0076815700f11c0700b0ff3700e24f5100eb
:100f3c00aeff3a00a0bf20001004e000abff32006f
:100f4c0013409000741c07004f0778004f06be003a
:100f5c004f05be004f04be00af00b10000000600fc
:100f6c00a8ff3700e14f5100a0ff3a00a1ef9f000e
:100f7c00816e240091407800b1ef9f0021c0b30036
:100f8c00b2bf2000670262004822dd001281fb0024
:100f9c004411dd0004027100000fb2004400de00b9
:100fac000000720076815700d01c07008fff3700bd
:100fbc00a0bf20001004e0008cff3200e54f510070
:100fcc00d0023200e84f510088ff3a007341900084
:100fdc004811dd00634090000080fb0002017000ae
:100fec00d3409000c808dd00434090000080fb0017
:100ffc0081007000334290004822dd0023409000b5
:10100c000080fb00040070005a1b07004f0778009b
:10101c004f06be004f05be004f04be00af00b1002e
:10102c000000060077ff370000002800808f50007a
:10103c000300320001558800d11207009dff3700d4
:10104c001100280001558800fbff3700e14f5100cb
:10105c0066ff3a00a1ef9f00b2bf200092417800da
:10106c00b3ef9f0021c0b300670262004822dd008d
:10107c001281fb004411dd0004027100000fb2006c
:10108c004400de000000720076815700971c0700b8
:10109c0056ff3700e24f510054ff3a00806e240097
:1010ac001004e0000300320001cbb30090cf10001d
:1010bc004eff3a0013409000b8bf2000004c78005f
:1010cc00a11c070018407800b01807000002eb00c4
:1010dc008304200042b620000000250011002000ef
:1010ec006dfd0700220424000000250011002000e3
:1010fc003cfd07001880fb008000eb00205b8800a3
:10110c00315b880048ba200010c0b300004c780056
:10111c000800e8000048eb00c0aa2c00305d8800f5
:10112c000204200001fc2f00888040000080eb00ae
:10113c00921b0700405d88000000eb00505d8800aa
:10114c000304200002fc2f000801410000002500d0
:10115c001100200031fd0700030420000801780075
:10116c0000042500110020002cfd07004f0778001b
:10117c004f06be004f05be004f04be00af00b100cd
:10118c00000006001fff3700e64f510017ff360026
:10119c00a0bf20001004e00014ff32009340900028
:1011ac008180fb00a0a92000104278000148780043
:1011bc008000e800114278008048eb00a3409000ca
:1011cc008180fb00334290004822dd008480700057
:1011dc00d1608800c34090008180fb005342900096
:1011ec004822dd0084807000e1608800634290003a
:1011fc000482fb000402d10021c220008448780044
:10120c00e1608000e18f40003402320031c22000e6
:10121c008048eb0041022000e84f51000d003200e5
:10122c0001618800a1a92000104078006140600095
:10123c00eefe32001144a1004f0778004f06be00ad
:10124c004f05be004f04be00af00b1000000060009
:10125c00ecfe3700f34090008180fb00f0ff37007c
:10126c00ea4f500012ff3900eb4f50006eff360072
:10127c0002c5b300824f50000dff3a0000c0290098
:10128c00808f500001003d00800078000040260057
:10129c00808f50000100340080007800e1548800f9
:1012ac003712070003ff3700e34f5100cffe3a001f
:1012bc00a3429000134190008040eb00e14f51009d
:1012cc001e003200a2bf200001497800b1c5b30056
:1012dc00a1ef9f0081c0b300b1ef9f0033c0b300fa
:1012ec00c3ef9f00d3ef9f0043c0b300e3ef9f0019
:1012fc0013c0b300f3ef9f0063c0b30083f79f00ec
:10130c009241780093f79f0012417800b2bf200001
:10131c00670262004822dd001281fb004411dd00ef
:10132c0004027100000fb2004400de0000007200e5
:10133c0076815700ed1b0700acfe37008540780026
:10134c0061c0b2008180fb008100e900cf08de00a3
:10135c00a2bf200001497800b1c5b300a1ef9f00e6
:10136c0081c0b300b1ef9f0033c0b300c3ef9f0047
:10137c00d3ef9f0043c0b300e3ef9f0013c0b30053
:10138c00f3ef9f0063c0b30083f79f009241780096
:10139c0093f79f0012417800b2bf2000dcff3700aa
:1013ac00d8190700f6110700c2fe37004051800023
:1013bc00808f50008001340041518000f15488002e
:1013cc00ef110700bbfe3700a0bf20001004e000a7
:1013dc0086fe3200e84f5100e9013200e64f510021
:1013ec0082fe3a0013409000e14f5000d8013200c9
:1013fc00e24f50007dfe3a0013009000a3009000d5
:10140c0020608800316088004b6080005a6080004a
:10141c002d6080003c6080000d0178008c0178000c
:10142c000b0078008a00780007fd07000000e00040
:10143c00c50135000a04be000200200003f8230099
:10144c000900780088007800fffc07000000e0002d
:10145c002605350002002000030024000900780056
:10146c0088007800f8fc07000000e0000305350058
:10147c00020020000308240009007800880078008e
:10148c00f1fc07000000e000e00435000200200041
:10149c00031024000900780088007800eafc07009b
:1014ac000000e000bd0435000200200003182400f9
:1014bc000900780088007800e3fc07000000e000d9
:1014cc009a04350002002000032024000900780053
:1014dc0088007800dcfc07000000e0007704350091
:1014ec0002002000032824000900780088007800fe
:1014fc00d5fc07000000e000540435000200200079
:10150c00033024000900780088007800cefc070026
:10151c000000e000310435000200200003382400f4
:10152c000900780088007800c7fc07000000e00084
:10153c000e0435000200200003402400090078004e
:10154c0088007800c0fc07000000e000eb033500c9
:10155c00020020000348240009007800880078006d
:10156c00b9fc07000000e000c803350002002000b1
:10157c00035024000900780088007800b2fc0700b2
:10158c000000e000a50335000200200003582400f1
:10159c000900780088007800abfc07000000e00030
:1015ac00820335000200200003602400090078004b
:1015bc0088007800a4fc07000000e0005f03350001
:1015cc0002002000036824000900780088007800dd
:1015dc009dfc07000000e0003c03350002002000e9
:1015ec0003702c000802be0005007800840078000f
:1015fc0095fc07000000e000fcfd3d00f000200021
:10160c000800200009702c00fec0b30000475700f2
:10161c0002002000037024000c02be0005007800bc
:10162c0084007800fefc07000801be0035fc0700b2
:10163c0087fc0700000678000200200003702400dd
:10164c000a02be000500780084007800f4fc070054
:10165c000801be002bfc07007dfc07000e41780042
:10166c008c0078008d1907004f0778004f06be00dc
:10167c004f05be004f04be00af00b10000000600d5
:10168c00e0fd3700a0bf20001004e000d7fd3200c1
:10169c00e84f51004d013200e64f5100d3fd3a00a6
:1016ac0013409000e14f500030013200e24f5000e7
:1016bc00cefd3a0013009000a3009000e05f88007c
:1016cc00f15f88000b6080001a608000ed5f800085
:1016dc00fc5f80000d0178008c0178000b00780015
:1016ec008a00780058fc07000000e0001d0135005e
:1016fc000a04be000200200003f823000900780051
:10170c008800780050fc07000000e000b7023500ac
:10171c0002002000030024000900780088007800f3
:10172c0049fc07000000e000940235000200200094
:10173c0003082400090078008800780042fc0700a8
:10174c000000e000710235000200200003102400ac
:10175c0009007800880078003bfc07000000e000de
:10176c004e02350002002000031824000900780006
:10177c008800780034fc07000000e0002b023500e4
:10178c000200200003202400090078008800780063
:10179c002dfc07000000e0000802350002002000cc
:1017ac0003282400090078008800780026fc070034
:1017bc000000e000e50135000200200003302400a9
:1017cc0009007800880078001ffc07000000e0008a
:1017dc00c201350002002000033824000900780003
:1017ec008800780018fc07000000e0009f0135001d
:1017fc0002002000034024000900780088007800d3
:10180c0011fc07000000e0007c0135000200200004
:10181c000348240009007800880078000afc0700bf
:10182c000000e000590135000200200003502400a4
:10183c00090078008800780003fc07000000e00035
:10184c0036013500020020000358240009007800fe
:10185c0088007800fcfb07000000e0001301350055
:10186c000200200003602400090078008800780042
:10187c00f5fb07000000e000f0003500020020003e
:10188c00036824000900780088007800eefb07004c
:10189c000000e000710235000200200003702c00f3
:1018ac000802be000500780084007800e6fb070003
:1018bc000000e0004dfd3d00f0002000080020007d
:1018cc0009702c00fec0b300004757000200200036
:1018dc00037024000c02be00050078008400780020
:1018ec004ffc07000801be0086fb0700d8fb070071
:1018fc000006780002002000037024000a02be00db
:10190c00050078008400780045fc07000801be0043
:10191c007cfb0700cefb07000e4178008c007800a2
:10192c00f01807004f0778004f06be004f05be00a9
:10193c004f04be00af00b1000000060031fd3700bf
:10194c00e54f510029fd3a00a0bf20001004e00033
:10195c0026fd3200806e2400104078006a40500052
:10196c00e14f500021fd3e00a3409000c808dd006f
:10197c00134090000080fb000100700000558800af
:10198c00005580000155800000002800808f500019
:10199c0016fd3a000000e800005588004f0778005b
:1019ac004f06be004f05be004f04be00af00b10095
:1019bc000000060013fd3700405180000000ea00d3
:1019cc00808f50007dfe3d00415180008100ea0077
:1019dc00f15488007afe3700e34f510003fd3a00c2
:1019ec00a0bf20001004e00000fd320000c5b300d1
:1019fc00816e2400914f1000fcfc3a00a340900033
:101a0c00c808dd00134090000080fb00010070004e
:101a1c00e0548800e154800000402600808f500084
:101a2c0004003c00e154800000c02900808f50006d
:101a3c00eefc3d00e05488004f0778004f06be00d6
:101a4c004f05be004f04be00af00b1000000060001
:101a5c00ecfc3700e54f5100e4fc3a00a0bf20003d
:101a6c001004e000e1fc3200806e240061c0b30081
:101a7c0090cf1000ddfc3a00a3409000c808dd00b8
:101a8c00134090000080fb0001007000f0548800af
:101a9c00f154800040518000808f50005e003c006b
:101aac00f1548000405180000000ea00808f50000b
:101abc00cefc3d00405180000000ea00f05488004c
:101acc004f0778004f06be004f05be004f04be0006
:101adc00af00b10000000600cafc37001054a00093
:101aec0014c0b30031c2200084487800e780500055
:101afc008008eb0041022000e84f5100c8fd3a007d
:101b0c00d4fd3700a3409000c808dd0013409000be
:101b1c000080fb00810070004f08de0001004000d7
:101b2c000080d10002e22400921807004f077800d1
:101b3c004f06be004f05be004f04be00af00b10003
:101b4c0000000600affc37000c04be003afe370064
:101b5c0013009000a3009000406088005160880042
:101b6c0029fe37000c04be00e2fe37001300900083
:101b7c00a30090000060880011608800d1fe37003f
:101b8c0073419000c3409000c808dd0033409000c2
:101b9c000080fb0081007000234290004822dd0091
:101bac00134090000080fb00040070003b180700fd
:101bbc004f0778004f06be004f05be004f04be0015
:101bcc00af00b100000006008efc3700734190009e
:101bdc00c3409000c808dd00334090000080fb003b
:101bec0081007000234290004822dd0013409000d9
:101bfc000080fb00040070003a1807004f077800c3
:101c0c004f06be004f05be004f04be00af00b10032
:101c1c00000006007bfc370043518000f354880021
:101c2c004f0778004f06be004f05be004f04be00a4
:101c3c00af00b1000000060072fc3700d00020009d
:101c4c000800200009602400fec0b30000475700c4
:101c5c0002002000037024000c02be000500780076
:101c6c00840078006efb07000801be00a5fa07008f
:101c7c00f7fa070000067800020020000370240029
:101c8c000a02be00050078008400780064fb07009f
:101c9c000801be009bfa0700edfa07000e41780020
:101cac008c0078000f1807001eff3700c0002000c2
:101cbc000800200009582400fec0b300004757005c
:101ccc0002002000037024000c02be000500780006
:101cdc008400780052fb07000801be0089fa070057
:101cec00dbfa0700000678000200200003702400d5
:101cfc000a02be00050078008400780048fb07004b
:101d0c000801be007ffa0700d1fa07000e417800e7
:101d1c008c007800f317070002ff3700b00020009a
:101d2c000800200009502400fec0b30000475700f3
:101d3c0002002000037024000c02be000500780095
:101d4c008400780036fb07000801be006dfa07001e
:101d5c00bffa070000067800020020000370240080
:101d6c000a02be0005007800840078002cfb0700f6
:101d7c000801be0063fa0700b5fa07000e417800af
:101d8c008c007800d7170700e6fe3700a000200073
:101d9c000800200009482400fec0b300004757008b
:101dac0002002000037024000c02be000500780025
:101dbc00840078001afb07000801be0051fa0700e6
:101dcc00a3fa07000006780002002000037024002c
:101ddc000a02be00050078008400780010fb0700a2
:101dec000801be0047fa070099fa07000e41780077
:101dfc008c007800bb170700cafe3700900020004b
:101e0c000800200009402400fec0b3000047570022
:101e1c0002002000037024000c02be0005007800b4
:101e2c0084007800fefa07000801be0035fa0700ae
:101e3c0087fa0700000678000200200003702400d7
:101e4c000a02be000500780084007800f4fa07004e
:101e5c000801be002bfa07007dfa07000e4178003e
:101e6c008c0078009f170700aefe37008000200022
:101e7c000800200009382400fec0b30000475700ba
:101e8c0002002000037024000c02be000500780044
:101e9c0084007800e2fa07000801be0019fa070076
:101eac006bfa070000067800020020000370240083
:101ebc000a02be000500780084007800d8fa0700fa
:101ecc000801be000ffa070061fa07000e41780006
:101edc008c0078008317070092fe370070002000fa
:101eec000800200009302400fec0b3000047570052
:101efc0002002000037024000c02be0005007800d4
:101f0c0084007800c6fa07000801be00fdf907003e
:101f1c004ffa07000006780002002000037024002e
:101f2c000a02be000500780084007800bcfa0700a5
:101f3c000801be00f3f9070045fa07000e417800ce
:101f4c008c0078006717070076fe370060002000d1
:101f5c000800200009282400fec0b30000475700e9
:101f6c0002002000037024000c02be000500780063
:101f7c0084007800aafa07000801be00e1f9070006
:101f8c0033fa0700000678000200200003702400da
:101f9c000a02be000500780084007800a0fa070051
:101fac000801be00d7f9070029fa07000e41780096
:101fbc008c0078004b1707005afe370050002000a9
:101fcc000800200009202400fec0b3000047570081
:101fdc0002002000037024000c02be0005007800f3
:101fec00840078008efa07000801be00c5f90700ce
:101ffc0017fa070000067800020020000370240086
:10200c000a02be00050078008400780084fa0700fc
:10201c000801be00bbf907000dfa07000e4178005d
:10202c008c0078002f1707003efe37004000200080
:10203c000800200009182400fec0b3000047570018
:10204c0002002000037024000c02be000500780082
:10205c008400780072fa07000801be00a9f9070095
:10206c00fbf9070000067800020020000370240032
:10207c000a02be00050078008400780068fa0700a8
:10208c000801be009ff90700f1f907000e41780026
:10209c008c0078001317070022fe37003000200058
:1020ac000800200009102400fec0b30000475700b0
:1020bc0002002000037024000c02be000500780012
:1020cc008400780056fa07000801be008df907005d
:1020dc00dff90700000678000200200003702400de
:1020ec000a02be0005007800840078004cfa070054
:1020fc000801be0083f90700d5f907000e417800ee
:10210c008c007800f716070006fe37002000200030
:10211c000800200009082400fec0b3000047570047
:10212c0002002000037024000c02be0005007800a1
:10213c00840078003afa07000801be0071f9070024
:10214c00c3f9070000067800020020000370240089
:10215c000a02be00050078008400780030fa0700ff
:10216c000801be0067f90700b9f907000e417800b5
:10217c008c007800db160700eafd37001000200009
:10218c000800200009002400fec0b30000475700df
:10219c0002002000037024000c02be000500780031
:1021ac00840078001efa07000801be0055f90700ec
:1021bc00a7f9070000067800020020000370240035
:1021cc000a02be00050078008400780014fa0700ab
:1021dc000801be004bf907009df907000e4178007d
:1021ec008c007800bf160700cefd37000000eb0016
:1021fc000800200009f82300fec0b3000047570078
:10220c0002002000037024000c02be0005007800c0
:10221c008400780002fa07000801be0039f90700b3
:10222c008bf90700000678000200200003702400e0
:10223c000a02be000500780084007800f8f9070057
:10224c000801be002ff9070081f907000e41780044
:10225c008c007800a3160700b2fd3700e0002000c8
:10226c000800200009682400fec0b3000047570096
:10227c0002002000037024000c02be000500780050
:10228c0084007800e6f907000801be001df907007c
:10229c006ff907000006780002002000037024008c
:1022ac000a02be000500780084007800dcf9070003
:1022bc000801be0013f9070065f907000e4178000c
:1022cc008c0078008716070096fd3700e000200090
:1022dc000800200009682400fec0b3000047570026
:1022ec0002002000037024000c02be0005007800e0
:1022fc0084007800caf907000801be0001f9070044
:10230c0053f9070000067800020020000370240037
:10231c000a02be000500780084007800c0f90700ae
:10232c000801be00f7f8070049f907000e417800d4
:10233c008c00780059160700cbfc3700d000200029
:10234c000800200009602400fec0b30000475700bd
:10235c0002002000037024000c02be00050078006f
:10236c0084007800aef907000801be00e5f807000c
:10237c0037f90700000678000200200003702400e3
:10238c000a02be000500780084007800a4f907005a
:10239c000801be00dbf807002df907000e4178009c
:1023ac008c0078003d160700affc3700c000200001
:1023bc000800200009582400fec0b3000047570055
:1023cc0002002000037024000c02be0005007800ff
:1023dc008400780092f907000801be00c9f80700d4
:1023ec001bf907000006780002002000037024008f
:1023fc000a02be00050078008400780088f9070006
:10240c000801be00bff8070011f907000e41780063
:10241c008c0078002116070093fc3700b0002000d8
:10242c000800200009502400fec0b30000475700ec
:10243c0002002000037024000c02be00050078008e
:10244c008400780076f907000801be00adf807009b
:10245c00fff807000006780002002000037024003b
:10246c000a02be0005007800840078006cf90700b1
:10247c000801be00a3f80700f5f807000e4178002c
:10248c008c0078000516070077fc3700a0002000b0
:10249c000800200009482400fec0b3000047570084
:1024ac0002002000037024000c02be00050078001e
:1024bc00840078005af907000801be0091f8070063
:1024cc00e3f80700000678000200200003702400e7
:1024dc000a02be00050078008400780050f907005d
:1024ec000801be0087f80700d9f807000e417800f4
:1024fc008c007800e91507005bfc37009000200089
:10250c000800200009402400fec0b300004757001b
:10251c0002002000037024000c02be0005007800ad
:10252c00840078003ef907000801be0075f807002a
:10253c00c7f8070000067800020020000370240092
:10254c000a02be00050078008400780034f9070008
:10255c000801be006bf80700bdf807000e417800bb
:10256c008c007800cd1507003ffc37008000200060
:10257c000800200009382400fec0b30000475700b3
:10258c0002002000037024000c02be00050078003d
:10259c008400780022f907000801be0059f80700f2
:1025ac00abf807000006780002002000037024003e
:1025bc000a02be00050078008400780018f90700b4
:1025cc000801be004ff80700a1f807000e41780083
:1025dc008c007800b115070023fc37007000200038
:1025ec000800200009302400fec0b300004757004b
:1025fc0002002000037024000c02be0005007800cd
:10260c008400780006f907000801be003df80700b9
:10261c008ff80700000678000200200003702400e9
:10262c000a02be000500780084007800fcf8070060
:10263c000801be0033f8070085f807000e4178004a
:10264c008c0078009515070007fc3700600020000f
:10265c000800200009282400fec0b30000475700e2
:10266c0002002000037024000c02be00050078005c
:10267c0084007800eaf807000801be0021f8070082
:10268c0073f8070000067800020020000370240095
:10269c000a02be000500780084007800e0f807000c
:1026ac000801be0017f8070069f807000e41780012
:1026bc008c00780079150700ebfb370050002000e8
:1026cc000800200009202400fec0b300004757007a
:1026dc0002002000037024000c02be0005007800ec
:1026ec0084007800cef807000801be0005f807004a
:1026fc0057f8070000067800020020000370240041
:10270c000a02be000500780084007800c4f80700b7
:10271c000801be00fbf707004df807000e417800da
:10272c008c0078005d150700cffb370040002000bf
:10273c000800200009182400fec0b3000047570011
:10274c0002002000037024000c02be00050078007b
:10275c0084007800b2f807000801be00e9f7070012
:10276c003bf80700000678000200200003702400ec
:10277c000a02be000500780084007800a8f8070063
:10278c000801be00dff7070031f807000e417800a2
:10279c008c00780041150700b3fb37003000200097
:1027ac000800200009102400fec0b30000475700a9
:1027bc0002002000037024000c02be00050078000b
:1027cc008400780096f807000801be00cdf70700da
:1027dc001ff8070000067800020020000370240098
:1027ec000a02be0005007800840078008cf807000f
:1027fc000801be00c3f7070015f807000e4178006a
:10280c008c0078002515070097fb3700200020006e
:10281c000800200009082400fec0b3000047570040
:10282c0002002000037024000c02be00050078009a
:10283c00840078007af807000801be00b1f70700a1
:10284c0003f8070000067800020020000370240043
:10285c000a02be00050078008400780070f80700ba
:10286c000801be00a7f70700f9f707000e41780032
:10287c008c007800091507007bfb37001000200046
:10288c000800200009002400fec0b30000475700d8
:10289c0002002000037024000c02be00050078002a
:1028ac00840078005ef807000801be0095f7070069
:1028bc00e7f70700000678000200200003702400f0
:1028cc000a02be00050078008400780054f8070066
:1028dc000801be008bf70700ddf707000e417800fa
:1028ec008c007800ed1407005ffb37000000eb0054
:1028fc000800200009f82300fec0b3000047570071
:10290c0002002000037024000c02be0005007800b9
:10291c008400780042f807000801be0079f7070030
:10292c00cbf707000006780002002000037024009b
:10293c000a02be00050078008400780038f8070011
:10294c000801be006ff70700c1f707000e417800c1
:0c295c008c007800d114070043fb37000a
:020000040000fa
:102968003600f800809fbe00829fbe00849fbe0094
:10297800869fbe00889fbe008a9fbe008c9fbe00b7
:102988008e1f7800f0874700400f20002002880043
:10299800e7110700eda72000f253800010548000d3
:1029a800615525000192b900cf91de00838e520057
:1029b8000d87e8000201ea00000151000192b90008
:1029c8004f91de00028f52000181b9004f80de0076
:1029d800e480460080885100a8a9200018417800aa
:1029e800614061001c013200aca120001c04e00021
:1029f8002501320000a42000ab070700000578007d
:102a0800710f0700a0f79f009841780062c061002d
:102a180018013a00c9032000110009000905d8006f
:102a28008044e800bbaa20009bcf140017003200a6
:102a38001842780070406200a1aa20002b013a00d9
:102a4800184378006140630004003200a0a9200008
:102a5800104078006240600048023a001b4078004d
:102a680080487800894d7800e3cf54005d02320039
:102a7800e3cf540007013400e5cf54008c02320044
:102a880008033500e6cf5400bd023200935580009c
:102a98008306780082558000820278008904fb0052
:102aa80010002800808464001d013300184378005a
:102ab8006240630021013200a0a920001040780084
:102ac800614260000000eb00220132006055800086
:102ad80000005500340b2000840f50001d023c00fc
:102ae800c4f42f00840f500001003d008016b00090
:102af800fe0f50001a023c00e4012000fe0f4000c7
:102b0800030035000000e00012013d000002ea0069
:102b1800040242008062280060057a00a05e280056
:102b2800e0057a008b05ea000904e0001001320094
:102b38009d067800958056000a8bb9007055800074
:102b4800100078000b82b900c12edd004f22de0094
:102b580004827600d1ff2f0001a2b900c13edd003a
:102b6800cf30de00818076008480400011558800d7
:102b78000a82b90093017800128151000b91b900c3
:102b8800c128dd004f20de00008070008000ea00d0
:102b9800411add004f10de00000072000080500076
:102ba800205588001c04e0000e013200806e2400cd
:102bb80084a52000b3c0b30090cf11001d013200de
:102bc800816e240066c0b300914f130019013200d2
:102bd8001c04e00017013a001255800041518000a2
:102be800810f5100c7013c001355800042518000fd
:102bf8000201ea00c1a42000828f510001003d00bb
:102c080080c8eb00c2a420001104e000c301320018
:102c180011c0b30092cf10004503320080c0eb0012
:102c280092cf1000ee023200e0518000f151800096
:102c3800a2518000b3518000020040008380480008
:102c48001401fb000201e900030033008180d10078
:102c58000080d300fbff37008006780021558000f4
:102c68008100ea00a0528000525280000281500088
:102c78000093b90096bf9f00a7bf9f00b252800083
:102c880050528000008040000283b900c6bf9f00f8
:102c9800d7bf9f00c2518000d3518000e2bf9f0080
:102ca800f3bf9f001fb99700afb997000203430015
:102cb80083834b006fb99700ffb997000603410063
:102cc8008783490096bf9f00a7bf9f00c651880011
:102cd800d751880051528800c2518000d3518000da
:102ce800d0528000e1528000800f5100818f59003e
:102cf8001e013400d6528000e7528000c651880079
:102d0800d7518800c2518000d35180001400fb00c5
:102d18000000e900030033008381d1000281d30061
:102d2800fbff370002067800210320001203200071
:102d3800c201e20009003d00100e800000f0a10071
:102d4800820f500005003e008100e900f8ff3a00bc
:102d580080c420001074a0004b1407005037820074
:102d68000000e00006003400503782000000e9004f
:102d780050378a00503782000000e00044013200da
:102d88000ae9b9000be0b900c10bdd004f00de0015
:102d980000807300d1ff2f000180b900411add00c7
:102da8004f11de0002017200800041000beab900f9
:102db8000ae5b900415bdd004f50de0000007300fa
:102dc800c12bdd00cf26de008d8673000d0040008c
:102dd8000904e000010032000000ea00f25580001a
:102de80000895000d2558000000940008100ea00a7
:102df800e255800000895000a2558000b15580003e
:102e0800c0558000cf0b0700184478006440640068
:102e180005003a00405580000000e8004055880051
:102e2800f30f5000eb003c008480a9000f01b100b3
:102e38004f0778004f06be004f05be004f04be0086
:102e48004f03be004f02be004f01be004f00be0040
:102e58003600f900004006000005eb00aca1200098
:102e6800590e0700a0f79f009841780062c06100e2
:102e7800e8fe32003d0f07000080fb00215e2800bd
:102e8800e1447800e7fe3700721307000005780078
:102e9800dbfe3700e1cf540073013200e2cf54006b
:102ea800fafe3a009d55880080ab2000f055880056
:102eb80020a820008055880040ab2000e0558800fd
:102ec8007e55880060ab2000d055880025a82000da
:102ed8008d017800050178008904fb0010002800a6
:102ee80080846400f1fe3b000d003700b1bf9f00f5
:102ef80023150700bfb897001c04e000d0fe3a0075
:102f0800a2378200800f510081023200a0378a0068
:102f18001843780061406300ccfe3a00cffe3700ca
:102f28008904e900e0ff2f00890470008904e800a3
:102f38001843780062406300dffe3a00c4032000b3
:102f4800110009000405d8008000fd007e00500033
:102f5800eefe33000000400084622800640578001b
:102f6800a45e2800e40578000904e000f0fe3a00b9
:102f78009d067800958056000a8bb9007055800030
:102f8800100078000b82b900c12edd00cf20de00d2
:102f980081807600630ab900c13edd00cf30de00d3
:102fa8008180760084804000115588000a82b9002b
:102fb80093017800128151000b91b900c128dd00fe
:102fc8004f20de0000807000411add00cf10de00c7
:102fd8008100720001005000205588001c04e000a8
:102fe800f2fe3a00806e240010437800ea40530055
:102ff800e1cf50007501360063c0b30090cf1100d7
:103008009b01320001c5b30090cf10003a01320095
:103018006011b800e2518800f35188008000eb008d
:103028000152880084a52000b3c0b30090cf1100de
:10303800e3fe3a00015280001055800000805000e5
:10304800a25280004152800081005000028eb900d7
:10305800b252800041528000810040000289b900cc
:1030680086518000975180000c0141008d814900f4
:103078000201430083814b008251880093518800ec
:10308800405288008251800093518000d0528000c5
:10309800e1528000800f5100818f59008000340078
:1030a800d0528000e1528000805188009151880000
:1030b80080518000915180001401fb000201e90059
:1030c800030033008180d1000080d300fbff37006c
:1030d80080067800215580008100ea00a052800017
:1030e80052528000028150000093b90096bf9f00a1
:1030f800a7bf9f00b252800050528000008040005d
:103108000283b900c6bf9f00d7bf9f00c25180008d
:10311800d3518000e2bf9f00f3bf9f001fb9970003
:10312800afb997000203430083834b006fb9970040
:10313800ffb99700060341008783490096bf9f00a7
:10314800a7bf9f00c6518800d751880051528800f8
:10315800c2518000d3518000d0528000e1528000db
:10316800800f5100818f5900e2fe3c00d25280004e
:10317800e3528000c0518000d151800060011100ed
:10318800e0811900800f5100818f5900ddfe340065
:10319800d0528000e152800060001000e0801800ea
:1031a800c0518800d15188000001be001400fb0006
:1031b8000000e900030033008381d1000281d300bd
:1031c800fbff3700020678002103200012032000cd
:1031d800d7fe37000000eb004055880012558000ec
:1031e800105580000281b9002051800031518000c3
:1031f800045180001551800000015100818159005f
:10320800c61edd004a10de0000807600ca98de0087
:103218000000420081804a00005188001151880056
:103228000051800011518000e00f5000e08f5800dd
:10323800c00035000251800013518000e05080002a
:10324800f1508000800f5100818f5900f6fe340044
:1032580080c420001014a0000b1307008480a9006c
:103268000f01b1004f0778004f06be004f05be00a2
:103278004f04be004f03be004f02be004f01be0008
:103288004f00be003600f90000400600f2fe37008d
:1032980070c420001014a000fb120700b8fe37000d
:1032a800d2528000e352800080518000915180000a
:1032b80060011100e0811900800f5100818f5900d1
:1032c8007bff3400d0528000e15280006000100083
:1032d800e08018008051880091518800805180005a
:1032e800915180001401fb000201e9000300330042
:1032f8008180d1000080d300fbff37008006780072
:1033080074ff3700c1a4200012c0b30082487800bf
:10331800c2a420001104e0003dfe3a0001c5b3003c
:1033280090cf10006b013200e0518000f151800015
:10333800026f24001201fb000201e90003003300c0
:103348008180d1000080d300fbff37008006780021
:1033580042fe37008016b100fe0f5000e6fd340033
:10336800e001200000004000846228006405780025
:10337800a45e2800e4057800fbfe3700b1bf9f007b
:10338800ff13070092378200bfb89700800f5100e3
:103398005a01320090378a00e1cf540024003200ed
:1033a800e6cf54006d0032001b40780080cf5400f7
:1033b800410134007e0145006255880073162000e3
:1033c800830f5100a6fd340062eb2f000a01410073
:1033d8006255880080487800894d7800e3cf540012
:1033e800a3fd3a009e55880060ab2000f055880088
:1033f80021a820008155880040ab2000e0558800b6
:103408007d55880080ab2000d05588008102780067
:103418008e0678008d017800050178008904fb008c
:103428001000280080846400a0fd3b00bcfe37002b
:10343800b2aa20001b407800e64f5000dbff3a009c
:10344800fe0145006355880074162000848f5100e2
:103458009901340063eb2f008a814100635588008d
:1034680080487800094978009d55880080ab200085
:10347800f05588008e55880060ab2000e055880024
:1034880027a820007755880040ab2000d055880039
:103498008e0278008d017800050178008904fb0010
:1034a800100028008084640080fd3b009cfe3700eb
:1034b80023a820009355880040ab2000f0558800d1
:1034c8008d55880080ab2000e05588007e55880027
:1034d80060ab2000d05588008d0278008306780004
:1034e800050178008904fb0010002800808464002e
:1034f8006efd3b008afe3700e254800084a5200060
:10350800cf91de009400fb00e58050008100e900c7
:10351800030033000201410083814900fbff3700ab
:10352800e2518800f35188008000eb0001528800c6
:10353800a0fd37006000b8000051880011518800d4
:103548000001be00e0508000f1508000800f510063
:10355800818f590034fe34003dff3700b2aa2000a5
:103568001b407800e14f500090ff3a00fe015500e3
:103578006355880060013300804878000949780065
:1035880024a820009455880040ab2000f0558800fe
:103598008e55880060ab2000e05588007d55880076
:1035a80080ab2000d05588008e0278008406780011
:1035b8008d017800050178008904fb0010002800bf
:1035c8008084640039fd3b0055fe370084a5200047
:1035d800aff397000704e00076fd32000255800043
:1035e8006150800081005100bdc0b30090cf16002b
:1035f8004900320066378200125280000281500072
:103608000693b9007337820012528000028140008d
:103618000391b900e4518000f55180000601410092
:10362800878149000201420083814a00e2518800f3
:10363800f35188000202be00f2528000035380005a
:10364800820f5200838f5a00ef003400f25280003c
:1036580003538000e2518800f35188000001eb0019
:10366800025288001152880084a5200051fd3700bd
:103678006033b800e6518800f7518800f75480009d
:10368800075288000252800041518000810f51008a
:10369800170034004d5180000d52880084a5200089
:1036a80044fd37009e55880060ab2000f055880027
:1036b8008d55880080ab2000e055880022a82000a6
:1036c8007255880040ab2000d05588008d027800e4
:1036d8008e0678008d017800050178008904fb00ca
:1036e8001000280080846400f0fc3b000cfe3700ca
:1036f80042518000015280000201ea0084a52000a6
:10370800810f51002bfd3400415180008100ea00f7
:103718000152880027fd370016528000125280009f
:10372800245280003552800002814000cf93de0091
:103738000401410085814b0006835000cfb3de00b1
:10374800443add00cc32de00850272004432dd00ee
:103758000201420083814a002252880033528800c5
:10376800445180002252800033528000cfa2de00f4
:10377800820f5200838f5a0095003d00425180000d
:10378800cf91de002252880033528800626f2400f5
:103798001204e000ae00320024528000355280004e
:1037a800e00f5200e08f5a00b60034000652800045
:1037b8002452800035528000cfb3de00840f5300be
:1037c800858f5b00a8003d00025280000201e800de
:1037d800025288001152880084a52000f5fc3700a9
:1037e80041518000105580008100ea00008050009f
:1037f800a35280004152800081005000038bb90021
:1038080096bf9f00a7bf9f00bc5280004152800016
:10381800810040000c8eb900a6518000b75180008d
:10382800c6bf9f00d7bf9f001fbb9700afbb9700c5
:103838000606460087864e004fbb9700dfbb970001
:103848000c0643008d864b00ac518800bd518800a2
:1038580040528800a0518000b1518000e00f500014
:10386800e08f5800f0fc3c006000b800a0518800d0
:10387800b15188000049eb000000eb00405288007d
:10388800e0518000f1518000a2518000b3518000c6
:1038980002004000838048001401fb000201e90097
:1038a800030033008180d1000080d300fbff370084
:1038b80080067800e9fc37007e01550062558800d3
:1038c80067fc3b00a21420000a01410062558800f1
:1038d80063fc3700e0518000f15180001401fb00c7
:1038e8000201e900030033008180d1000080d30089
:1038f800fbff370080067800d8fc370091cf140012
:10390800a5fe3200a0c320001034a000a2fe37009c
:1039180091cf14004afc3200a0c320001034a0004c
:10392800184378006140630048fc3a004bfc3700bc
:10393800415180001055800000805000a352800043
:103948004152800081005000038bb90096bf9f0050
:10395800a7bf9f00bc5280004152800081004000f8
:103968000c8eb900a6518000b7518000c6bf9f00d9
:10397800d7bf9f001fbb9700afbb97000606460046
:1039880087864e004fbb9700dfbb97000c064300ad
:103998008d864b00ac518800bd518800405288008c
:1039a800a0518000b1518000e00f5000e08f580016
:1039b8009dfc35006000b800a0518800b151880016
:1039c8000049eb000000eb0040528800acff3700d4
:1039d8004451800022528000335280000402ea00e1
:1039e800cfa2de00820f5200838f5a0067ff340097
:1039f800425180000201ea00cf91de002252880085
:103a08003352880061ff3700f4528000055380006c
:103a1800e2518000f351800060021200e0821a0037
:103a2800820f5200838f5a000cff3400f25280003c
:103a38000353800060011100e0811900e251880001
:103a4800f35188000001eb000252880005ff37009f
:103a5800225280003352800002528800115288009e
:103a680084a5200053fc3700245280003552800082
:103a7800045288000049eb001152880084a52000f8
:103a88004cfc3700065280002452800035528000da
:103a9800cfb3de00840f5300858f5b00f2ff340044
:103aa800025280000201e900025288001152880087
:103ab80084a520003ffc3700804878000949780039
:103ac8009d55880080ab2000f05588008e558800f1
:103ad80060ab2000e055880027a8200077558800b3
:103ae80040ab2000d05588008e0278008d01780008
:103af8000501780069fe3700a31420008a8141007f
:103b080063558800804878000949780024a8200077
:103b18009455880040ab2000f05588008e558800e9
:103b280060ab2000e05588007d55880080ab200000
:103b3800d05588008e027800840678008d017800c0
:083b4800050178009cfe370026
:020000040000fa
:103b50003600f800809fbe00829fbe00849fbe009a
:103b6000869fbe00889fbe008a9fbe008c9fbe00bd
:103b70000800fa008700a9004c208000fc03b20076
:103b80001d0020008c6edd00012180000d80600092
:103b9000bd003200087824004466dd000c064400b5
:103ba000cc449000ef846400e88f5400c0003400df
:103bb00090c420001044a0008200200082047800fd
:103bc0009c40780061c06000bd003a000180fb00ad
:103bd0004200de001c4590007f0565004655dd0073
:103be0000a0570008005eb00e6004600688057007b
:103bf000edf307008d86ea000d2188005c409000ff
:103c00000018a300d300320090c420001024a000ac
:103c10004c208000fc03b2001d0020008c6edd00f3
:103c2000022180000d006100970032004466dd0033
:103c30000c064400cc449000ef846400e88f5400ec
:103c4000f5003c00090178009c40780061c06000ec
:103c5000c6003a000180fb004200de001c459000d7
:103c60007f0565004655dd000a0570008005eb0004
:103c7000e600460068805700cbf307008d86ea0017
:103c80000d2188005c4090000018a300dc00320089
:103c900090c420001024a0004c208000fc03b2003f
:103ca0001d0020008c6edd00022180000d006100ef
:103cb000750032004466dd000c064400cc449000e0
:103cc000ef846400e88f540003013c000901780090
:103cd0009c40780061c06000d4003a000180fb0085
:103ce0004200de001c4590007f0565004655dd0062
:103cf0000a0570008005eb00e6004600688057006a
:103d0000a9f307008d86ea000d2188005c40900031
:103d10000018a300ea00320090c420001024a00084
:103d20004c208000fc03b2001d0020008c6edd00e2
:103d3000022180000d006100530032004466dd0066
:103d40000c064400cc449000ef846400e88f5400db
:103d500011013c00090178009c40780061c06000be
:103d6000e2003a000180fb004200de001c459000aa
:103d70007f0565004655dd000a0570008005eb00f3
:103d8000e60046006880570087f307008d86ea004a
:103d90000d2188005c4090000018a300f80032005c
:103da00090c420001024a00040208000f003b20046
:103db0001c0020000066dd00022180008c006100f4
:103dc0001e0132004400dd0000044400c84490009d
:103dd000ef846400e88f540013013c00090178006f
:103de0009840780061c06000f000320058409000b8
:103df0000080fb004200de000080fb008000eb0042
:103e000001f0a000a84190008381fb00384290009f
:103e10006f0262004822dd00048271008002eb0024
:103e2000462ddd00ca25de008b0575004625dd0028
:103e30000a0570008b8570001880fb004200de00d0
:103e400098419000ff816100c619dd008301700078
:103e5000c218dd000000eb000005750081857500cb
:103e6000e6004400688057004ff307000c86ea0024
:103e70000c218800584090000018a300da0032009e
:103e800090c420001024a0000080fa004f06be005d
:103e90004f05be004f04be004f03be004f02be00e0
:103ea0004f01be004f00be003600f9000040060082
:103eb000090178009c40780061c0600043ff320037
:103ec0005c4090000080fb004200de000080fb00b0
:103ed0008000eb0001f0a000ac4190008381fb006a
:103ee0003c4290006f0262004822dd0004827100b3
:103ef0008002eb00462ddd00ca25de008b05750033
:103f00004625dd000a0570008b8570001c80fb00d3
:103f10004200de009c419000ff816100c619dd0077
:103f200083017000c218dd000000eb000005750081
:103f300081857500e6004600688057001af3070087
:103f40008d86ea000d2188005c4090000018a300d7
:103f50002dff3a00e8815700094178000a00be00b1
:103f6000045f80000400010029ff37005c409000de
:103f70000080fb004200de000080fb008000eb00c0
:103f800001f0a000ac4190008381fb003c42900016
:103f90006f0262004822dd00048271008002eb00a3
:103fa000462ddd00ca25de008b0575004625dd00a7
:103fb0000a0570008b8570001c80fb004200de004b
:103fc0009c419000ff816100c619dd0083017000f3
:103fd000c218dd000000eb0000057500818575004a
:103fe000e600460068805700eff207008d86ea0081
:103ff0000d2188005c4090000018a30024ff3a00c7
:10400000e8815700094178000a00be00045f800083
:104010000400010020ff370090c420001044a000dd
:10402000820020008204780007ff37005c40900087
:104030000080fb004200de000080fb008000eb00ff
:1040400001f0a000ac4190008381fb003c42900055
:104050006f0262004822dd00048271008002eb00e2
:10406000462ddd00ca25de008b0575004625dd00e6
:104070000a0570008b8570001c80fb004200de008a
:104080009c419000ff816100c619dd008301700032
:10409000c218dd000000eb00000575008185750089
:1040a000e600460068805700bff207008d86ea00f0
:1040b0000d2188005c4090000018a30016ff3a0014
:1040c000e8815700094178000a00be00045f8000c3
:1040d0000400010012ff370090c420001044a0002b
:1040e0008200200082047800f9fe37005c409000d6
:1040f0000080fb004200de000080fb008000eb003f
:1041000001f0a000ac4190008381fb003c42900094
:104110006f0262004822dd00048271008002eb0021
:10412000462ddd00ca25de008b0575004625dd0025
:104130000a0570008b8570001c80fb004200de00c9
:104140009c419000ff816100c619dd008301700071
:10415000c218dd000000eb000005750081857500c8
:10416000e6004600688057008ff207008d86ea005f
:104170000d2188005c4090000018a30008ff3a0061
:10418000e8815700094178000a00be00045f800002
:104190000400010004ff370090c420001044a00078
:1041a0008200200082047800ebfe37001880fb00bc
:1041b0004200de00184590007f0565004655dd0091
:1041c0000a0570008005eb00e60044006880570097
:1041d00075f207000c86ea000c2188005840900018
:1041e0000018a30026ff3a00e88157000941780033
:1041f0000a00be00045f8000040001000080fa0095
:104200004f06be004f05be004f04be004f03be0068
:104210004f02be004f01be004f00be003600f90045
:104220000040060022ff370090c420001044a00088
:104230008200200082047800e9fe370070c420006c
:104240001004a0000080fa004f06be004f05be001b
:104250004f04be004f03be004f02be004f01be0020
:104260004f00be003600f9000040060010ff370086
:020000040000fa
:10427000881f78000003be003064ab0002003200eb
:104280003164ab005d003a0088218000680464005e
:10429000640032000880200084218000040464004f
:1042a0008f00320098218000680464002d003a00dd
:1042b00003027800824078000601be0000722400ec
:1042c0009b080700385f8800105f8000e20f5000f5
:1042d000e1003c00215f8000e28f500046013c007d
:1042e000425f8000e20f510006003c000000e80041
:1042f000105f88008100e800215f88000201e8006b
:10430000425f880063006000c3ff2f0085218000aa
:10431000058261000402700084218800e38060004f
:10432000c808dd00f0cf2f00862180000602600063
:10433000048270008421880021432000918861005c
:10434000630161004811dd003204b6000000710015
:10435000902188003264a8000000eb004f04780030
:104360000000060003027800824078000601be00cb
:10437000007324006e08070080be20000008eb00d8
:10438000105f8000e20f500081003c00225f80003f
:10439000e20f5100f9003400335f800063006000d9
:1043a000c1ff2f008521800005826000040270009b
:1043b00084218800630161004811dd00f0cf2f00e7
:1043c00086218000060260000402710084218800ba
:1043d000e381610092218000828060008180710011
:1043e000912188003224b6003364a8000000eb005d
:1043f0004f04780000000600daff37003264ab009b
:10440000a1ff3200018020009021800080806000a8
:104410000080eb00d1ff3a0088218000680464002e
:104420009cff3a0003027800824078000601be003b
:10443000007024003e080700185f8800205f80009d
:10444000e20f50006a003c00315f8000e28f5000b4
:10445000b1003c00425f8000e20f510006003c00ca
:104460000000e800205f88008100e800315f8800dc
:104470000201e800425f8800c4ff2f0003432000d0
:1044800093096200630060004800dd00f3cf2f0055
:104490008621800086826100850270008521880067
:1044a000e3806000902180000002620004827000be
:1044b00094218800630161004811dd009121800092
:1044c0008181610083017100932188003064a8001c
:1044d0000000eb004f04780000000600a1ff370049
:1044e00003027800824078000601be0000712400bb
:1044f0000f080700285f8800105f8000e20f50005f
:104500006e003c00315f8000e28f5000d2003c0022
:10451000425f8000e20f510006003c000000e8000e
:10452000105f88008100e800315f88000201e80028
:10453000425f880063006000c3ff2f008521800078
:10454000058261000402700084218800f0cf2f00f2
:104550003024b600e38060009621800086816100ef
:104560008381700093218800630161004811dd00a0
:104570003204b60000007100902188003164a80068
:104580000000eb004f0478000000060075ff3700c4
:10459000225f8000335f800063006000c1ff2f0056
:1045a000852180000582600004027000842188005b
:1045b000630161004811dd00f0cf2f0086218000eb
:1045c000060260000402710084218800e38161001a
:1045d000922180008280600081807100912188009a
:1045e0003224b6003364a8000000eb0080ff3700df
:1045f000315f8000425f8000c4ff2f000343200032
:1046000093096200630060004800dd00f3cf2f00d3
:1046100086218000868261008502700085218800e5
:10462000e38060009021800000026200048270003c
:1046300094218800630161004811dd009121800010
:104640008181610083017100932188003064a8009a
:104650000000eb009fff3700215f8000425f800079
:1046600063006000c3ff2f00852180000582610088
:104670000402700084218800e3806000c808dd0027
:10468000f0cf2f00862180000602600004827000b7
:10469000842188002143200091886100630161002a
:1046a0004811dd003204b60000007100902188003e
:1046b0003264a8000000eb0028ff3700315f800063
:1046c000425f800063006000c3ff2f0085218000ef
:1046d000058261000402700084218800f0cf2f0061
:1046e0003024b600e380600096218000868161005e
:1046f0008381700093218800630161004811dd000f
:104700003204b60000007100902188003164a800d6
:104710000000eb009bff3700425f8000c4ff2f00ca
:104720000343200093096200630060004800dd003d
:10473000f3cf2f0086218000868261008502700001
:1047400085218800e38060009021800000026200e3
:104750000482700094218800630161004811dd002b
:104760009121800081816100830171009321880083
:104770003064a8000000eb0056ff3700335f800074
:10478000e28f510005ff3c000000e800105f880048
:104790000201e800225f88008301e800335f88009f
:1047a00063006000c1ff2f0085218000058260004a
:1047b0000402700084218800630161004811dd005b
:1047c000f0cf2f00862180000602600004027100f5
:1047d00084218800e3816100922180008280600052
:1047e00081807100912188003224b6003364a800d2
:1047f0000000eb00fefe3700425f800063006000b7
:10480000c3ff2f0085218000058261000402700033
:1048100084218800e3806000c808dd00f0cf2f000d
:1048200086218000060260000482700084218800d6
:104830002143200091886100630161004811dd007f
:104840003204b60000007100902188003264a80094
:104850000000eb00c1fe3700425f80006300600093
:10486000c3ff2f00852180000582610004027000d3
:1048700084218800f0cf2f003024b600e380600050
:1048800096218000868161008381700093218800d9
:10489000630161004811dd003204b60000007100c0
:1048a000902188003164a8000000eb0035ff37003c
:020000040000fa
:1048b000889fbe008a1f780080047800a1a920008c
:1048c00091407800e2c060000000eb0045003a0033
:1048d000a8a120001804e00042003200210f80004f
:1048e00001f0a7008100ea0000022000808f500044
:1048f0000300340011c0b300c0ac200001487800b0
:10490000f06080006300b9004f01de00000041004c
:104910000085d10020c0b300984f100015003c0066
:1049200070c320001004e00012003200a0c3200079
:10493000c1ac20001104e00006003a008000eb004a
:1049400071568800800ceb001034a000a1a120005b
:104950008048eb008040eb0032c220001204e000ef
:104960000100320031c0b300014c78001044a100b6
:10497000870e070011c0b30098cf10008a003200e4
:1049800020c0b300984f10007500320031c0b30052
:1049900098cf10006600320041c0b30098cf1000dd
:1049a0004900320050c0b300984f10001000320090
:1049b0008056800071568000810c780071162000ae
:1049c000810f5000030034008016b100810f5000a9
:1049d000fdff3c000000e00002003d008016b0003a
:1049e000feff33004f0578004f04be0000000600b4
:1049f000da378200c2378200020045008056880004
:104a0000315680008100e8003156880003a62e0050
:104a1000838f5000e7ff36000000eb0070568800df
:104a200093618000f1608000200f80000182b90056
:104a300011000900432ad8008001780043568800fd
:104a40005456800084805100300b2000808f50002d
:104a5000030034008116b100808f5000fdff3c0040
:104a6000c0f42f00808f500003003d008116b0007d
:104a7000808f5000fdff35008102780005f0a7000f
:104a80008502ea00a0052000808f52008a003400d1
:104a90004f08de00010040000080d100040040000b
:104aa00071162000810f5000030034008016b10001
:104ab000810f5000fdff3c000000e0008e003d0033
:104ac0008016b000fcff3700c0378200e13782005b
:104ad0000080400080568800305680000000e800ca
:104ae0003056880001532700810f5000adff36007b
:104af00092618000f1608000200f80000182b90087
:104b000011000900422ad800505688000000eb002e
:104b10003056880051c0b300a0a1200001487800a1
:104b200050c0b300984f1000a1ff3a00b0ff37000b
:104b300080568000c0378a00705680006151800026
:104b4000810f500025003d000000e80070568800ed
:104b500041c0b30098cf100092ff3a00daff37004f
:104b6000805680000a05ea00800f550044003d0091
:104b7000115680008100e80011568800820c200048
:104b8000828f500081ff34008000eb0011568800b6
:104b90000000e9008056880031c0b30098cf1000b3
:104ba0007dff3a00e2ff37006051800071568000bf
:104bb0004f01de00000041000080d100810f500055
:104bc000130034008100e8007156880020c0b30053
:104bd000984f10006dff3a00e1ff3700005680004b
:104be0000000e8000056880001712200810f50008b
:104bf00069ff340041c0b300a0a120000148780043
:104c000041c0b30098cf100066ff3a00aeff3700f6
:104c100080568000800f55000e0034002156800021
:104c20008100e80021568800820c2000828f50000d
:104c300053ff34008000eb00215688000000e8009c
:104c40008056880020c0b300984f10004fff3a00f4
:104c5000c3ff370080f82f00e0378a000000eb0028
:104c6000d0378a0021c0b300a0a1200001487800fd
:104c700020c0b300984f100044ff3a00b8ff37003f
:104c80000000eb0070568800800ceb00a0c32000f1
:104c90001024a00080c420001044a0007c0c070059
:104ca000a0a120000048eb0031c0b30098cf100055
:104cb00039ff3a009eff37000a00e0003200320060
:104cc0000000eb00d0378a0081f82f00e1378a001e
:104cd0003056880040c0b300004c780080568000f9
:104ce00071568000810c780071162000810f5000f1
:104cf00035ff3c0037ff37003453880043538800aa
:104d0000a205b000e137820001054500cf50de006a
:104d10008a8040008180d1008100410000805000e5
:104d2000e0608800e060800071162000810f500074
:104d300006003400e06080008016b100e06088006a
:104d4000e0608000810f5000faff3c00e0608000ce
:104d50000000e00004003d00e06080008016b0002c
:104d6000e0608800f9ff3700004ceb0080568000bf
:104d700071568000810c780071162000810f500060
:104d800011ff3c0013ff37007a5688008a0c780028
:104d9000a0c320001044a1001054a00080c4200033
:104da0001044a0003a0c07000a4c7800805680009e
:044db00000ff3700c9
:020000040000fa
:104db400e8874700889fbe008a9fbe008c9fbe0084
:104dc4008e1f7800bf0a0700a3080700fc0b07002a
:104dd400a000200030508800ce0607008660a9009d
:104de4009660a800160d07001f0d07009460a80028
:104df40040a72000030009000058eb00a9c32000cd
:104e0400804ceb000000eb006051880040518800aa
:104e14006011b8002251880033518800225180006b
:104e24003351800060011100e08119006a1ab90051
:104e34006a11b80083014200e2508800f3508800f0
:104e44005051880048a02000aa0c0700450b070019
:104e5400000578000a00e00006003200000ceb00b8
:104e6400a40c07003f0b0700000578000a00e000cf
:104e7400faff3a00008ceb00eb0c0700230b070051
:104e8400e000200001002000e0b79f00f1b79f0080
:104e94000002eb004300200074815700000025004d
:104ea40011002000feed07009760a8004fe897006e
:104eb400e50b0700aba920001b4078008a4d780061
:104ec4000b00e800904078000a487800a1bf200059
:104ed4000b0078001104e000feff32009b417800d3
:104ee40061c1610003003a009041780062c1610031
:104ef400f8ff3200425180000200e000f5ff32006a
:104f0400d2528000e3528000e00f5100e08f59003c
:104f1400f0ff32009b40780061c060006f003a00ef
:104f2400a0a9200010407800704060006b003a0097
:104f34008b40a9009b40a9002ac22000aca12000fc
:104f4400004eeb001944a100a0a920001b417800e9
:104f5400e240610070003a00104078006440600054
:104f6400cc003a009b45780061c065000300320024
:104f740010c0b300004e78001944a000016f240053
:104f84001140780072378200cf11de0002814100a7
:104f94000281d10072378a00804878000001fb004a
:104fa40000322000010020000201e9000300330068
:104fb4000000400081804800fbff3700f052880069
:104fc40001538800a30c07008a6e2400004deb00f7
:104fd4006009200030508800008ceb00ea020700d2
:104fe4008006eb006bc420000ccab3000a077800eb
:104ff400dc0a07000000e0002d00320060aa200057
:105004001004e0006a003a000c4d780061a0200012
:105014008088eb00e0012000205088001b04a100e0
:105024001a04e000050032009e4f1600030032000f
:10503400ca0c0700650c07003e0b07007051800086
:10504400808f5600eaff32007d518000936e240069
:10505400134078009a4f1600820032001e04e000cc
:1050640060003a00e64f500007003200ea4f50005b
:1050740005003200eb4f50000300320001c5b300bd
:10508400814f5000daff3a00004d780060a0200004
:105094000008eb00008ceb00803e200050378a00b3
:1050a400320c0700af0a07000000e000d3ff3a000b
:1050b400c262ab00d9ff32001b04a00062aa200028
:1050c4001204e00041003a00004deb0060092000aa
:1050d40030508800008ceb00c5ff37001b81fb00bb
:1050e4004311de00614161002ac220009a40780029
:1050f400d06080008180fb0020070700aca1200065
:10510400004eeb001944a100a0a920001b41780027
:10511400e240610090ff32001024a1001a81fb00dc
:105124006611b900cf91de000000200011002000bc
:1051340071ee07008b0c0700016f2400114078000a
:1051440072378200cf11de00028141000281d1005a
:1051540072378a00804878000001fb00003220008a
:10516400010020000201e9000300330000004000b8
:1051740081804800fbff3700f0528800015388000b
:10518400340c07008a6e2400004deb0060092000f7
:1051940030508800008ceb007b0207008006eb0097
:1051a4006bc420000ccab3000a07780090ff3700d4
:1051b400f60b07000c4d780061a020008088eb00fe
:1051c400e00120002050880094ff3700ef0b070017
:1051d400004deb006009200030508800008ceb008b
:1051e40083ff370061c0b3009ecf10000900320076
:1051f400a2c0b3009e4f110006003200b3c0b3003a
:105204009ecf11000300320001c5b3009ecf1000f1
:1052140077ff3a000004e000ecff3200e94f500051
:10522400eaff3200e64f500007003200ea4f500018
:1052340005003200eb4f50000300320001c5b300fb
:10524400814f50006aff3a0080bf9f002f0a070079
:10525400813e200051378a000fb89700004d780036
:1052640063ff3700e94f500061ff3a00ee0b07007f
:10527400d30a0700804ceb00004feb0060092000cc
:1052840030508800008ceb00803e200050378a00ac
:0c52940057ff3700560c070032ff3700b0
:020000040000fa
:1052a000e84600001600000002000000b0b2ff0057
:1052b000ff0c000010000a0000ff7f00ff7f0100cc
:1052c00000ff7f00c4ff3c0000000000000a000057
:1052d000d600000000000000e046000008000000ca
:1052e00000000000fe460000020000000000000078
:1052f000ac0b0000320000000200000000000000c3
:10530000000000000002000002010200ff02020093
:105310000200ff000202010002ff01000002020081
:10532000020202000202000001ff0200010202006c
:10533000ff0002000202ff00020102000000000064
:10534000d60a00008e00000000000000440c00009f
:1053500006000000000000004a0c000002000000ef
:1053600002000000010000003c0c000008000000ea
:10537000000000000c0c00000e0000000000000007
:10538000640b000048000000020000000100000063
:10539000000000000000000000000000000000000d
:1053a00000000000000000000000000000000000fd
:1053b00000000000000000000000000000000000ed
:1053c00000000000000000000000000000000000dd
:1053d00000000000000000000000000000000000cd
:1053e000000000000000000000000000fa0b0000b8
:1053f0001200000000000000280c00000a0000005d
:105400000000000000080000000200000200000090
:1054100000002100104220006330840040a55000ad
:10542000c660e7007008810029914a00a16bb100b5
:105430008cc1ad00d1cee100eff1310012100200bd
:105440007332520022b552009442f70072d66200c5
:1054500039931800837bb3005aa3bd00d39cc300cb
:10546000fff3de00e3622400433420000401140053
:10547000e664c70074a4440085546a00a54bb500d7
:105480002885090095eee500cff5ac00c58dd50067
:1054900053367200261116003006d70076f66600e5
:1054a0009556b400465bb7007aa719009738870075
:1054b000dff7fe00e79dd700bcc7c40048e55800f1
:1054c0008668a70078400800611802002823380089
:1054d000ccc9ed00d98ee900aff94800896999007f
:1054e0000aa92b00b9f55a00d44ab7007a966a0087
:1054f000711a50000a333a00122afd00dbdccb009f
:10550000bffb9e00eb799b00588b3b00bb1aab00a6
:10551000a66c87007ce44c00c55c22002c033c0098
:10552000600c41001caeed008ffdec00cdcddd0028
:105530002aad0b00bd688d00499d97007eb66e00b8
:10554000d55ef4004e133e00322e51001e700e0048
:105550009fffbe00efdddf00fccf1b00bf3aaf00b6
:10556000599f78008f889100a981ca00b1eba100f2
:105570000cd12d00c14ef1006fe1800010a10000a0
:10558000c230e300200450002540460070676000f0
:10559000b983980093fba300dab33d00c31cd3008a
:1055a0007fe35e00f3b102009012f30022d23200da
:1055b00035421400527762005672ea00b5cba5005e
:1055c000a8958900856ef5004fe52c00d50dc50026
:1055d000e234c30024a01400810466007447640010
:1055e0002454050044dba700fab7990087b8970058
:1055f0005fe77e00f71dc7003cd7d30026f23600d8
:105600009106b000165766007676150046345600af
:105610004cd96d00c90ef9002fe9c80099e989003d
:105620008ab9ab00a944580065480600782768008d
:10563000c018e10008823800a3287d00cb5cdb00a5
:105640003feb1e00fbf98b00d89bbb00ab9abb0065
:10565000754a54005a376a00167af1000ad01a00c7
:10566000b32a92003a2efd000fed6c00dd4dcd0007
:10567000aabd8b00ade89d00c98d26007c076c009b
:10568000645c45004ca23c00832ce0001cc10c0073
:105690001fef3e00ff5dcf007cdf9b00afbabf0075
:1056a000d98ff8009f176e00367e55004e745e004d
:1056b000932eb2003ed10e00f01e0000de0b000063
:1056c0001c000000000000000047000080000000f7
:1056d0000000000080470000800000000000000083
:1056e0001a0c00000e0000000200000000005a002a
:1056f000000000000000000000ff7f00ffff00002e
:10570000320c00000a000000000000000000000051
:020000040000fa
:105710000600fa00889fbe008620a9000602a800a5
:10572000002023000602ab00270032000000e90041
:10573000fcff3a0009ff2f0007e2a900c902a900f7
:1057400000fe2f00c826b600cf02a8000004eb0020
:10575000e1006400c808dd00501680000080a10050
:105760000080700050168800001920000100200001
:10577000130a07000804e800f30f5400f4ff3a008e
:1057800007e2a80000192000010020000c0a070011
:105790008620a90000fe2f000622b6000642a800bf
:1057a000002023000642ab00190032000000e9008f
:1057b000fcff3a00e9ee2e00090078004f04be001d
:1057c0000080fa00000006000000e000d9ff32006f
:1057d0008620a900100d2000101088000020230052
:1057e0000802ab00150032000000e900fcff3a009f
:1057f00019ff2f0007e2a900c902a90000fe2f002f
:10580000c826b600cf02a8000004eb00d0ff370086
:105810000000e000e7ff3200001920000100200036
:10582000e709070097030700090078004f04be004e
:105830000080fa0000000600e3ff37000000e000ef
:10584000ebff3200002023008620ab000a003a0064
:105850000000e900fcff3a0029ff2f0007e2a90041
:10586000c902a90000fe2f00c826b600cf02a8007a
:105870000004eb00b6ff37000000e000f6ff320046
:105880008084eb000802e2003c003500f00f2000ad
:10589000b0bf9f00c0bf9f006c8157008000eb002d
:1058a0008620a9000662a800002023000662ab0043
:1058b0000a0032000000e900fcff3a0039ff2f0027
:1058c00007e2a900c902a90000fe2f00c826b60001
:1058d000cf02a8000004eb009dff37000000e000ad
:1058e000f6ff32008620a900001080000029780011
:1058f0008620a900010078000010a20000f0a70097
:105900000000ea000000e900cf01de00c519dd005b
:10591000301080000050a10000807100301088001d
:105920000682a800002023000682ab000a00320095
:105930000000e900fcff3a0049ff2f0007e2a90040
:10594000c902a90000fe2f00c826b600cf02a80099
:105950000004eb007eff37000000e000f6ff32009d
:105960008100e800e38f5000cdff3a00bfbc9700f4
:10597000c84cdd004fb89700890470008620a9004c
:105980000642a800002023000642ab000a003200b5
:105990000000e900fcff3a0059ff2f0007e2a900d0
:1059a000c902a90000fe2f00c826b600cf02a80039
:1059b0000004eb0066ff37000000e0007eff3a00c5
:0859c00059ff2f00f5ff37002d
:020000040000fa
:1059c800889fbe008a9fbe008c9fbe008e1f7800f5
:1059d800c0a620000008eb00640040000008eb00af
:1059e80021e3a8008c0c20006044b8006055b80082
:1059f80000fe2f002823b6002003a9002023a800ba
:105a080040062000010020006b0907002023a900a0
:105a18000000eb00813e20002003ab0009003a00a3
:105a28000000e800810f5000fbff3a000080eb0007
:105a38004f0778004f06be004f05be004f04be005a
:105a4800000006000d18800000fe2f002803b60095
:105a58000000a000401988002003a9002023a80006
:105a68004006200001002000530907002023a90058
:105a78000000eb00813e20002003ab0005003a0047
