:020000040000fa
:080000000002040000000000f2
:020000040000fa
:10000800f65a0000d65a0000da5a0000de5a0000fc
:10001800e25a0000f65a0000f65a0000f65a0000ac
:10002800f65a0000f65a0000f65a00002050000068
:10003800c4280000f65a0000f65a0000f65a0000dc
:100048006c510000f65a0000f65a0000f65a0000fb
:10005800f65a0000f65a0000ca5a0000f65a000084
:10006800f65a0000fe5a0000f65a00002e5600000c
:10007800f65a0000f65a0000f65a0000f65a000038
:10008800cc310000f65a0000f65a0000f65a00007b
:10009800f65a0000f65a0000f65a0000f65a000018
:1000a800f65a0000f65a0000f65a0000a64f000063
:1000b800f65a0000f65a0000f65a0000f65a0000f8
:1000c800f65a0000f65a0000f65a0000f65a0000e8
:1000d800f65a0000f65a0000f65a0000f65a0000d8
:1000e800f65a0000f65a0000f65a0000f65a0000c8
:1000f800f65a0000f65a0000f65a0000f65a0000b8
:10010800f65a0000f65a000008480000f65a0000a7
:10011800f65a0000f65a0000f65a0000f0540000a3
:10012800f65a0000f65a0000f65a0000f65a000087
:10013800f65a0000f65a0000f65a0000f65a000077
:10014800f65a0000f65a0000f65a0000f65a000067
:10015800f65a0000f65a0000f65a0000f65a000057
:10016800f65a0000f65a0000f65a0000f65a000047
:10017800f65a0000f65a0000f65a0000f65a000037
:10018800f65a0000f65a0000f65a0000f65a000027
:10019800f65a0000f65a0000f65a0000f65a000017
:1001a800f65a0000f65a0000f65a0000f65a000007
:1001b800f65a0000f65a0000f65a0000f65a0000f7
:1001c800f65a0000f65a0000f65a0000f65a0000e7
:1001d800f65a0000f65a0000f65a0000f65a0000d7
:1001e800f65a0000f65a0000f65a0000f65a0000c7
:0801f800f65a0000f65a00005f
:020000040000fa
:10020800f65a0000e65a0000ea5a0000ee5a0000ca
:10021800f25a0000f65a0000f65a0000f65a00009a
:10022800f65a0000f65a0000f65a00002050000066
:10023800c4280000f65a0000f65a0000f65a0000da
:100248006c510000f65a0000f65a0000f65a0000f9
:10025800f65a0000f65a0000ca5a0000f65a000082
:10026800f65a0000fe5a0000f65a00002e5600000a
:10027800f65a0000f65a0000f65a0000f65a000036
:10028800cc310000f65a0000f65a0000f65a000079
:10029800f65a0000f65a0000f65a0000f65a000016
:1002a800f65a0000f65a0000f65a0000a64f000061
:1002b800f65a0000f65a0000f65a0000f65a0000f6
:1002c800f65a0000f65a0000f65a0000f65a0000e6
:1002d800f65a0000f65a0000f65a0000f65a0000d6
:1002e800f65a0000f65a0000f65a0000f65a0000c6
:1002f800f65a0000f65a0000f65a0000f65a0000b6
:10030800f65a0000f65a000008480000f65a0000a5
:10031800f65a0000f65a0000f65a0000f0540000a1
:10032800f65a0000f65a0000f65a0000f65a000085
:10033800f65a0000f65a0000f65a0000f65a000075
:10034800f65a0000f65a0000f65a0000f65a000065
:10035800f65a0000f65a0000f65a0000f65a000055
:10036800f65a0000f65a0000f65a0000f65a000045
:10037800f65a0000f65a0000f65a0000f65a000035
:10038800f65a0000f65a0000f65a0000f65a000025
:10039800f65a0000f65a0000f65a0000f65a000015
:1003a800f65a0000f65a0000f65a0000f65a000005
:1003b800f65a0000f65a0000f65a0000f65a0000f5
:1003c800f65a0000f65a0000f65a0000f65a0000e5
:1003d800f65a0000f65a0000f65a0000f65a0000d5
:1003e800f65a0000f65a0000f65a0000f65a0000c5
:0803f800f65a0000f65a00005d
:020000040000fa
:100400002fc620000e5f24000e01880000000000af
:10041000000020000000e000020032000001200087
:100420002002880014000700700007000000e000b0
:1004300003003a0080d323000100200002003700af
:100440000000200001002000810f70000100320038
:1004500014000700000020000000e000020032004d
:100460000000020000000000c23a0200000000008c
:100470000040da000000fe004440a90040082000cf
:100480000000e0000300320000002000a00188000e
:100490004440a800000006008a1f78008b1f7800e7
:1004a0000000060091018800800478000000eb0045
:1004b0001a003700e284440032a0b4009905ba0063
:1004c000e284440032a0b4009906ba00e2844400f9
:1004d00032a0b4000006eb00476fde00fd07b2005b
:1004e000636ce10003003a00ebff07000000eb0043
:1004f0000a003700606ce10004003a00005deb0088
:100500008b05e900fdff3e00040037006168e10053
:10051000010032000086eb000b00070019c7ba008b
:100520001905ba000e04e00003003a000a00e000da
:10053000e0ff3a0000000600fe07b2009e018800be
:100540008a047800f5ff3700395dba008b05e900b1
:100550000c003200295dba008b05e900080032006a
:100560000c00e00003003a00e284440032a0b40032
:10057000f5ff370019ddba008b05e900faff3a00f4
:100580008904e800e184440032a0b40000000600c1
:10059000761a0400000000000021ef001108880016
:1005a00020088800000006000a21ef00710888007a
:1005b00090088800000006001421ef00d108880090
:1005c000f00888001e61a9000000060000088800ed
:1005d000000006005008880000000600a0088800ff
:1005e00000000600c00888000000060000000500aa
:1005f0003200f800023b8800910188000008bb002f
:100600000500fc0051052000313b8800a10a2000b4
:10061000313b880061e7a8000000000000000000f6
:100620003200f900000006000400a10001003700bc
:100630000400a0003200f80091018800110024009d
:10064000013b8800f10f20003208bb000400a70026
:10065000b20078000198bb008301e900faff3a007c
:10066000680151000400a7006801510068005000b3
:100670001208bb00e2ff3700f30f20003200f80041
:100680009101880031002400013b88000208bb0072
:100690000388bb00daff37003200f800003b880017
:1006a000d7ff37003200f8009101880080027800ff
:1006b000620040003549ba00e08048003204e000a2
:1006c0000410a700100032008301e9000e00320080
:1006d0002549ba003204e0000410a7000a003200e5
:1006e0008301e900080032000408a300eeff320095
:1006f00015c9ba003204e0000410a700020032005d
:100700008301e900e8ff3a003200f900000006002a
:10071000889fbe008a9fbe008c1f7800ab00070038
:10072000b200330003866c006450e1002e003200fa
:100730006420e100330032006150e1002f003200fc
:100740006120e1003100320085855500eb07b000e3
:1007500009002000080420000500370008044400b8
:1007600089844c000a0031000603430087834b0054
:100770000001530081815b00f8ff33000203be00db
:100780000800a0000804440089844c00f6ff3900ea
:10079000c639dd0083017300010032001300200020
:1007a0008904d1000884d3000998a3000500320011
:1007b0000800a7000300a0008904d1000884d3002a
:1007c0008b05e8008904d1000884d3000001eb0008
:1007d0000281d2004200070001f0a1000cf0a70046
:1007e00001f0a0008a0037006420e1008c00320094
:1007f0000801be000200be00f7ff37006120e100e3
:10080000870032006000b800f3ff370000002000ce
:1008100001f82700f0ff3700839f68000100e00027
:1008200002003d0060001000e08018000300e000be
:1008300002003d0060011100e0811900af000700d7
:100840004f00e00002003b0060001000e080180054
:100850000000060014002000b80037000001be00b0
:10086000450007000470a70003f0a1006509b1006e
:10087000160032000d0035006828e1000600350042
:10088000f0ff2f00f1ff27000300e00013003b0002
:1008900001002800000005000000400081804800a1
:1008a0008502e900fcff3a0008003700f88f42009b
:1008b00002003c008000eb00000005008100d10038
:1008c0000080d3008502e800fcff3a000300e0004e
:1008d00002003b0060001000e080180000000600ed
:1008e00081002000618055000b003d000b002000be
:1008f00061fe2f000100e1001d00340082817100c3
:10090000610164008904d1000884d3000000e8007c
:10091000faff3a00710020006100640003007000db
:10092000020060000900320061044400e0844c00d1
:100930000988a500050032008b05e8006808e10081
:1009400002003a008904d1000884d300f20f20008d
:100950000258e10005003d00c75ddd00f907b20067
:100960008980750008007800000006000bf8270059
:100970008b00780000000500c70ade00f107b20016
:10098000f50fb20008003200e1cf42000200320051
:100990000170a00024000500810f700001003200ea
:1009a0000408050044000500810f700002003a00b1
:1009b000140005008502e9000000400081c04800e5
:1009c000fcff3b000170a000240005000004be00f5
:1009d000e9ff07000003be000405be000200be00e0
:1009e000e5ff0700844f7500000006000200be000e
:1009f0006450e100050036006420e100020036008a
:100a00000968a30001003a000800be000160a000d0
:100a10004f0678004f05be004f04be0000000600e0
:100a2000f0ff2f00f1ff2700f9ff3700889fbe007d
:100a30008a9fbe008c1f7800e4ff0700ebff3300a5
:100a400003866c006450e100240032006420e10061
:100a5000270032006150e100220032006120e100f5
:100a6000210032008b854200eb07b1000134b80051
:100a7000003ab8000804420089844a00013ab800ec
:100a80000030b8008880400009014a0004003300ab
:100a90000000400081804800020149008b05e90008
:100aa000c909dd008301700001003200130020003d
:100ab000c814de004814dd004709de001200b20051
:100ac000c808de000884700085ff070001f0a1005f
:100ad0000cf0a70001f0a000cdff37006120e1007d
:100ae000cfff32000801be000200be00f7ff370052
:100af0006150e100fcff3a00c9ff37006022b800f6
:100b0000060220000000d0008180d2000482d200c2
:100b10008582d2000000a0000202520083825a00a7
:100b2000030031000202420083824a000000a1005b
:100b30000603e900f3ff3a0000000600889fbe00ac
:100b40008a9fbe00841f7800a0ff07004f00780036
:100b500011003300f0ff2f00838f6c0006003b0074
:100b6000040565000a00a7000800370009f0a60088
:100b70001000200008003700820f5400838f5c00b3
:100b8000030039001000200001003e00000020009a
:100b900009f0a7000000ea004f05be004f04be00a8
:100ba0000000e0000000060080017800020037002d
:100bb000b15978000201e9000200e000fcff3a00b0
:100bc000000006008001780002003700815978009b
:100bd0000201e9000200e000fcff3a00000006000c
:020000040000fa
:100be00000060000020100000405000003000000f0
:100bf000000000004a01000094020000de03000033
:100c00002705000070060000b90700000109000078
:100c1000480a00008f0b0000d50c0000190e0000e0
:100c20005d0f00009f100000e01100002013000085
:100c30005e1400009b150000d61600000f1800007f
:100c4000461900007b1a0000af1b0000e01c0000ea
:100c50000e1e00003b1f0000652000008c210000dc
:100c6000b1220000d3230000f3240000ff7f000026
:100c7000fb7f0000ec7f0000d37f0000b07f00000e
:100c8000837f00004c7f00000b7f0000c17e0000ce
:100c90006c7e00000e7e0000a57d0000337d00000c
:100ca000b87c0000327c0000a37b00000a7b0000bf
:100cb000687a0000bc7900000679000047780000df
:100cc0007f770000ad760000d3750000ef74000060
:100cd000017400000b7300000c720000047100002e
:080ce000f36f0000d96e000063
:020000040000fa
:100ce800889fbe008a1f78003064ab001300320072
:100cf800008020003164ab00100032003264ab0089
:100d08000e00320092218000820060000b00320049
:100d18003464ab0009003200a32180008300600026
:100d2800060032003664ab0004003200b4218000b3
:100d3800840060000080eb0053003a0080218000ae
:100d48006800600053003a00a0368a00b03682007e
:100d5800e20f5000a5003c00c2368200e20f5100ad
:100d6800a3003c00d3368200e28f5100e2013c0030
:100d7800e4368200e20f5200cf023c00f5368200d2
:100d8800e28f52000d023c0006378200e20f53004a
:100d980081033c0017378200e28f53000e003c00ad
:100da8000000e800b0368a000201e800c2368a0076
:100db8008301e800d3368a000402e800e4368a009a
:100dc8008502e800f5368a000603e80006378a003f
:100dd8008703e80017378a00c1ff2f000843200067
:100de800188c6000630060004804dd00f0cf2f001d
:100df8008a2180008a04600089047400892188009f
:100e08006301610099218000098460000804710071
:100e180098218800e3816100c819dd009a218000cb
:100e28000a01600002817100922188006302620059
:100e3800a32180000381600002017200a2218800c2
:100e4800e3826200c82add00a4218000040160005a
:100e580002817200a221880063036300b52180002b
:100e68008580600081007300b1218800e3836300fe
:100e7800c83bdd003604b60000807300b02188004e
:100e88003064a8000000eb004f0578004f04be0056
:100e98000000060001802000862180000680600096
:100ea80085003a00b0368a00a0368200e20f500072
:100eb800d8003c00c2368200e20f5100d6003c0048
:100ec800d3368200e28f5100ab023c00e436820048
:100ed800e20f520019023c00f5368200e28f520000
:100ee8008b033c0006378200e20f530073043c007a
:100ef80017378200e28f53000e003c000000e80024
:100f0800a0368a000201e800c2368a008301e800a0
:100f1800d3368a000402e800e4368a008502e80035
:100f2800f5368a000603e80006378a008703e800da
:100f380017378a0063006000c1ff2f0089218000f5
:100f4800098460000804700088218800f0cf2f0011
:100f58003024b600630161009a2180000a84600091
:100f68000804710098218800e3816100c819dd0038
:100f78009821800008016000028171009221880098
:100f880063026200a92180000981600002017200e9
:100f9800a2218800e3826200c82add00aa2180001d
:100fa8000a01600002817200a221880063036300c5
:100fb800b22180008280600081007300b121880026
:100fc800e3836300c83bdd003604b600008073008d
:100fd800b02188003164a800100020004f05780077
:100fe8004f04be0000000600aaff3700c236820088
:100ff800d3368200e4368200f53682000637820056
:1010080017378200c1ff2f0008432000188c6000aa
:10101800630060004804dd00f0cf2f008a218000c3
:101028008a046000890474008921880063016100d2
:1010380099218000098460000804710098218800c3
:10104800e3816100c819dd009a2180000a0160006f
:10105800028171009221880063026200a32180004e
:101068000381600002017200a2218800e38262000d
:10107800c82add00a42180000401600002817200fa
:10108800a221880063036300b52180008580600089
:1010980081007300b1218800e3836300c83bdd0051
:1010a8003604b60000807300b02188003064a800c0
:1010b8000000eb0074ff370090218000680060009a
:1010c80085003a00c0368a00a0368200e20f500040
:1010d800d6003c00b2368200e20f5100d4003c003a
:1010e800d3368200e28f510063013c00e43682006f
:1010f800e20f5200d6023c00f5368200e28f520021
:1011080063033c0006378200e20f530046043c00ac
:1011180017378200e28f53000e003c000000e80001
:10112800a0368a000201e800b2368a008301e8008e
:10113800d3368a000402e800e4368a008502e80013
:10114800f5368a000603e80006378a008703e800b8
:1011580017378a0063006000c1ff2f0089218000d3
:101168000984600008047000882188006301610018
:101178004811dd00f0cf2f008a2180000a046000aa
:101188000804710088218800224320001289600029
:10119800e3816100c819dd00982180000801600022
:1011a800028171009221880063026200a9218000f7
:1011b8000981600002017200a2218800e3826200b6
:1011c800c82add00aa2180000a016000028172009d
:1011d800a221880063036300b2218000828060003e
:1011e80081007300b1218800e3836300c83bdd0000
:1011f8003604b60000807300b02188003264a8006d
:10120800200020004f0578004f04be0000000600b3
:1012180020ff3700c2368200d3368200e4368200cf
:10122800f5368200063782001737820063006000b7
:10123800c1ff2f0089218000098460000804700024
:1012480088218800f0cf2f003024b60063016100a8
:101258009a2180000a84600008047100982188009f
:10126800e3816100c819dd00982180000801600051
:10127800028171009221880063026200a921800026
:101288000981600002017200a2218800e3826200e5
:10129800c82add00aa2180000a01600002817200cc
:1012a800a221880063036300b2218000828060006d
:1012b80081007300b1218800e3836300c83bdd002f
:1012c8003604b60000807300b02188003164a8009d
:1012d8001000200041ff3700932180000380600048
:1012e800d4013a00d0368a00a0368200e20f5000be
:1012f80040013c00b2368200e20f51003e013c0042
:10130800c3368200e28f510098033c00e436820025
:10131800e20f5200f2033c00f5368200e28f5200e1
:101328001d043c0006378200e20f5300dd043c0038
:1013380017378200e28f53000e003c000000e800df
:10134800a0368a000201e800b2368a008301e8006c
:10135800c3368a000402e800e4368a008502e80001
:10136800f5368a000603e80006378a008703e80096
:1013780017378a0063006000c1ff2f0089218000b1
:1013880009846000080470008821880063016100f6
:101398004811dd00f0cf2f008a2180000a04600088
:1013a8000804710088218800e38161009821800089
:1013b8000881600002817100922188003224b60001
:1013c80063026200a92180000981600002017200a5
:1013d800a2218800e3826200c82add00aa218000d9
:1013e8000a01600002817200a22188006303630081
:1013f800b22180008280600081007300b1218800e2
:10140800e3836300c83bdd003604b6000080730048
:10141800b02188003364a800300020004f05780010
:101428004f04be00000006009afe3700b236820064
:10143800d3368200e4368200f53682000637820011
:101448001737820063006000c1ff2f0089218000e8
:101458000984600008047000882188006301610025
:101468004811dd00f0cf2f008a2180000a046000b7
:101478000804710088218800224320001289600036
:10148800e3816100c819dd0098218000080160002f
:10149800028171009221880063026200a921800004
:1014a8000981600002017200a2218800e3826200c3
:1014b800c82add00aa2180000a01600002817200aa
:1014c800a221880063036300b2218000828060004b
:1014d80081007300b1218800e3836300c83bdd000d
:1014e8003604b60000807300b02188003264a8007a
:1014f8002000200043ff3700e4368200f5368200e2
:101508000637820017378200c1ff2f0008432000ea
:10151800188c6000630060004804dd00f0cf2f00e5
:101528008a2180008a046000890474008921880067
:10153800630161009921800009846000080471003a
:1015480098218800e3816100c819dd009a21800094
:101558000a01600002817100922188006302620022
:10156800a32180000381600002017200a22188008b
:10157800e3826200c82add00a42180000401600023
:1015880002817200a221880063036300b5218000f4
:101598008580600081007300b1218800e3836300c7
:1015a800c83bdd003604b60000807300b021880017
:1015b8003064a8000000eb0033fe370006378200d5
:1015c80017378200c1ff2f0008432000188c6000e5
:1015d800630060004804dd00f0cf2f008a218000fe
:1015e8008a0460008904740089218800630161000d
:1015f80099218000098460000804710098218800fe
:10160800e3816100c819dd009a2180000a016000a9
:10161800028171009221880063026200a321800088
:101628000381600002017200a2218800e382620047
:10163800c82add00a4218000040160000281720034
:10164800a221880063036300b521800085806000c3
:1016580081007300b1218800e3836300c83bdd008b
:101668003604b60000807300b02188003064a800fa
:101678000000eb0004fe3700e4368200f5368200f5
:10168800063782001737820063006000c1ff2f0011
:10169800892180000984600008047000882188007e
:1016a800630161004811dd00f0cf2f008a2180001e
:1016b8000a04600008047100882188002243200081
:1016c80012896000e3816100c819dd00982180005b
:1016d80008016000028171009221880063026200a3
:1016e800a92180000981600002017200a2218800fe
:1016f800e3826200c82add00aa2180000a01600096
:1017080002817200a221880063036300b221800075
:101718008280600081007300b1218800e383630048
:10172800c83bdd003604b60000807300b021880095
:101738003264a80020002000b2fe3700f53682008f
:10174800063782001737820063006000c1ff2f0050
:1017580089218000098460000804700088218800bd
:10176800f0cf2f003024b600630161009a21800079
:101778000a8460000804710098218800e3816100f0
:10178800c819dd00982180000801600002817100fd
:101798009221880063026200a9218000098160000b
:1017a80002017200a2218800e3826200c82add00db
:1017b800aa2180000a01600002817200a22188002b
:1017c80063036300b221800082806000810073009f
:1017d800b1218800e3836300c83bdd003604b6000e
:1017e80000807300b02188003164a8001000200038
:1017f800fafd3700b2368200c3368200e436820032
:10180800f5368200063782001737820063006000d1
:10181800c1ff2f008921800009846000080470003e
:1018280088218800630161004811dd00f0cf2f0096
:101838008a2180000a046000080471008821880059
:10184800e3816100982180000881600002817100b5
:10185800922188003224b60063026200a921800028
:101868000981600002017200a2218800e3826200ff
:10187800c82add00aa2180000a01600002817200e6
:10188800a221880063036300b22180008280600087
:1018980081007300b1218800e3836300c83bdd0049
:1018a8003604b60000807300b02188003364a800b5
:1018b80030002000d9fe3700f53682000637820056
:1018c80017378200c1ff2f0008432000188c6000e2
:1018d800630060004804dd00f0cf2f008a218000fb
:1018e8008a0460008904740089218800630161000a
:1018f80099218000098460000804710098218800fb
:10190800e3816100c819dd009a2180000a016000a6
:10191800028171009221880063026200a321800085
:101928000381600002017200a2218800e382620044
:10193800c82add00a4218000040160000281720031
:10194800a221880063036300b521800085806000c0
:1019580081007300b1218800e3836300c83bdd0088
:101968003604b60000807300b02188003064a800f7
:101978000000eb0044fd3700e4368200f5368200b3
:10198800063782001737820063006000c1ff2f000e
:10199800892180000984600008047000882188007b
:1019a800f0cf2f003024b600630161009a21800037
:1019b8000a8460000804710098218800e3816100ae
:1019c800c819dd00982180000801600002817100bb
:1019d8009221880063026200a921800009816000c9
:1019e80002017200a2218800e3826200c82add0099
:1019f800aa2180000a01600002817200a2218800e9
:101a080063036300b221800082806000810073005c
:101a1800b1218800e3836300c83bdd003604b600cb
:101a280000807300b02188003164a80010002000f5
:101a38006afd3700a02180006800600043013a0079
:101a4800e0368a00a0368200e20f5000dd003c003c
:101a5800b4368200e20f5200db003c00c53682003b
:101a6800e28f5200d8023c00d6368200e20f5300c3
:101a780038033c00f7368200e28f53003d043c00f7
:101a880003378200e28f510012003c0012378200b7
:101a9800e20f510010003c000000e800a0368a0068
:101aa8000402e800b4368a008502e800c5368a00d8
:101ab8000603e800d6368a008703e800f7368a006e
:101ac800016e24008308e8008180e8008208e800ad
:101ad800033782001237820063006000c1ff2f00c5
:101ae800892180000984600008047000882188002a
:101af800630262004822dd00f0cf2f008a218000b7
:101b08000a0460000804720088218800e3826200e9
:101b18009821800008826000048272009421880065
:101b2800630263004822dd00992180008902600079
:101b380085027200952188004a4320001a8d6000b2
:101b4800638263004822dd00a621800086026000cf
:101b580085027200a5218800e3816100b721800019
:101b68008780600081807100b1218800e3006100f6
:101b7800c808dd003604b60000807000b021880077
:101b88003464a800400020004f0578004f04be00d0
:101b980000000600bffc370017378200c1ff2f0086
:101ba80008432000188c6000630060004804dd00d2
:101bb800f0cf2f008a2180008a0460008904740015
:101bc80089218800630161009921800009846000ef
:101bd8000804710098218800e3816100c819dd00bc
:101be8009a2180000a016000028171009221880018
:101bf80063026200a3218000038160000201720079
:101c0800a2218800e3826200c82add00a4218000a6
:101c18000401600002817200a2218800630363004e
:101c2800b52180008580600081007300b1218800a3
:101c3800e3836300c83bdd003604b6000080730010
:101c4800b02188003064a8000000eb008efc37004b
:101c5800f53682000637820017378200630060007d
:101c6800c1ff2f00892180000984600008047000ea
:101c780088218800630161004811dd00f0cf2f0042
:101c88008a2180000a046000080471008821880005
:101c98002243200012896000e3816100c819dd0039
:101ca800982180000801600002817100922188005b
:101cb80063026200a92180000981600002017200ac
:101cc800a2218800e3826200c82add00aa218000e0
:101cd8000a01600002817200a22188006303630088
:101ce800b22180008280600081007300b1218800e9
:101cf800e3836300c83bdd003604b6000080730050
:101d0800b02188003264a800200020003dfd370083
:101d1800063782001737820063006000c1ff2f007a
:101d280089218000098460000804700088218800e7
:101d3800f0cf2f003024b600630161009a218000a3
:101d48000a8460000804710098218800e38161001a
:101d5800c819dd0098218000080160000281710027
:101d68009221880063026200a92180000981600035
:101d780002017200a2218800e3826200c82add0005
:101d8800aa2180000a01600002817200a221880055
:101d980063036300b22180008280600081007300c9
:101da800b1218800e3836300c83bdd003604b60038
:101db80000807300b02188003164a8001000200062
:101dc80086fc3700b4368200c5368200d6368200db
:101dd800f736820003378200123782006300600002
:101de800c1ff2f0089218000098460000804700069
:101df80088218800630262004822dd00f0cf2f00ae
:101e08008a2180000a046000080472008821880082
:101e1800e3826200982180000882600004827200d8
:101e280094218800630263004822dd009921800024
:101e38008902600085027200952188004a432000cb
:101e48001a8d6000638263004822dd00a6218000ad
:101e58008602600085027200a5218800e381610086
:101e6800b72180008780600081807100b1218800df
:101e7800e3006100c808dd003604b6000080700089
:101e8800b02188003464a800400020003eff3700dd
:101e9800063782001737820063006000c1ff2f00f9
:101ea8008921800009846000080470008821880066
:101eb800630161004811dd00f0cf2f008a21800006
:101ec8000a04600008047100882188002243200069
:101ed80012896000e3816100c819dd009821800043
:101ee800080160000281710092218800630262008b
:101ef800a92180000981600002017200a2218800e6
:101f0800e3826200c82add00aa2180000a0160007d
:101f180002817200a221880063036300b22180005d
:101f28008280600081007300b1218800e383630030
:101f3800c83bdd003604b60000807300b02188007d
:101f48003264a80020002000aefc3700a8218000e1
:101f5800888060003d013a00f1368a00a43682008c
:101f6800e20f5200c9013c00b7368200e28f5300ed
:101f780067023c00c6368200e20f53002c033c0087
:101f8800d1368200e28f50005a033c00e0368200ce
:101f9800e20f500087033c0003378200e28f5100b4
:101fa80015003c0012378200e20f510013003c007c
:101fb8000402e800a4368a008703e800b7368a00de
:101fc800856d2400860ae8008582e800810ae80019
:101fd8008580e8008008e800668042000308e80081
:101fe800688042000208e800c6368200d1368200c6
:101ff800e0368200033782001237820063026200f3
:10200800c5ff2f008921800009846200080472003e
:1020180088218800e3836300c83bdd00f4cf2f00ec
:102028008a2180000a0462000884730088218800dd
:10203800630363009821800088836200870373002c
:1020480097218800e3806000c808dd00992180009e
:10205800090362000683700096218800630060000f
:10206800aa2180008a80620081007000a121880076
:102078004043200010086200e3816100b121800024
:102088008182620085827100b52188006300610049
:102098004800dd00b22180000202620004027000e4
:1020a800b42188003564a800500020004f0578004e
:1020b8004f04be000000060076fb37001737820089
:1020c80063006000c1ff2f0089218000098460003f
:1020d8000804700088218800f0cf2f003024b60053
:1020e800630161009a2180000a846000080471007d
:1020f80098218800e3816100c819dd0098218000db
:102108000801600002817100922188006302620068
:10211800a92180000981600002017200a2218800c3
:10212800e3826200c82add00aa2180000a0160005b
:1021380002817200a221880063036300b22180003b
:102148008280600081007300b1218800e38363000e
:10215800c83bdd003604b60000807300b02188005b
:102168003164a800100020009cfb3700e436820090
:10217800f536820006378200173782006300600058
:10218800c1ff2f00892180000984600008047000c5
:1021980088218800630161004811dd00f0cf2f001d
:1021a8008a2180000a0460000804710088218800e0
:1021b800e38161009821800008816000028171003c
:1021c800922188003224b60063026200a9218000af
:1021d8000981600002017200a2218800e382620086
:1021e800c82add00aa2180000a016000028172006d
:1021f800a221880063036300b2218000828060000e
:1022080081007300b1218800e3836300c83bdd00cf
:102218003604b60000807300b02188003364a8003b
:10222800300020007dfc3700173782006300600013
:10223800c1ff2f0089218000098460000804700014
:1022480088218800630161004811dd00f0cf2f006c
:102258008a2180000a04600008047100882188002f
:102268002243200012896000e3816100c819dd0063
:102278009821800008016000028171009221880085
:1022880063026200a92180000981600002017200d6
:10229800a2218800e3826200c82add00aa2180000a
:1022a8000a01600002817200a221880063036300b2
:1022b800b22180008280600081007300b121880013
:1022c800e3836300c83bdd003604b600008073007a
:1022d800b02188003264a80020002000c9fb370024
:1022e800f5368200063782001737820063006000e7
:1022f800c1ff2f0089218000098460000804700054
:1023080088218800630161004811dd00f0cf2f00ab
:102318008a2180000a04600008047100882188006e
:10232800e3816100982180000881600002817100ca
:10233800922188003224b60063026200a92180003d
:102348000981600002017200a2218800e382620014
:10235800c82add00aa2180000a01600002817200fb
:10236800a221880063036300b2218000828060009c
:1023780081007300b1218800e3836300c83bdd005e
:102388003604b60000807300b02188003364a800ca
:102398003000200021fc3700063782001737820002
:1023a80063006000c1ff2f0089218000098460005c
:1023b8000804700088218800630161004811dd006d
:1023c800f0cf2f008a2180000a0460000804710001
:1023d80088218800e38161009821800008816000dd
:1023e80002817100922188003224b60063026200e3
:1023f800a92180000981600002017200a2218800e1
:10240800e3826200c82add00aa2180000a01600078
:1024180002817200a221880063036300b221800058
:102428008280600081007300b1218800e38363002b
:10243800c83bdd003604b60000807300b021880078
:102448003364a80030002000f4fb3700b02180007e
:1024580068006000ef003a0000378a00a736820063
:10246800e28f53008f013c00b5368200e28f5200a4
:102478008d013c00c6368200e20f5300af023c00db
:10248800d1368200e28f50000e033c00e036820015
:10249800e20f5000db023c00f4368200e20f5200eb
:1024a8009c033c0012378200e20f510015003c00eb
:1024b800436d24008709e8008381e8008509e80066
:1024c8008381e8008609e8008381e8008109e80043
:1024d8008380e8008008e800648041000408e80080
:1024e800688041000208e800b5368200c6368200de
:1024f800d1368200e0368200f4368200123782003c
:10250800a7368200e3836300c8ff2f00892180007b
:10251800890164008381730083218800e38262005b
:10252800c82add00f3cf2f008a2180008a8361004a
:1025380087837200872188006303630097218000e6
:10254800870264008502730095218800e38060009b
:10255800c808dd00992180008982610085827000a9
:102568009521880063006000aa2180008a00640029
:1025780081007000a1218800630062004800dd002e
:10258800a42180008480610081007000a12188005e
:1025980065432000950a6400630061004800dd007f
:1025a800b62180008681610083017000b321880014
:1025b8003664a800600020004f0578004f04be0074
:1025c8000000060033fa3700d6368200f73682005c
:1025d800033782001237820063006000c1ff2f00ba
:1025e800892180000984600008047000882188001f
:1025f800630262004822dd00f0cf2f008a218000ac
:102608000a0460000804720088218800e3826200de
:10261800982180000882600004827200942188005a
:10262800630263004822dd0099218000890260006e
:1026380085027200952188004a4320001a8d6000a7
:10264800638263004822dd00a621800086026000c4
:1026580085027200a5218800e3816100b72180000e
:102668008780600081807100b1218800e3006100eb
:10267800c808dd003604b60000807000b02188006c
:102688003464a800400020003ffd3700b7368200c0
:10269800c6368200d1368200e036820003378200d7
:1026a80055fe37001737820063006000c1ff2f0016
:1026b800892180000984600008047000882188004e
:1026c800630161004811dd00f0cf2f008a218000ee
:1026d8000a0460000804710088218800e381610011
:1026e8009821800008816000028171009221880091
:1026f8003224b60063026200a921800009816000cb
:1027080002017200a2218800e3826200c82add006b
:10271800aa2180000a01600002817200a2218800bb
:1027280063036300b221800082806000810073002f
:10273800b1218800e3836300c83bdd003604b6009e
:1027480000807300b02188003364a80030002000a6
:1027580032fb3700f73682000337820012378200d7
:1027680063006000c1ff2f00892180000984600098
:102778000804700088218800630262004822dd0096
:10278800f0cf2f008a2180000a046000080472003c
:1027980088218800e3826200982180000882600016
:1027a8000482720094218800630263004822dd00dd
:1027b80099218000890260008502720095218800b5
:1027c8004a4320001a8d6000638263004822dd00be
:1027d800a62180008602600085027200a52188007b
:1027e800e3816100b72180008780600081807100eb
:1027f800b1218800e3006100c808dd003604b60096
:1028080000807000b02188003464a80040002000d7
:10281800ddfc3700206e24000008eb00a73682009c
:10282800e28f53006c003c00b5368200e28f520004
:102838006a003c00c6368200e20f53008c01340067
:10284800d1368200e0368200f436820003378200f7
:10285800e3836300c8ff2f00892180000901640019
:102868000281730082218800e3826200c82add00a9
:10287800f2cf2f008a2180008a03610087837200cb
:102888008721880063036300972180008702640022
:102898008502730095218800e3806000c808dd0088
:1028a8009921800089026100858270009521880045
:1028b80063006000aa2180008a0064008100700023
:1028c800a1218800630062004800dd00a421800087
:1028d8008400610081007000a1218800e38161000b
:1028e800b52180000504640008847100b8218800bf
:1028f80066432000160b61003764a80070002000b2
:102908004f0578004f04be000000060061f937004b
:10291800c6368200d1368200e03682000337820054
:102928001237820063026200c5ff2f0089218000f0
:10293800098462000804720088218800e383630028
:10294800c83bdd00f4cf2f008a2180000a04620012
:10295800088473008821880063036300982180003d
:10296800888362008703730097218800e3806000f2
:10297800c808dd0099218000090362000683700001
:102988009621880063006000aa2180008a80620086
:1029980081007000a12188004043200010086200d7
:1029a800e3816100b121800081826200858271002b
:1029b800b5218800630061004800dd00b221800075
:1029c8000202620004027000b42188003564a80085
:1029d80050002000b5fd3700b5368200c6368200ab
:1029e800d1368200e0368200f43682000337820056
:1029f800e3836300c8ff2f00892180000901640078
:102a08000281730082218800e3826200c82add0007
:102a1800f2cf2f008a2180008a0361008783720029
:102a28008721880063036300972180008702640080
:102a38008502730095218800e3806000c808dd00e6
:102a480099218000890261008582700095218800a3
:102a580063006000aa2180008a0064008100700081
:102a6800a1218800630062004800dd00a4218000e5
:102a78008400610081007000a1218800e381610069
:102a8800b52180000504640008847100b82188001d
:102a980066432000160b61003764a8007000200010
:102aa80097ff3700b5368200c6368200d1368200dd
:102ab800e0368200f436820012378200e383630036
:102ac800c8ff2f0089218000890164008381730079
:102ad80083218800e3826200c82add00f3cf2f003b
:102ae8008a2180008a836100878372008721880099
:102af80063036300972180008702640085027300e6
:102b080095218800e3806000c808dd0099218000d5
:102b180089826100858270009521880063006000c9
:102b2800aa2180008a00640081007000a121880029
:102b3800630062004800dd00a421800084806100f9
:102b480081007000a121880065432000950a640077
:102b5800630061004800dd00b621800086816100c5
:102b680083017000b32188003664a800600020004b
:102b780091fe37000337820012378200630060003d
:102b8800c1ff2f00892180000984600008047000bb
:102b980088218800630262004822dd00f0cf2f0000
:102ba8008a2180000a0460000804720088218800d5
:102bb800e38262009821800008826000048272002b
:102bc80094218800630263004822dd009921800077
:102bd8008902600085027200952188004a4320001e
:102be8001a8d6000638263004822dd00a621800000
:102bf8008602600085027200a5218800e3816100d9
:102c0800b72180008780600081807100b121880031
:102c1800e3006100c808dd003604b60000807000db
:102c2800b02188003464a80040002000d6fb37009b
:102c3800d1368200e03682000337820012378200e4
:102c480063026200c5ff2f008921800009846200a9
:102c58000804720088218800e3836300c83bdd0014
:102c6800f4cf2f008a2180000a04620008847300d0
:102c780088218800630363009821800088836200ac
:102c88008703730097218800e3806000c808dd008f
:102c9800992180000903620006837000962188004c
:102ca80063006000aa2180008a80620081007000b1
:102cb800a12188004043200010086200e3816100e0
:102cc800b12180008182620085827100b52188006f
:102cd800630061004800dd00b2218000020262004a
:102ce80004027000b42188003564a8005000200058
:102cf800eefc3700e036820003378200123782008c
:102d080063026200c5ff2f008921800009846200e8
:102d18000804720088218800e3836300c83bdd0053
:102d2800f4cf2f008a2180000a046200088473000f
:102d380088218800630363009821800088836200eb
:102d48008703730097218800e3806000c808dd00ce
:102d5800992180000903620006837000962188008b
:102d680063006000aa2180008a80620081007000f0
:102d7800a12188004043200010086200e38161001f
:102d8800b12180008182620085827100b5218800ae
:102d9800630061004800dd00b22180000202620089
:102da80004027000b42188003564a8005000200097
:102db800befc3700033782001237820063026200cc
:102dc800c5ff2f0089218000098462000804720071
:102dd80088218800e3836300c83bdd00f4cf2f001f
:102de8008a2180000a046200088473008821880010
:102df800630363009821800088836200870373005f
:102e080097218800e3806000c808dd0099218000d0
:102e18000903620006837000962188006300600041
:102e2800aa2180008a80620081007000a1218800a8
:102e38004043200010086200e3816100b121800056
:102e48008182620085827100b5218800630061007b
:102e58004800dd00b2218000020262000402700016
:102e6800b42188003564a800500020008ffc37008a
:102e7800d1368200e28f5000c3003400e036820071
:102e8800f436820003378200e3836300c8ff2f0013
:102e98008921800009016400028173008221880071
:102ea800e3826200c82add00f2cf2f008a21800069
:102eb8008a036100878372008721880063036300a7
:102ec800972180008702640085027300952188009d
:102ed800e3806000c808dd00992180008902610054
:102ee800858270009521880063006000aa21800017
:102ef8008a00640081007000a121880063006200dc
:102f08004800dd00a4218000840061008100700079
:102f1800a1218800e3816100b521800005046400d7
:102f280008847100b821880066432000160b6100f0
:102f38003764a8007000200071fe3700d136820087
:102f4800e0368200f436820012378200e3836300a1
:102f5800c8ff2f00892180008901640083817300e4
:102f680083218800e3826200c82add00f3cf2f00a6
:102f78008a2180008a836100878372008721880004
:102f88006303630097218000870264008502730051
:102f980095218800e3806000c808dd009921800041
:102fa8008982610085827000952188006300600035
:102fb800aa2180008a00640081007000a121880095
:102fc800630062004800dd00a42180008480610065
:102fd80081007000a121880065432000950a6400e3
:102fe800630061004800dd00b62180008681610031
:102ff80083017000b32188003664a80060002000b7
:103008006dfd3700f436820012378200e3836300d7
:10301800c8ff2f0089218000890164008381730023
:1030280083218800e3826200c82add00f3cf2f00e5
:103038008a2180008a836100878372008721880043
:103048006303630097218000870264008502730090
:1030580095218800e3806000c808dd009921800080
:103068008982610085827000952188006300600074
:10307800aa2180008a00640081007000a1218800d4
:10308800630062004800dd00a421800084806100a4
:1030980081007000a121880065432000950a640022
:1030a800630061004800dd00b62180008681610070
:1030b80083017000b32188003664a80060002000f6
:1030c8003dfd3700e0368200f43682001237820078
:1030d800e3836300c8ff2f00892180008901640011
:1030e8008381730083218800e3826200c82add009f
:1030f800f3cf2f008a2180008a83610087837200c2
:103108008721880063036300972180008702640099
:103118008502730095218800e3806000c808dd00ff
:10312800992180008982610085827000952188003c
:1031380063006000aa2180008a006400810070009a
:10314800a1218800630062004800dd00a4218000fe
:103158008480610081007000a121880065432000ff
:10316800950a6400630061004800dd00b621800014
:103178008681610083017000b32188003664a8004d
:10318800600020000cfd3700e0368200e20f50009e
:1031980031003c00f4368200e20f52008c0034000b
:1031a80003378200e3836300c8ff2f008921800072
:1031b800090164000281730082218800e3826200b1
:1031c800c82add00f2cf2f008a2180008a0361001f
:1031d800878372008721880063036300972180003a
:1031e800870264008502730095218800e3806000ef
:1031f800c808dd009921800089026100858270007d
:103208009521880063006000aa2180008a0064007c
:1032180081007000a1218800630062004800dd0081
:10322800a42180008400610081007000a121880031
:10323800e3816100b5218000050464000884710001
:10324800b821880066432000160b61003764a80087
:1032580070002000aafd3700f43682000337820090
:10326800e3836300c8ff2f008921800009016400ff
:103278000281730082218800e3826200c82add008f
:10328800f2cf2f008a2180008a03610087837200b1
:103298008721880063036300972180008702640008
:1032a8008502730095218800e3806000c808dd006e
:1032b800992180008902610085827000952188002b
:1032c80063006000aa2180008a0064008100700009
:1032d800a1218800630062004800dd00a42180006d
:1032e8008400610081007000a1218800e3816100f1
:1032f800b52180000504640008847100b8218800a5
:1033080066432000160b61003764a8007000200097
:103318007bfd370012378200e3836300c8ff2f006c
:1033280089218000890164008381730083218800da
:10333800e3826200c82add00f3cf2f008a218000d3
:103348008a83610087837200872188006303630092
:103358009721800087026400850273009521880008
:10336800e3806000c808dd0099218000898261003f
:10337800858270009521880063006000aa21800082
:103388008a00640081007000a12188006300620047
:103398004800dd00a4218000848061008100700065
:1033a800a121880065432000950a6400630061003c
:1033b8004800dd00b621800086816100830170002d
:1033c800b32188003664a800600020007afc37002a
:1033d80003378200e28f51001dfd3c00426d24003e
:1033e8000709e8000281e8000509e8000281e80011
:1033f8000609e8000281e8000109e8008280e80087
:103408008008e800640041000408e8006600410004
:103418000308e800b5368200c6368200d13682003d
:10342800e0368200f436820003378200a736820035
:10343800e3836300c8ff2f0089218000090164002d
:103448000281730082218800e3826200c82add00bd
:10345800f2cf2f008a2180008a03610087837200df
:103468008721880063036300972180008702640036
:103478008502730095218800e3806000c808dd009c
:103488009921800089026100858270009521880059
:1034980063006000aa2180008a0064008100700037
:1034a800a1218800630062004800dd00a42180009b
:1034b8008400610081007000a1218800e38161001f
:1034c800b52180000504640008847100b8218800d3
:1034d80066432000160b61003764a80070002000c6
:0434e80007fd3700a5
:020000040000fa
:1034ec00f2874700889fbe008a9fbe008c9fbe005b
:1034fc008e1f780004702000040260008002eb0034
:10350c00c828dd004822de0004827000c82ade00d4
:10351c00e14f5200520032004200310093407800db
:10352c00e9cf500089003200e7cf500095003200ff
:10353c0035c3b30085cf5000cc00320025c3b30097
:10354c0085cf5000db00320085c4b30085cf50001e
:10355c009f00320075c7b30085cf500012013200b6
:10356c00b5c5b30085cf50005701320055c6b30026
:10357c0085cf50009c01320095c6b30085cf50001a
:10358c0048023200f7cf5000f502320025c7b300d5
:10359c0085cf500018033200d5c6b30085cf50003c
:1035ac0034033200e3c6b30083cf500017003a0057
:1035bc00e14f510015003a00a1e79f007e875700ac
:1035cc0041aa2000116f780091409000114798009b
:1035dc008040eb00e1e79f00d1e79f0051c0b300b2
:1035ec00b2c02000670262004822dd001281fb009d
:1035fc004411dd0004027100000fb2004400de0033
:10360c00000072007e815700bd1f07004f07780035
:10361c004f06be004f05be004f04be002f01b10087
:10362c0000000600e74f5200f8ff3a009340780084
:10363c00e1cf40002e0032000104e000f3ff3a001d
:10364c000000fe004f0778004f06be004f05be007d
:10365c004f04be002f01b10000000600f1ff37003f
:10366c006f406000ef4f5000e8ff3a00803e2000b2
:10367c00905f8800b0c020001080fb0080004000ec
:10368c000281fb00828f5000e0ff3c000000e9004b
:10369c0000004000634178000281fb000080410083
:1036ac0090409000c808dd008100710000bf200030
:1036bc0010407800e64f500044013200f0003e000c
:1036cc000004e0003e013200e24f50005e00320088
:1036dc00021507004f0778004f06be004f05be00cd
:1036ec004f04be002f01b10000000600cdff3700d3
:1036fc00e14f5100c5ff3a00a1e79f0081c0b30024
:10370c00b1e79f0031c0b300c1e79f00d1e79f0034
:10371c00e1c1b300e1e79f0051c0b300b2c020008b
:10372c00670262004822dd001281fb004411dd00bb
:10373c0004027100000fb2004400de0000007200b1
:10374c007e8157006e1f0700b0ff3700e24f51001b
:10375c00aeff3a00a0c020001004e000abff320026
:10376c0013409000ea1e07004f0778004f06be007a
:10377c004f05be004f04be002f01b1000000060033
:10378c00a8ff3700e14f5100a0ff3a00a1e79f00ce
:10379c0001bf200091407800b1e79f0021c0b30029
:1037ac00b2c02000670262004822dd001281fb00db
:1037bc004411dd0004027100000fb2004400de0071
:1037cc00000072007e8157004d1f07008fff3700ed
:1037dc00a0c020001004e0008cff3200e54f510027
:1037ec00d0023200e84f510088ff3a00734190003c
:1037fc004811dd00634090000080fb000201700066
:10380c00d3409000c808dd00434090000080fb00ce
:10381c0081007000334290004822dd00234090006c
:10382c000080fb0004007000d01d07004f077800db
:10383c004f06be004f05be004f04be002f01b10065
:10384c000000060077ff370000002800808f500032
:10385c000300320031558800a01407009dff37008b
:10386c001100280031558800fbff3700e14f510053
:10387c0066ff3a00a1e79f00b2c020009241780099
:10388c00b3e79f0021c0b300670262004822dd004d
:10389c001281fb004411dd0004027100000fb20024
:1038ac004400de00000072007e815700141f0700e8
:1038bc0056ff3700e24f510054ff3a0000bf200082
:1038cc001004e0000300320001cbb30090cf1000d5
:1038dc004eff3a0013409000b8c02000004c780016
:1038ec001e1f0700184078000e1b07000002eb009b
:1038fc0083042000826824000000250011002000b1
:10390c0065f30700220424000000250011002000ac
:10391c0034f307001880fb008000eb0040348a0071
:10392c0051348a00886c240010c0b300004c78001d
:10393c000800e8000048eb00c0aa2c0050368a00b2
:10394c000204200001fc2f00888040000080eb0066
:10395c00081e070060368a000000eb0070368a00f3
:10396c000304200002fc2f00080141000000250088
:10397c001100200029f3070003042000080178003f
:10398c00000425001100200024f307004f077800e5
:10399c004f06be004f05be004f04be002f01b10004
:1039ac00000006001fff3700e64f510017ff3600de
:1039bc00a0c020001004e00014ff320093409000df
:1039cc008180fb0000aa200010427800014878009a
:1039dc008000e800114278008048eb00a340900082
:1039ec008180fb00334290004822dd00848070000f
:1039fc00e1618800c34090008180fb00534290003d
:103a0c004822dd0084807000f161880063429000e0
:103a1c000482fb000402d10041c4200084487800d9
:103a2c00f1618000e18f40003402320051c420006b
:103a3c008048eb0041022000e84f51000d0032009d
:103a4c001162880001aa20001040780061406000db
:103a5c00eefe32001144a1004f0778004f06be0065
:103a6c004f05be004f04be002f01b1000000060040
:103a7c00ecfe3700f34090008180fb00f0ff370034
:103a8c00ea4f500012ff3900eb4f50006eff36002a
:103a9c0002c5b300824f50000dff3a0000c0290050
:103aac00808f500001003d0080007800004026000f
:103abc00808f500001003400800078001155880080
:103acc000614070003ff3700e34f5100cffe3a0006
:103adc00a3429000134190008040eb00e14f510055
:103aec001e003200a2c0200001497800b1c5b3000d
:103afc00a1e79f0081c0b300b1e79f0033c0b300c2
:103b0c00c3e79f00d3e79f00e3c1b300e3e79f0047
:103b1c0013c0b300f3e79f0063c0b30083ef9f00b3
:103b2c009241780093ef9f0012417800b2c02000c0
:103b3c00670262004822dd001281fb004411dd00a7
:103b4c0004027100000fb2004400de00000072009d
:103b5c007e8157006a1e0700acfe37008540780056
:103b6c0061c0b2008180fb008100e900cf08de005b
:103b7c00a2c0200001497800b1c5b300a1e79f00a5
:103b8c0081c0b300b1e79f0033c0b300c3e79f000f
:103b9c00d3e79f00e3c1b300e3e79f0013c0b3007a
:103bac00f3e79f0063c0b30083ef9f00924178005e
:103bbc0093ef9f0012417800b2c02000dcff370069
:103bcc003b1c0700c5130700c2fe370000518000e4
:103bdc00808f5000800134000151800021558800f5
:103bec00be130700bbfe3700a0c020001004e0008d
:103bfc0086fe3200e84f5100e9013200e64f5100d9
:103c0c0082fe3a0013409000e14f5000d801320080
:103c1c00e24f50007dfe3a0013009000a30090008c
:103c2c00a0608800b1608800cb608000da60800002
:103c3c00ad608000bc6080000d0178008c017800c4
:103c4c000b0078008a007800fff207000000e0000b
:103c5c00c50135000a04be000200200003f8230051
:103c6c000900780088007800f7f207000000e000f7
:103c7c00260535000200200003002400090078000e
:103c8c0088007800f0f207000000e0000305350022
:103c9c000200200003082400090078008800780046
:103cac00e9f207000000e000e0043500020020000b
:103cbc00031024000900780088007800e2f2070065
:103ccc000000e000bd0435000200200003182400b1
:103cdc000900780088007800dbf207000000e000a3
:103cec009a0435000200200003202400090078000b
:103cfc0088007800d4f207000000e000770435005b
:103d0c0002002000032824000900780088007800b5
:103d1c00cdf207000000e000540435000200200042
:103d2c00033024000900780088007800c6f20700f0
:103d3c000000e000310435000200200003382400ac
:103d4c000900780088007800bff207000000e0004e
:103d5c000e04350002002000034024000900780006
:103d6c0088007800b8f207000000e000eb03350093
:103d7c000200200003482400090078008800780025
:103d8c00b1f207000000e000c8033500020020007b
:103d9c00035024000900780088007800aaf207007c
:103dac000000e000a50335000200200003582400a9
:103dbc000900780088007800a3f207000000e000fa
:103dcc008203350002002000036024000900780003
:103ddc00880078009cf207000000e0005f033500cb
:103dec000200200003682400090078008800780095
:103dfc0095f207000000e0003c03350002002000b3
:103e0c0003702c000802be000500780084007800c6
:103e1c008df207000000e000fcfd3d00f0002000ea
:103e2c000800200009702c00fec0b30000475700aa
:103e3c0002002000037024000c02be000500780074
:103e4c0084007800f6f207000801be002df207008e
:103e5c007ff20700000678000200200003702400a7
:103e6c000a02be000500780084007800ecf207001e
:103e7c000801be0023f2070075f207000e4178001e
:103e8c008c007800031c07004f0778004f06be001b
:103e9c004f05be004f04be002f01b100000006000c
:103eac00e0fd3700a0c020001004e000d7fd320078
:103ebc00e84f51004d013200e64f5100d3fd3a005e
:103ecc0013409000e14f500030013200e24f50009f
:103edc00cefd3a0013009000a300900060608800b3
:103eec00716088008b6080009a6080006d6080003b
:103efc007c6080000d0178008c0178000b0078004c
:103f0c008a00780050f207000000e0001d01350027
:103f1c000a04be000200200003f823000900780008
:103f2c008800780048f207000000e000b702350076
:103f3c0002002000030024000900780088007800ab
:103f4c0041f207000000e00094023500020020005e
:103f5c000308240009007800880078003af2070072
:103f6c000000e00071023500020020000310240064
:103f7c00090078008800780033f207000000e000a8
:103f8c004e023500020020000318240009007800be
:103f9c00880078002cf207000000e0002b023500ae
:103fac00020020000320240009007800880078001b
:103fbc0025f207000000e000080235000200200096
:103fcc000328240009007800880078001ef20700fe
:103fdc000000e000e5013500020020000330240061
:103fec00090078008800780017f207000000e00054
:103ffc00c2013500020020000338240009007800bb
:10400c008800780010f207000000e0009f013500e6
:10401c00020020000340240009007800880078008a
:10402c0009f207000000e0007c01350002002000ce
:10403c0003482400090078008800780002f2070089
:10404c000000e0005901350002002000035024005c
:10405c000900780088007800fbf107000000e00000
:10406c0036013500020020000358240009007800b6
:10407c0088007800f4f107000000e000130135001f
:10408c0002002000036024000900780088007800fa
:10409c00edf107000000e000f00035000200200008
:1040ac00036824000900780088007800e6f1070016
:1040bc000000e000710235000200200003702c00ab
:1040cc000802be000500780084007800def10700cd
:1040dc000000e0004dfd3d00f00020000800200035
:1040ec0009702c00fec0b3000047570002002000ee
:1040fc00037024000c02be000500780084007800d8
:10410c0047f207000801be007ef10700d0f107005e
:10411c000006780002002000037024000a02be0092
:10412c0005007800840078003df207000801be000d
:10413c0074f10700c6f107000e4178008c0078007e
:10414c00661b07004f0778004f06be004f05be00e8
:10415c004f04be002f01b1000000060031fd3700f6
:10416c00e54f510029fd3a00a0c020001004e000ea
:10417c0026fd320000bf2000104078006a4050003d
:10418c00e14f500021fd3e00a3409000c808dd0027
:10419c00134090000080fb00010070003055880037
:1041ac00305580003155800000002800808f500071
:1041bc0016fd3a000000e800305588004f077800e3
:1041cc004f06be004f05be004f04be002f01b100cc
:1041dc000000060013fd3700005180000000ea00cb
:1041ec00808f50007dfe3d00015180008100ea006f
:1041fc00215588007afe3700e34f510003fd3a0049
:10420c00a0c020001004e00000fd320000c5b30087
:10421c0001bf2000914f1000fcfc3a00a34090001d
:10422c00c808dd00134090000080fb000100700006
:10423c00105588001155800000402600808f5000da
:10424c0004003c001155800000c02900808f5000f4
:10425c00eefc3d00105588004f0778004f06be005d
:10426c004f05be004f04be002f01b1000000060038
:10427c00ecfc3700e54f5100e4fc3a00a0c02000f4
:10428c001004e000e1fc320000bf200061c0b3006c
:10429c0090cf1000ddfc3a00a3409000c808dd0070
:1042ac00134090000080fb00010070002055880036
:1042bc002155800000518000808f50005e003c0032
:1042cc0021558000005180000000ea00808f5000d2
:1042dc00cefc3d00005180000000ea002055880013
:1042ec004f0778004f06be004f05be004f04be00be
:1042fc002f01b10000000600cafc37001054a000ca
:10430c0014c0b30051c4200084487800e7805000ea
:10431c008008eb0041022000e84f5100c8fd3a0034
:10432c00d4fd3700a3409000c808dd001340900076
:10433c000080fb00810070004f08de00010040008f
:10434c000080d10002e22400081b07004f07780010
:10435c004f06be004f05be004f04be002f01b1003a
:10436c0000000600affc37000c04be003afe37001c
:10437c0013009000a3009000c0608800d1608800fa
:10438c0029fe37000c04be00e2fe3700130090003b
:10439c00a30090008060880091608800d1fe3700f7
:1043ac0073419000c3409000c808dd00334090007a
:1043bc000080fb0081007000234290004822dd0049
:1043cc00134090000080fb0004007000b11a07003d
:1043dc004f0778004f06be004f05be004f04be00cd
:1043ec002f01b100000006008efc370073419000d5
:1043fc00c3409000c808dd00334090000080fb00f3
:10440c0081007000234290004822dd001340900090
:10441c000080fb0004007000b01a07004f07780002
:10442c004f06be004f05be004f04be002f01b10069
:10443c00000006007bfc37000351800023558800e8
:10444c004f0778004f06be004f05be004f04be005c
:10445c002f01b1000000060072fc3700d0002000d4
:10446c000800200009602400fec0b300004757007c
:10447c0002002000037024000c02be00050078002e
:10448c008400780066f107000801be009df007006b
:10449c00eff00700000678000200200003702400f3
:1044ac000a02be0005007800840078005cf1070069
:1044bc000801be0093f00700e5f007000e417800fc
:1044cc008c007800851a07001eff3700c000200002
:1044dc000800200009582400fec0b3000047570014
:1044ec0002002000037024000c02be0005007800be
:1044fc00840078004af107000801be0081f0070033
:10450c00d3f007000006780002002000037024009e
:10451c000a02be00050078008400780040f1070014
:10452c000801be0077f00700c9f007000e417800c3
:10453c008c007800691a070002ff3700b0002000d9
:10454c000800200009502400fec0b30000475700ab
:10455c0002002000037024000c02be00050078004d
:10456c00840078002ef107000801be0065f00700fa
:10457c00b7f007000006780002002000037024004a
:10458c000a02be00050078008400780024f10700c0
:10459c000801be005bf00700adf007000e4178008b
:1045ac008c0078004d1a0700e6fe3700a0002000b2
:1045bc000800200009482400fec0b3000047570043
:1045cc0002002000037024000c02be0005007800dd
:1045dc008400780012f107000801be0049f00700c2
:1045ec009bf00700000678000200200003702400f6
:1045fc000a02be00050078008400780008f107006c
:10460c000801be003ff0070091f007000e41780052
:10461c008c007800311a0700cafe37009000200089
:10462c000800200009402400fec0b30000475700da
:10463c0002002000037024000c02be00050078006c
:10464c0084007800f6f007000801be002df007008a
:10465c007ff00700000678000200200003702400a1
:10466c000a02be000500780084007800ecf0070018
:10467c000801be0023f0070075f007000e4178001a
:10468c008c007800151a0700aefe37008000200061
:10469c000800200009382400fec0b3000047570072
:1046ac0002002000037024000c02be0005007800fc
:1046bc0084007800daf007000801be0011f0070052
:1046cc0063f007000006780002002000037024004d
:1046dc000a02be000500780084007800d0f00700c4
:1046ec000801be0007f0070059f007000e417800e2
:1046fc008c007800f919070092fe3700700020003a
:10470c000800200009302400fec0b3000047570009
:10471c0002002000037024000c02be00050078008b
:10472c0084007800bef007000801be00f5ef07001a
:10473c0047f00700000678000200200003702400f8
:10474c000a02be000500780084007800b4f007006f
:10475c000801be00ebef07003df007000e417800aa
:10476c008c007800dd19070076fe37006000200011
:10477c000800200009282400fec0b30000475700a1
:10478c0002002000037024000c02be00050078001b
:10479c0084007800a2f007000801be00d9ef0700e2
:1047ac002bf00700000678000200200003702400a4
:1047bc000a02be00050078008400780098f007001b
:1047cc000801be00cfef070021f007000e41780072
:1047dc008c007800c11907005afe370050002000e9
:1047ec000800200009202400fec0b3000047570039
:1047fc0002002000037024000c02be0005007800ab
:10480c008400780086f007000801be00bdef0700a9
:10481c000ff007000006780002002000037024004f
:10482c000a02be0005007800840078007cf00700c6
:10483c000801be00b3ef070005f007000e41780039
:10484c008c007800a51907003efe370040002000c0
:10485c000800200009182400fec0b30000475700d0
:10486c0002002000037024000c02be00050078003a
:10487c00840078006af007000801be00a1ef070071
:10488c00f3ef0700000678000200200003702400fc
:10489c000a02be00050078008400780060f0070072
:1048ac000801be0097ef0700e9ef07000e41780002
:1048bc008c0078008919070022fe37003000200098
:1048cc000800200009102400fec0b3000047570068
:1048dc0002002000037024000c02be0005007800ca
:1048ec00840078004ef007000801be0085ef070039
:1048fc00d7ef0700000678000200200003702400a8
:10490c000a02be00050078008400780044f007001d
:10491c000801be007bef0700cdef07000e417800c9
:10492c008c0078006d19070006fe3700200020006f
:10493c000800200009082400fec0b30000475700ff
:10494c0002002000037024000c02be000500780059
:10495c008400780032f007000801be0069ef070000
:10496c00bbef070000067800020020000370240053
:10497c000a02be00050078008400780028f00700c9
:10498c000801be005fef0700b1ef07000e41780091
:10499c008c00780051190700eafd37001000200048
:1049ac000800200009002400fec0b3000047570097
:1049bc0002002000037024000c02be0005007800e9
:1049cc008400780016f007000801be004def0700c8
:1049dc009fef0700000678000200200003702400ff
:1049ec000a02be0005007800840078000cf0070075
:1049fc000801be0043ef070095ef07000e41780059
:104a0c008c00780035190700cefd37000000eb0054
:104a1c000800200009f82300fec0b300004757002f
:104a2c0002002000037024000c02be000500780078
:104a3c0084007800faef07000801be0031ef070090
:104a4c0083ef0700000678000200200003702400aa
:104a5c000a02be000500780084007800f0ef070021
:104a6c000801be0027ef070079ef07000e41780020
:104a7c008c00780019190700b2fd3700e000200007
:104a8c000800200009682400fec0b300004757004e
:104a9c0002002000037024000c02be000500780008
:104aac0084007800deef07000801be0015ef070058
:104abc0067ef070000067800020020000370240056
:104acc000a02be000500780084007800d4ef0700cd
:104adc000801be000bef07005def07000e417800e8
:104aec008c007800fd18070096fd3700e0002000d0
:104afc000800200009682400fec0b30000475700de
:104b0c0002002000037024000c02be000500780097
:104b1c0084007800c2ef07000801be00f9ee070020
:104b2c004bef070000067800020020000370240001
:104b3c000a02be000500780084007800b8ef070078
:104b4c000801be00efee070041ef07000e417800b0
:104b5c008c007800cf180700cbfc3700d000200069
:104b6c000800200009602400fec0b3000047570075
:104b7c0002002000037024000c02be000500780027
:104b8c0084007800a6ef07000801be00ddee0700e8
:104b9c002fef0700000678000200200003702400ad
:104bac000a02be0005007800840078009cef070024
:104bbc000801be00d3ee070025ef07000e41780078
:104bcc008c007800b3180700affc3700c000200041
:104bdc000800200009582400fec0b300004757000d
:104bec0002002000037024000c02be0005007800b7
:104bfc00840078008aef07000801be00c1ee0700b0
:104c0c0013ef070000067800020020000370240058
:104c1c000a02be00050078008400780080ef0700cf
:104c2c000801be00b7ee070009ef07000e4178003f
:104c3c008c0078009718070093fc3700b000200018
:104c4c000800200009502400fec0b30000475700a4
:104c5c0002002000037024000c02be000500780046
:104c6c00840078006eef07000801be00a5ee070077
:104c7c00f7ee070000067800020020000370240005
:104c8c000a02be00050078008400780064ef07007b
:104c9c000801be009bee0700edee07000e41780008
:104cac008c0078007b18070077fc3700a0002000f0
:104cbc000800200009482400fec0b300004757003c
:104ccc0002002000037024000c02be0005007800d6
:104cdc008400780052ef07000801be0089ee07003f
:104cec00dbee0700000678000200200003702400b1
:104cfc000a02be00050078008400780048ef070027
:104d0c000801be007fee0700d1ee07000e417800cf
:104d1c008c0078005f1807005bfc370090002000c7
:104d2c000800200009402400fec0b30000475700d3
:104d3c0002002000037024000c02be000500780065
:104d4c008400780036ef07000801be006dee070006
:104d5c00bfee07000006780002002000037024005c
:104d6c000a02be0005007800840078002cef0700d2
:104d7c000801be0063ee0700b5ee07000e41780097
:104d8c008c007800431807003ffc3700800020009f
:104d9c000800200009382400fec0b300004757006b
:104dac0002002000037024000c02be0005007800f5
:104dbc00840078001aef07000801be0051ee0700ce
:104dcc00a3ee070000067800020020000370240008
:104ddc000a02be00050078008400780010ef07007e
:104dec000801be0047ee070099ee07000e4178005f
:104dfc008c0078002718070023fc37007000200077
:104e0c000800200009302400fec0b3000047570002
:104e1c0002002000037024000c02be000500780084
:104e2c0084007800feee07000801be0035ee070096
:104e3c0087ee0700000678000200200003702400b3
:104e4c000a02be000500780084007800f4ee07002a
:104e5c000801be002bee07007dee07000e41780026
:104e6c008c0078000b18070007fc3700600020004e
:104e7c000800200009282400fec0b300004757009a
:104e8c0002002000037024000c02be000500780014
:104e9c0084007800e2ee07000801be0019ee07005e
:104eac006bee07000006780002002000037024005f
:104ebc000a02be000500780084007800d8ee0700d6
:104ecc000801be000fee070061ee07000e417800ee
:104edc008c007800ef170700ebfb37005000200028
:104eec000800200009202400fec0b3000047570032
:104efc0002002000037024000c02be0005007800a4
:104f0c0084007800c6ee07000801be00fded070026
:104f1c004fee07000006780002002000037024000a
:104f2c000a02be000500780084007800bcee070081
:104f3c000801be00f3ed070045ee07000e417800b6
:104f4c008c007800d3170700cffb370040002000ff
:104f5c000800200009182400fec0b30000475700c9
:104f6c0002002000037024000c02be000500780033
:104f7c0084007800aaee07000801be00e1ed0700ee
:104f8c0033ee0700000678000200200003702400b6
:104f9c000a02be000500780084007800a0ee07002d
:104fac000801be00d7ed070029ee07000e4178007e
:104fbc008c007800b7170700b3fb370030002000d7
:104fcc000800200009102400fec0b3000047570061
:104fdc0002002000037024000c02be0005007800c3
:104fec00840078008eee07000801be00c5ed0700b6
:104ffc0017ee070000067800020020000370240062
:10500c000a02be00050078008400780084ee0700d8
:10501c000801be00bbed07000dee07000e41780045
:10502c008c0078009b17070097fb370020002000ae
:10503c000800200009082400fec0b30000475700f8
:10504c0002002000037024000c02be000500780052
:10505c008400780072ee07000801be00a9ed07007d
:10506c00fbed07000006780002002000037024000e
:10507c000a02be00050078008400780068ee070084
:10508c000801be009fed0700f1ed07000e4178000e
:10509c008c0078007f1707007bfb37001000200086
:1050ac000800200009002400fec0b3000047570090
:1050bc0002002000037024000c02be0005007800e2
:1050cc008400780056ee07000801be008ded070045
:1050dc00dfed0700000678000200200003702400ba
:1050ec000a02be0005007800840078004cee070030
:1050fc000801be0083ed0700d5ed07000e417800d6
:10510c008c007800631707005ffb37000000eb0092
:10511c000800200009f82300fec0b3000047570028
:10512c0002002000037024000c02be000500780071
:10513c00840078003aee07000801be0071ed07000c
:10514c00c3ed070000067800020020000370240065
:10515c000a02be00050078008400780030ee0700db
:10516c000801be0067ed0700b9ed07000e4178009d
:0c517c008c0078004717070043fb370049
:020000040000fa
:105188003600f800809fbe00829fbe00849fbe004c
:10519800869fbe00889fbe008a9fbe008c9fbe006f
:1051a8008e1f7800f0874700400f200020028800fb
:1051b800111407004da8200022548000405480009c
:1051c800615525000192b900cf91de00838e52000f
:1051d8000d87e8000201ea00000151000192b900c0
:1051e8004f91de00028f52000181b9004f80de002e
:1051f800e48046008088510008aa20001841780001
:10520800614061001c0132002ca120001c04e00058
:105218002501320080a320008f07070000057800d1
:105228003d120700a0f79f009841780062c0610016
:1052380018013a00c9032000110009000905d80027
:105248008044e8001bb020009bcf140017003200f8
:10525800184278007040620001b020002b013a002b
:1052680018437800614063000400320000aa20005f
:10527800104078006240600048023a001b40780005
:1052880080487800894d7800e3cf54005d023200f1
:10529800e3cf540007013400e5cf54008c023200fc
:1052a80008033500e6cf5400bd02320043588000a1
:1052b8008306780032588000820278008904fb0057
:1052c80010002800808464001d0133001843780012
:1052d800624063002101320000aa200010407800db
:1052e800614260000000eb0022013200105880008b
:1052f80000005500340b2000840f50001d023c00b4
:10530800c4f42f00840f500001003d008016b00047
:10531800fe0f50001a023c00e4012000fe0f40007e
:10532800030035000000e00012013d000002ea0021
:10533800040242006063280060057a00805f28004c
:10534800e0057a008b05ea000904e000100132004c
:105358009d067800958056000a8bb9002058800079
:10536800100078000b82b900c12edd004f22de004c
:1053780004827600d1ff2f0001a2b900c13edd00f2
:10538800cf30de008180760084804000415588005f
:105398000a82b90093017800128151000b91b9007b
:1053a800c128dd004f20de00008070008000ea0088
:1053b800411add004f10de0000007200008050002e
:1053c800505588001c04e0000e01320000bf200088
:1053d80004a52000b3c0b30090cf11001d01320016
:1053e80001bf200066c0b300914f130019013200bd
:1053f8001c04e00017013a0042558000015180006a
:10540800810f5100c7013c004355800002518000c4
:105418000201ea0041a42000828f510001003d00f2
:1054280080c8eb0042a420001104e000c301320050
:1054380011c0b30092cf10004f03320080c0eb00c0
:1054480092cf1000ee023200a0518000b1518000ce
:105458006251800073518000020040008380480040
:105468001401fb000201e900030033008180d10030
:105478000080d300fbff370080067800515580007c
:105488008100ea00605280001252800002815000c0
:105498000093b90096bf9f00a7bf9f00725280007b
:1054a80010528000008040000283b900c6bf9f00f0
:1054b800d7bf9f008251800093518000e2bf9f00b8
:1054c800f3bf9f001fb99700afb9970002034300cd
:1054d80083834b006fb99700ffb99700060341001b
:1054e8008783490096bf9f00a7bf9f008651880009
:1054f8009751880011528800825180009351800092
:1055080090528000a1528000800f5100818f590075
:105518001e01340096528000a752800086518800f0
:105528009751880082518000935180001400fb003d
:105538000000e900030033008381d1000281d30019
:10554800fbff370002067800210320001203200029
:10555800c201e20009003d00100e800000f0a10029
:10556800820f500005003e008100e900f8ff3a0074
:1055780000c620001074a000c1160700905f8000cc
:105588000000e00006003400905f80000000e900a1
:10559800905f8800905f80000000e00044013200c6
:1055a8000ae9b9000be0b900c10bdd004f00de00cd
:1055b80000807300d1ff2f000180b900411add007f
:1055c8004f11de0002017200800041000beab900b1
:1055d8000ae5b900415bdd004f50de0000007300b2
:1055e800c12bdd00cf26de008d8673000d00400044
:1055f8000904e000010032000000ea00a25880001f
:105608000089500082588000000940008100ea00ab
:1056180092588000008950005258800061588000dc
:10562800705880009e0d070018447800644064009c
:1056380005003a00f05780000000e800f0578800a5
:10564800f30f5000eb003c008480a9000f01b1006b
:105658004f0778004f06be004f05be004f04be003e
:105668004f03be004f02be004f01be004f00be00f8
:105678003600f900004006000005eb002ca12000d0
:1056880025110700a0f79f009841780062c06100cb
:10569800e8fe3200671107000080fb00015f280068
:1056a800e1447800e7fe3700e815070000057800b8
:1056b800dbfe3700e1cf540073013200e2cf540023
:1056c800fafe3a004d588800e0b02000a058880043
:1056d80080a8200030588800a0b02000905888008a
:1056e8002e588800c0b020008058880085a8200067
:1056f8008d017800050178008904fb00100028005e
:1057080080846400f1fe3b000d003700b1bf9f00ac
:10571800a0170700bfb897001c04e000d0fe3a00ad
:1057280002608000800f510086023200006088000d
:105738001843780061406300ccfe3a00cffe370082
:105748008904e900e0ff2f00890470008904e8005b
:105758001843780062406300dffe3a00c40320006b
:10576800110009000405d8008000fd007e005000eb
:10577800eefe3300000040006463280064057800f2
:10578800845f2800e40578000904e000f0fe3a0090
:105798009d067800958056000a8bb9002058800035
:1057a800100078000b82b900c12edd00cf20de008a
:1057b80081807600630ab900c13edd00cf30de008b
:1057c8008180760084804000415588000a82b900b3
:1057d80093017800128151000b91b900c128dd00b6
:1057e8004f20de0000807000411add00cf10de007f
:1057f8008100720001005000505588001c04e00030
:10580800f2fe3a0000bf200010437800ea4053003f
:10581800e1cf50007501360063c0b30090cf11008e
:105828009b01320001c5b30090cf10003a0132004d
:105838006011b800a2518800b35188008000eb00c5
:10584800c151880004a52000b3c0b30090cf110057
:10585800e3fe3a00c15180004055800000805000ae
:10586800625280000152800081005000028eb9000f
:105878007252800001528000810040000289b90004
:1058880046518000575180000c0141008d8149002c
:105898000201430083814b00425188005351880024
:1058a800005288004251800053518000905280007d
:1058b800a1528000800f5100818f59008000340070
:1058c80090528000a15280004051880051518800b8
:1058d80040518000515180001401fb000201e90091
:1058e800030033008180d1000080d300fbff370024
:1058f80080067800515580008100ea0060528000df
:1059080012528000028150000093b90096bf9f0098
:10591800a7bf9f0072528000105280000080400094
:105928000283b900c6bf9f00d7bf9f008251800085
:1059380093518000e2bf9f00f3bf9f001fb99700fb
:10594800afb997000203430083834b006fb99700f8
:10595800ffb99700060341008783490096bf9f005f
:10596800a7bf9f0086518800975188001152880070
:10597800825180009351800090528000a152800093
:10598800800f5100818f5900e2fe3c009252800046
:10599800a352800080518000915180006001110065
:1059a800e0811900800f5100818f5900ddfe34001d
:1059b80090528000a152800060001000e080180022
:1059c80080518800915188000001be001400fb003e
:1059d8000000e900030033008381d1000281d30075
:1059e800fbff370002067800210320001203200085
:1059f800d7fe37000000eb00f057880042558000c2
:105a0800405580000281b900e0508000f1508000cc
:105a1800c4508000d5508000000151008181590098
:105a2800c61edd004a10de0000807600ca98de003f
:105a38000000420081804a00c0508800d150880090
:105a4800c0508000d1508000e00f5000e08f580017
:105a5800c0003500c2508000d3508000a0508000a4
:105a6800b1508000800f5100818f5900f6fe34003c
:105a780000c620001014a000811507008480a9002a
:105a88000f01b1004f0778004f06be004f05be005a
:105a98004f04be004f03be004f02be004f01be00c0
